{"abi":[{"type":"function","name":"REQUEST_DATA_VERSION","inputs":[],"outputs":[{"name":"","type":"uint16","internalType":"uint16"}],"stateMutability":"view"},{"type":"error","name":"EmptyArgs","inputs":[]},{"type":"error","name":"EmptySecrets","inputs":[]},{"type":"error","name":"EmptySource","inputs":[]},{"type":"error","name":"NoInlineSecrets","inputs":[]}],"bytecode":{"object":"0x60bc61004c600b8282823980515f1a6073146040577f4e487b71000000000000000000000000000000000000000000000000000000005f525f60045260245ffd5b305f52607381538281f3fe73000000000000000000000000000000000000000030146080604052600436106032575f3560e01c80635d641dfc146036575b5f5ffd5b603c6050565b60405160479190606f565b60405180910390f35b600181565b5f61ffff82169050919050565b6069816055565b82525050565b5f60208201905060805f8301846062565b9291505056fea26469706673582212202fa3b978a94ca1e9303cb4cdd32b7028ac6f561d7ddbdfcc1536e66423958f2a64736f6c63430008210033","linkReferences":{}},"methodIdentifiers":{"REQUEST_DATA_VERSION()":"5d641dfc"},"id":6}