{"abi":[{"type":"constructor","inputs":[],"stateMutability":"nonpayable"},{"type":"function","name":"fulfillRequest","inputs":[{"name":"client","type":"address","internalType":"address"},{"name":"requestId","type":"bytes32","internalType":"bytes32"},{"name":"response","type":"bytes","internalType":"bytes"},{"name":"err","type":"bytes","internalType":"bytes"}],"outputs":[],"stateMutability":"nonpayable"},{"type":"function","name":"owner","inputs":[],"outputs":[{"name":"","type":"address","internalType":"address"}],"stateMutability":"view"},{"type":"function","name":"renounceOwnership","inputs":[],"outputs":[],"stateMutability":"nonpayable"},{"type":"function","name":"sendRequest","inputs":[{"name":"","type":"uint64","internalType":"uint64"},{"name":"","type":"bytes","internalType":"bytes"},{"name":"","type":"uint16","internalType":"uint16"},{"name":"","type":"uint32","internalType":"uint32"},{"name":"","type":"bytes32","internalType":"bytes32"}],"outputs":[{"name":"requestId","type":"bytes32","internalType":"bytes32"}],"stateMutability":"nonpayable"},{"type":"function","name":"transferOwnership","inputs":[{"name":"newOwner","type":"address","internalType":"address"}],"outputs":[],"stateMutability":"nonpayable"},{"type":"event","name":"OwnershipTransferred","inputs":[{"name":"previousOwner","type":"address","indexed":true,"internalType":"address"},{"name":"newOwner","type":"address","indexed":true,"internalType":"address"}],"anonymous":false},{"type":"event","name":"RequestFulfilled","inputs":[{"name":"requestId","type":"bytes32","indexed":true,"internalType":"bytes32"},{"name":"client","type":"address","indexed":true,"internalType":"address"}],"anonymous":false},{"type":"event","name":"RequestSent","inputs":[{"name":"requestId","type":"bytes32","indexed":true,"internalType":"bytes32"},{"name":"client","type":"address","indexed":true,"internalType":"address"}],"anonymous":false},{"type":"error","name":"OwnableInvalidOwner","inputs":[{"name":"owner","type":"address","internalType":"address"}]},{"type":"error","name":"OwnableUnauthorizedAccount","inputs":[{"name":"account","type":"address","internalType":"address"}]}],"bytecode":{"object":"0x608060405234801561000f575f5ffd5b50335f73ffffffffffffffffffffffffffffffffffffffff168173ffffffffffffffffffffffffffffffffffffffff1603610081575f6040517f1e4fbdf70000000000000000000000000000000000000000000000000000000081526004016100789190610196565b60405180910390fd5b6100908161009660201b60201c565b506101af565b5f5f5f9054906101000a900473ffffffffffffffffffffffffffffffffffffffff169050815f5f6101000a81548173ffffffffffffffffffffffffffffffffffffffff021916908373ffffffffffffffffffffffffffffffffffffffff1602179055508173ffffffffffffffffffffffffffffffffffffffff168173ffffffffffffffffffffffffffffffffffffffff167f8be0079c531659141344cd1fd0a4f28419497f9722a3daafe3b4186f6b6457e060405160405180910390a35050565b5f73ffffffffffffffffffffffffffffffffffffffff82169050919050565b5f61018082610157565b9050919050565b61019081610176565b82525050565b5f6020820190506101a95f830184610187565b92915050565b610995806101bc5f395ff3fe608060405234801561000f575f5ffd5b5060043610610055575f3560e01c80633e2e8de314610059578063461d276214610075578063715018a6146100a55780638da5cb5b146100af578063f2fde38b146100cd575b5f5ffd5b610073600480360381019061006e919061053f565b6100e9565b005b61008f600480360381019061008a919061068f565b6101ab565b60405161009c9190610734565b60405180910390f35b6100ad61023c565b005b6100b761024f565b6040516100c4919061075c565b60405180910390f35b6100e760048036038101906100e29190610775565b610276565b005b6100f16102fa565b8573ffffffffffffffffffffffffffffffffffffffff16630ca7617586868686866040518663ffffffff1660e01b81526004016101329594939291906107fa565b5f604051808303815f87803b158015610149575f5ffd5b505af115801561015b573d5f5f3e3d5ffd5b505050508573ffffffffffffffffffffffffffffffffffffffff16857f830b60a027ae5718542482d9a0dff6192a316ad1720cd40a5b45aa1e21ab543a60405160405180910390a3505050505050565b5f423360015f8154809291906101c090610877565b919050556040516020016101d693929190610923565b6040516020818303038152906040528051906020012090503373ffffffffffffffffffffffffffffffffffffffff16817f91f0d67c2f27abd6cfc317e120d5e80b31e97b9926b65d3887e59402fb20adfb60405160405180910390a39695505050505050565b6102446102fa565b61024d5f610381565b565b5f5f5f9054906101000a900473ffffffffffffffffffffffffffffffffffffffff16905090565b61027e6102fa565b5f73ffffffffffffffffffffffffffffffffffffffff168173ffffffffffffffffffffffffffffffffffffffff16036102ee575f6040517f1e4fbdf70000000000000000000000000000000000000000000000000000000081526004016102e5919061075c565b60405180910390fd5b6102f781610381565b50565b610302610442565b73ffffffffffffffffffffffffffffffffffffffff1661032061024f565b73ffffffffffffffffffffffffffffffffffffffff161461037f57610343610442565b6040517f118cdaa7000000000000000000000000000000000000000000000000000000008152600401610376919061075c565b60405180910390fd5b565b5f5f5f9054906101000a900473ffffffffffffffffffffffffffffffffffffffff169050815f5f6101000a81548173ffffffffffffffffffffffffffffffffffffffff021916908373ffffffffffffffffffffffffffffffffffffffff1602179055508173ffffffffffffffffffffffffffffffffffffffff168173ffffffffffffffffffffffffffffffffffffffff167f8be0079c531659141344cd1fd0a4f28419497f9722a3daafe3b4186f6b6457e060405160405180910390a35050565b5f33905090565b5f5ffd5b5f5ffd5b5f73ffffffffffffffffffffffffffffffffffffffff82169050919050565b5f61047a82610451565b9050919050565b61048a81610470565b8114610494575f5ffd5b50565b5f813590506104a581610481565b92915050565b5f819050919050565b6104bd816104ab565b81146104c7575f5ffd5b50565b5f813590506104d8816104b4565b92915050565b5f5ffd5b5f5ffd5b5f5ffd5b5f5f83601f8401126104ff576104fe6104de565b5b8235905067ffffffffffffffff81111561051c5761051b6104e2565b5b602083019150836001820283011115610538576105376104e6565b5b9250929050565b5f5f5f5f5f5f6080878903121561055957610558610449565b5b5f61056689828a01610497565b965050602061057789828a016104ca565b955050604087013567ffffffffffffffff8111156105985761059761044d565b5b6105a489828a016104ea565b9450945050606087013567ffffffffffffffff8111156105c7576105c661044d565b5b6105d389828a016104ea565b92509250509295509295509295565b5f67ffffffffffffffff82169050919050565b6105fe816105e2565b8114610608575f5ffd5b50565b5f81359050610619816105f5565b92915050565b5f61ffff82169050919050565b6106358161061f565b811461063f575f5ffd5b50565b5f813590506106508161062c565b92915050565b5f63ffffffff82169050919050565b61066e81610656565b8114610678575f5ffd5b50565b5f8135905061068981610665565b92915050565b5f5f5f5f5f5f60a087890312156106a9576106a8610449565b5b5f6106b689828a0161060b565b965050602087013567ffffffffffffffff8111156106d7576106d661044d565b5b6106e389828a016104ea565b955095505060406106f689828a01610642565b935050606061070789828a0161067b565b925050608061071889828a016104ca565b9150509295509295509295565b61072e816104ab565b82525050565b5f6020820190506107475f830184610725565b92915050565b61075681610470565b82525050565b5f60208201905061076f5f83018461074d565b92915050565b5f6020828403121561078a57610789610449565b5b5f61079784828501610497565b91505092915050565b5f82825260208201905092915050565b828183375f83830152505050565b5f601f19601f8301169050919050565b5f6107d983856107a0565b93506107e68385846107b0565b6107ef836107be565b840190509392505050565b5f60608201905061080d5f830188610725565b81810360208301526108208186886107ce565b905081810360408301526108358184866107ce565b90509695505050505050565b7f4e487b71000000000000000000000000000000000000000000000000000000005f52601160045260245ffd5b5f819050919050565b5f6108818261086e565b91507fffffffffffffffffffffffffffffffffffffffffffffffffffffffffffffffff82036108b3576108b2610841565b5b600182019050919050565b5f819050919050565b6108d86108d38261086e565b6108be565b82525050565b5f8160601b9050919050565b5f6108f4826108de565b9050919050565b5f610905826108ea565b9050919050565b61091d61091882610470565b6108fb565b82525050565b5f61092e82866108c7565b60208201915061093e828561090c565b60148201915061094e82846108c7565b60208201915081905094935050505056fea26469706673582212203db9b914dbec2a5ef6eed910c93969c6ffd3e64702b9adae296e99b268608f2e64736f6c63430008210033","linkReferences":{}},"methodIdentifiers":{"fulfillRequest(address,bytes32,bytes,bytes)":"3e2e8de3","owner()":"8da5cb5b","renounceOwnership()":"715018a6","sendRequest(uint64,bytes,uint16,uint32,bytes32)":"461d2762","transferOwnership(address)":"f2fde38b"},"id":63}