{"abi":[{"type":"constructor","inputs":[{"name":"usdc","type":"address","internalType":"address"},{"name":"name","type":"string","internalType":"string"},{"name":"symbol","type":"string","internalType":"string"},{"name":"initialNav","type":"uint256","internalType":"uint256"},{"name":"_maxNavStaleness","type":"uint256","internalType":"uint256"}],"stateMutability":"nonpayable"},{"type":"function","name":"AUTO_RELEASE_DELAY","inputs":[],"outputs":[{"name":"","type":"uint256","internalType":"uint256"}],"stateMutability":"view"},{"type":"function","name":"DEFAULT_ADMIN_ROLE","inputs":[],"outputs":[{"name":"","type":"bytes32","internalType":"bytes32"}],"stateMutability":"view"},{"type":"function","name":"INVESTOR_ROLE","inputs":[],"outputs":[{"name":"","type":"bytes32","internalType":"bytes32"}],"stateMutability":"view"},{"type":"function","name":"LOCKUP_PERIOD","inputs":[],"outputs":[{"name":"","type":"uint256","internalType":"uint256"}],"stateMutability":"view"},{"type":"function","name":"MAX_NAV_CHANGE_BPS","inputs":[],"outputs":[{"name":"","type":"uint256","internalType":"uint256"}],"stateMutability":"view"},{"type":"function","name":"MIN_DEPOSIT","inputs":[],"outputs":[{"name":"","type":"uint256","internalType":"uint256"}],"stateMutability":"view"},{"type":"function","name":"NAV_UPDATER_ROLE","inputs":[],"outputs":[{"name":"","type":"bytes32","internalType":"bytes32"}],"stateMutability":"view"},{"type":"function","name":"ORACLE_TIMELOCK","inputs":[],"outputs":[{"name":"","type":"uint256","internalType":"uint256"}],"stateMutability":"view"},{"type":"function","name":"PAUSER_ROLE","inputs":[],"outputs":[{"name":"","type":"bytes32","internalType":"bytes32"}],"stateMutability":"view"},{"type":"function","name":"REDEMPTION_COOLDOWN","inputs":[],"outputs":[{"name":"","type":"uint256","internalType":"uint256"}],"stateMutability":"view"},{"type":"function","name":"acceptOracle","inputs":[],"outputs":[],"stateMutability":"nonpayable"},{"type":"function","name":"adminForceUpdateNAV","inputs":[{"name":"newNav","type":"uint256","internalType":"uint256"}],"outputs":[],"stateMutability":"nonpayable"},{"type":"function","name":"allowance","inputs":[{"name":"owner","type":"address","internalType":"address"},{"name":"spender","type":"address","internalType":"address"}],"outputs":[{"name":"","type":"uint256","internalType":"uint256"}],"stateMutability":"view"},{"type":"function","name":"approve","inputs":[{"name":"spender","type":"address","internalType":"address"},{"name":"value","type":"uint256","internalType":"uint256"}],"outputs":[{"name":"","type":"bool","internalType":"bool"}],"stateMutability":"nonpayable"},{"type":"function","name":"asset","inputs":[],"outputs":[{"name":"","type":"address","internalType":"address"}],"stateMutability":"view"},{"type":"function","name":"balanceOf","inputs":[{"name":"account","type":"address","internalType":"address"}],"outputs":[{"name":"","type":"uint256","internalType":"uint256"}],"stateMutability":"view"},{"type":"function","name":"cancelRedemption","inputs":[],"outputs":[],"stateMutability":"nonpayable"},{"type":"function","name":"claimRedemption","inputs":[],"outputs":[],"stateMutability":"nonpayable"},{"type":"function","name":"convertToAssets","inputs":[{"name":"shares","type":"uint256","internalType":"uint256"}],"outputs":[{"name":"","type":"uint256","internalType":"uint256"}],"stateMutability":"view"},{"type":"function","name":"convertToShares","inputs":[{"name":"assets","type":"uint256","internalType":"uint256"}],"outputs":[{"name":"","type":"uint256","internalType":"uint256"}],"stateMutability":"view"},{"type":"function","name":"currentOracle","inputs":[],"outputs":[{"name":"","type":"address","internalType":"address"}],"stateMutability":"view"},{"type":"function","name":"decimals","inputs":[],"outputs":[{"name":"","type":"uint8","internalType":"uint8"}],"stateMutability":"view"},{"type":"function","name":"deposit","inputs":[{"name":"assets","type":"uint256","internalType":"uint256"},{"name":"receiver","type":"address","internalType":"address"}],"outputs":[{"name":"","type":"uint256","internalType":"uint256"}],"stateMutability":"nonpayable"},{"type":"function","name":"disputeRedemption","inputs":[{"name":"investor","type":"address","internalType":"address"}],"outputs":[],"stateMutability":"nonpayable"},{"type":"function","name":"forceFulfillRedemption","inputs":[{"name":"investor","type":"address","internalType":"address"}],"outputs":[],"stateMutability":"nonpayable"},{"type":"function","name":"fulfillRedemption","inputs":[{"name":"investor","type":"address","internalType":"address"}],"outputs":[],"stateMutability":"nonpayable"},{"type":"function","name":"getRoleAdmin","inputs":[{"name":"role","type":"bytes32","internalType":"bytes32"}],"outputs":[{"name":"","type":"bytes32","internalType":"bytes32"}],"stateMutability":"view"},{"type":"function","name":"grantRole","inputs":[{"name":"role","type":"bytes32","internalType":"bytes32"},{"name":"account","type":"address","internalType":"address"}],"outputs":[],"stateMutability":"nonpayable"},{"type":"function","name":"hasRole","inputs":[{"name":"role","type":"bytes32","internalType":"bytes32"},{"name":"account","type":"address","internalType":"address"}],"outputs":[{"name":"","type":"bool","internalType":"bool"}],"stateMutability":"view"},{"type":"function","name":"maxDeposit","inputs":[{"name":"","type":"address","internalType":"address"}],"outputs":[{"name":"","type":"uint256","internalType":"uint256"}],"stateMutability":"view"},{"type":"function","name":"maxExitBps","inputs":[],"outputs":[{"name":"","type":"uint256","internalType":"uint256"}],"stateMutability":"view"},{"type":"function","name":"maxMint","inputs":[{"name":"","type":"address","internalType":"address"}],"outputs":[{"name":"","type":"uint256","internalType":"uint256"}],"stateMutability":"view"},{"type":"function","name":"maxNavStaleness","inputs":[],"outputs":[{"name":"","type":"uint256","internalType":"uint256"}],"stateMutability":"view"},{"type":"function","name":"maxRedeem","inputs":[{"name":"owner","type":"address","internalType":"address"}],"outputs":[{"name":"","type":"uint256","internalType":"uint256"}],"stateMutability":"view"},{"type":"function","name":"maxWithdraw","inputs":[{"name":"owner","type":"address","internalType":"address"}],"outputs":[{"name":"","type":"uint256","internalType":"uint256"}],"stateMutability":"view"},{"type":"function","name":"mint","inputs":[{"name":"shares","type":"uint256","internalType":"uint256"},{"name":"receiver","type":"address","internalType":"address"}],"outputs":[{"name":"","type":"uint256","internalType":"uint256"}],"stateMutability":"nonpayable"},{"type":"function","name":"name","inputs":[],"outputs":[{"name":"","type":"string","internalType":"string"}],"stateMutability":"view"},{"type":"function","name":"navPerShare","inputs":[],"outputs":[{"name":"","type":"uint256","internalType":"uint256"}],"stateMutability":"view"},{"type":"function","name":"navUpdatedAt","inputs":[],"outputs":[{"name":"","type":"uint256","internalType":"uint256"}],"stateMutability":"view"},{"type":"function","name":"oracleChangeAt","inputs":[],"outputs":[{"name":"","type":"uint256","internalType":"uint256"}],"stateMutability":"view"},{"type":"function","name":"pause","inputs":[],"outputs":[],"stateMutability":"nonpayable"},{"type":"function","name":"paused","inputs":[],"outputs":[{"name":"","type":"bool","internalType":"bool"}],"stateMutability":"view"},{"type":"function","name":"pendingOracle","inputs":[],"outputs":[{"name":"","type":"address","internalType":"address"}],"stateMutability":"view"},{"type":"function","name":"pendingRedemptionValue","inputs":[],"outputs":[{"name":"","type":"uint256","internalType":"uint256"}],"stateMutability":"view"},{"type":"function","name":"previewDeposit","inputs":[{"name":"assets","type":"uint256","internalType":"uint256"}],"outputs":[{"name":"","type":"uint256","internalType":"uint256"}],"stateMutability":"view"},{"type":"function","name":"previewMint","inputs":[{"name":"shares","type":"uint256","internalType":"uint256"}],"outputs":[{"name":"","type":"uint256","internalType":"uint256"}],"stateMutability":"view"},{"type":"function","name":"previewRedeem","inputs":[{"name":"shares","type":"uint256","internalType":"uint256"}],"outputs":[{"name":"","type":"uint256","internalType":"uint256"}],"stateMutability":"view"},{"type":"function","name":"previewWithdraw","inputs":[{"name":"assets","type":"uint256","internalType":"uint256"}],"outputs":[{"name":"","type":"uint256","internalType":"uint256"}],"stateMutability":"view"},{"type":"function","name":"proposeOracle","inputs":[{"name":"newOracle","type":"address","internalType":"address"}],"outputs":[],"stateMutability":"nonpayable"},{"type":"function","name":"redeem","inputs":[{"name":"shares","type":"uint256","internalType":"uint256"},{"name":"receiver","type":"address","internalType":"address"},{"name":"owner","type":"address","internalType":"address"}],"outputs":[{"name":"","type":"uint256","internalType":"uint256"}],"stateMutability":"nonpayable"},{"type":"function","name":"redemptionRequests","inputs":[{"name":"","type":"address","internalType":"address"}],"outputs":[{"name":"shares","type":"uint256","internalType":"uint256"},{"name":"navAtRequest","type":"uint256","internalType":"uint256"},{"name":"requestedAt","type":"uint256","internalType":"uint256"},{"name":"disputed","type":"bool","internalType":"bool"}],"stateMutability":"view"},{"type":"function","name":"renounceRole","inputs":[{"name":"role","type":"bytes32","internalType":"bytes32"},{"name":"callerConfirmation","type":"address","internalType":"address"}],"outputs":[],"stateMutability":"nonpayable"},{"type":"function","name":"requestRedeem","inputs":[{"name":"shares","type":"uint256","internalType":"uint256"}],"outputs":[],"stateMutability":"nonpayable"},{"type":"function","name":"resolveDispute","inputs":[{"name":"investor","type":"address","internalType":"address"},{"name":"approve","type":"bool","internalType":"bool"}],"outputs":[],"stateMutability":"nonpayable"},{"type":"function","name":"revokeRole","inputs":[{"name":"role","type":"bytes32","internalType":"bytes32"},{"name":"account","type":"address","internalType":"address"}],"outputs":[],"stateMutability":"nonpayable"},{"type":"function","name":"setMaxExitBps","inputs":[{"name":"bps","type":"uint256","internalType":"uint256"}],"outputs":[],"stateMutability":"nonpayable"},{"type":"function","name":"supportsInterface","inputs":[{"name":"interfaceId","type":"bytes4","internalType":"bytes4"}],"outputs":[{"name":"","type":"bool","internalType":"bool"}],"stateMutability":"view"},{"type":"function","name":"symbol","inputs":[],"outputs":[{"name":"","type":"string","internalType":"string"}],"stateMutability":"view"},{"type":"function","name":"totalAssets","inputs":[],"outputs":[{"name":"","type":"uint256","internalType":"uint256"}],"stateMutability":"view"},{"type":"function","name":"totalSupply","inputs":[],"outputs":[{"name":"","type":"uint256","internalType":"uint256"}],"stateMutability":"view"},{"type":"function","name":"transfer","inputs":[{"name":"to","type":"address","internalType":"address"},{"name":"value","type":"uint256","internalType":"uint256"}],"outputs":[{"name":"","type":"bool","internalType":"bool"}],"stateMutability":"nonpayable"},{"type":"function","name":"transferFrom","inputs":[{"name":"from","type":"address","internalType":"address"},{"name":"to","type":"address","internalType":"address"},{"name":"value","type":"uint256","internalType":"uint256"}],"outputs":[{"name":"","type":"bool","internalType":"bool"}],"stateMutability":"nonpayable"},{"type":"function","name":"unpause","inputs":[],"outputs":[],"stateMutability":"nonpayable"},{"type":"function","name":"updateNAV","inputs":[{"name":"newNav","type":"uint256","internalType":"uint256"}],"outputs":[],"stateMutability":"nonpayable"},{"type":"function","name":"withdraw","inputs":[{"name":"assets","type":"uint256","internalType":"uint256"},{"name":"receiver","type":"address","internalType":"address"},{"name":"owner","type":"address","internalType":"address"}],"outputs":[{"name":"","type":"uint256","internalType":"uint256"}],"stateMutability":"nonpayable"},{"type":"function","name":"withdrawCapital","inputs":[{"name":"amount","type":"uint256","internalType":"uint256"},{"name":"to","type":"address","internalType":"address"}],"outputs":[],"stateMutability":"nonpayable"},{"type":"event","name":"Approval","inputs":[{"name":"owner","type":"address","indexed":true,"internalType":"address"},{"name":"spender","type":"address","indexed":true,"internalType":"address"},{"name":"value","type":"uint256","indexed":false,"internalType":"uint256"}],"anonymous":false},{"type":"event","name":"CapitalDeployed","inputs":[{"name":"to","type":"address","indexed":true,"internalType":"address"},{"name":"amount","type":"uint256","indexed":false,"internalType":"uint256"}],"anonymous":false},{"type":"event","name":"Deposit","inputs":[{"name":"sender","type":"address","indexed":true,"internalType":"address"},{"name":"owner","type":"address","indexed":true,"internalType":"address"},{"name":"assets","type":"uint256","indexed":false,"internalType":"uint256"},{"name":"shares","type":"uint256","indexed":false,"internalType":"uint256"}],"anonymous":false},{"type":"event","name":"DisputeResolved","inputs":[{"name":"investor","type":"address","indexed":true,"internalType":"address"},{"name":"approved","type":"bool","indexed":false,"internalType":"bool"},{"name":"shares","type":"uint256","indexed":false,"internalType":"uint256"}],"anonymous":false},{"type":"event","name":"MaxExitBpsUpdated","inputs":[{"name":"newBps","type":"uint256","indexed":false,"internalType":"uint256"}],"anonymous":false},{"type":"event","name":"NAVUpdated","inputs":[{"name":"newNav","type":"uint256","indexed":false,"internalType":"uint256"},{"name":"timestamp","type":"uint256","indexed":false,"internalType":"uint256"}],"anonymous":false},{"type":"event","name":"OracleAccepted","inputs":[{"name":"newOracle","type":"address","indexed":true,"internalType":"address"}],"anonymous":false},{"type":"event","name":"OracleChangeProposed","inputs":[{"name":"newOracle","type":"address","indexed":true,"internalType":"address"},{"name":"effectiveAt","type":"uint256","indexed":false,"internalType":"uint256"}],"anonymous":false},{"type":"event","name":"Paused","inputs":[{"name":"account","type":"address","indexed":false,"internalType":"address"}],"anonymous":false},{"type":"event","name":"RedemptionCancelled","inputs":[{"name":"investor","type":"address","indexed":true,"internalType":"address"},{"name":"shares","type":"uint256","indexed":false,"internalType":"uint256"}],"anonymous":false},{"type":"event","name":"RedemptionClaimed","inputs":[{"name":"investor","type":"address","indexed":true,"internalType":"address"},{"name":"shares","type":"uint256","indexed":false,"internalType":"uint256"},{"name":"usdcOut","type":"uint256","indexed":false,"internalType":"uint256"}],"anonymous":false},{"type":"event","name":"RedemptionDisputed","inputs":[{"name":"investor","type":"address","indexed":true,"internalType":"address"},{"name":"shares","type":"uint256","indexed":false,"internalType":"uint256"}],"anonymous":false},{"type":"event","name":"RedemptionFulfilled","inputs":[{"name":"investor","type":"address","indexed":true,"internalType":"address"},{"name":"shares","type":"uint256","indexed":false,"internalType":"uint256"},{"name":"usdcOut","type":"uint256","indexed":false,"internalType":"uint256"}],"anonymous":false},{"type":"event","name":"RedemptionRequested","inputs":[{"name":"investor","type":"address","indexed":true,"internalType":"address"},{"name":"shares","type":"uint256","indexed":false,"internalType":"uint256"},{"name":"navAtRequest","type":"uint256","indexed":false,"internalType":"uint256"}],"anonymous":false},{"type":"event","name":"RoleAdminChanged","inputs":[{"name":"role","type":"bytes32","indexed":true,"internalType":"bytes32"},{"name":"previousAdminRole","type":"bytes32","indexed":true,"internalType":"bytes32"},{"name":"newAdminRole","type":"bytes32","indexed":true,"internalType":"bytes32"}],"anonymous":false},{"type":"event","name":"RoleGranted","inputs":[{"name":"role","type":"bytes32","indexed":true,"internalType":"bytes32"},{"name":"account","type":"address","indexed":true,"internalType":"address"},{"name":"sender","type":"address","indexed":true,"internalType":"address"}],"anonymous":false},{"type":"event","name":"RoleRevoked","inputs":[{"name":"role","type":"bytes32","indexed":true,"internalType":"bytes32"},{"name":"account","type":"address","indexed":true,"internalType":"address"},{"name":"sender","type":"address","indexed":true,"internalType":"address"}],"anonymous":false},{"type":"event","name":"Transfer","inputs":[{"name":"from","type":"address","indexed":true,"internalType":"address"},{"name":"to","type":"address","indexed":true,"internalType":"address"},{"name":"value","type":"uint256","indexed":false,"internalType":"uint256"}],"anonymous":false},{"type":"event","name":"Unpaused","inputs":[{"name":"account","type":"address","indexed":false,"internalType":"address"}],"anonymous":false},{"type":"event","name":"Withdraw","inputs":[{"name":"sender","type":"address","indexed":true,"internalType":"address"},{"name":"receiver","type":"address","indexed":true,"internalType":"address"},{"name":"owner","type":"address","indexed":true,"internalType":"address"},{"name":"assets","type":"uint256","indexed":false,"internalType":"uint256"},{"name":"shares","type":"uint256","indexed":false,"internalType":"uint256"}],"anonymous":false},{"type":"error","name":"AccessControlBadConfirmation","inputs":[]},{"type":"error","name":"AccessControlUnauthorizedAccount","inputs":[{"name":"account","type":"address","internalType":"address"},{"name":"neededRole","type":"bytes32","internalType":"bytes32"}]},{"type":"error","name":"ERC20InsufficientAllowance","inputs":[{"name":"spender","type":"address","internalType":"address"},{"name":"allowance","type":"uint256","internalType":"uint256"},{"name":"needed","type":"uint256","internalType":"uint256"}]},{"type":"error","name":"ERC20InsufficientBalance","inputs":[{"name":"sender","type":"address","internalType":"address"},{"name":"balance","type":"uint256","internalType":"uint256"},{"name":"needed","type":"uint256","internalType":"uint256"}]},{"type":"error","name":"ERC20InvalidApprover","inputs":[{"name":"approver","type":"address","internalType":"address"}]},{"type":"error","name":"ERC20InvalidReceiver","inputs":[{"name":"receiver","type":"address","internalType":"address"}]},{"type":"error","name":"ERC20InvalidSender","inputs":[{"name":"sender","type":"address","internalType":"address"}]},{"type":"error","name":"ERC20InvalidSpender","inputs":[{"name":"spender","type":"address","internalType":"address"}]},{"type":"error","name":"ERC4626ExceededMaxDeposit","inputs":[{"name":"receiver","type":"address","internalType":"address"},{"name":"assets","type":"uint256","internalType":"uint256"},{"name":"max","type":"uint256","internalType":"uint256"}]},{"type":"error","name":"ERC4626ExceededMaxMint","inputs":[{"name":"receiver","type":"address","internalType":"address"},{"name":"shares","type":"uint256","internalType":"uint256"},{"name":"max","type":"uint256","internalType":"uint256"}]},{"type":"error","name":"ERC4626ExceededMaxRedeem","inputs":[{"name":"owner","type":"address","internalType":"address"},{"name":"shares","type":"uint256","internalType":"uint256"},{"name":"max","type":"uint256","internalType":"uint256"}]},{"type":"error","name":"ERC4626ExceededMaxWithdraw","inputs":[{"name":"owner","type":"address","internalType":"address"},{"name":"assets","type":"uint256","internalType":"uint256"},{"name":"max","type":"uint256","internalType":"uint256"}]},{"type":"error","name":"EnforcedPause","inputs":[]},{"type":"error","name":"ExpectedPause","inputs":[]},{"type":"error","name":"SafeERC20FailedOperation","inputs":[{"name":"token","type":"address","internalType":"address"}]}],"bytecode":{"object":"0x60e06040523461005c5761001d61001461023c565b9392909261044e565b610025610061565b6150e5610b92823960805181612862015260a05181612452015260c051818181610dec015281816134fe015261486501526150e590f35b610067565b60405190565b5f80fd5b601f801991011690565b634e487b7160e01b5f52604160045260245ffd5b906100939061006b565b810190811060018060401b038211176100ab57604052565b610075565b906100c36100bc610061565b9283610089565b565b5f80fd5b5f80fd5b60018060a01b031690565b6100e1906100cd565b90565b6100ed816100d8565b036100f457565b5f80fd5b90505190610105826100e4565b565b5f80fd5b5f80fd5b60018060401b03811161012b5761012760209161006b565b0190565b610075565b90825f9392825e0152565b9092919261015061014b8261010f565b6100b0565b9381855260208501908284011161016c5761016a92610130565b565b61010b565b9080601f8301121561018f5781602061018c9351910161013b565b90565b610107565b90565b6101a081610194565b036101a757565b5f80fd5b905051906101b882610197565b565b919060a083820312610237576101d2815f85016100f8565b92602081015160018060401b03811161023257826101f1918301610171565b92604082015160018060401b03811161022d576102138461022a928501610171565b9361022181606086016101ab565b936080016101ab565b90565b6100c9565b6100c9565b6100c5565b61025a615c778038038061024f816100b0565b9283398101906101ba565b9091929394565b90565b61027861027361027d926100cd565b610261565b6100cd565b90565b61028990610264565b90565b61029590610280565b90565b5f1b90565b906102a95f1991610298565b9181191691161790565b90565b6102ca6102c56102cf926102b3565b610261565b610194565b90565b90565b906102ea6102e56102f1926102b6565b6102d2565b825461029d565b9055565b90565b61030c610307610311926102f5565b610261565b610194565b90565b60209181520190565b5f7f46756e645661756c743a206e6176206d757374206265203e2030000000000000910152565b610351601a602092610314565b61035a8161031d565b0190565b6103739060208101905f818303910152610344565b90565b1561037d57565b610385610061565b62461bcd60e51b81528061039b6004820161035e565b0390fd5b6103b36103ae6103b892610194565b610261565b610194565b90565b906103d06103cb6103d79261039f565b6102d2565b825461029d565b9055565b90565b6103f26103ed6103f7926102f5565b610298565b6103db565b90565b6104035f6103de565b90565b7ff69ff10a3df3288bad92772f5c483e526b0c6cf77ac120db1f6c7bf1a45540df90565b7f65d7a28e3265b37a6474929f336521b332c1681b933f6cb9f3376673440d862a90565b9061049893926104606104689361028c565b9190916104e1565b6104756103e8600e6102d5565b6104918161048b6104855f6102f8565b91610194565b11610376565b60076103bb565b6104a34260086103bb565b60c0526104b86104b16103fa565b339061087f565b506104cb6104c4610406565b339061087f565b506104de6104d761042a565b339061087f565b50565b906104ec92916104ee565b565b906104f992916104fb565b565b906105069291610508565b565b906105139291610515565b565b906105209291610547565b565b90565b60ff1690565b61053f61053a61054492610522565b610261565b610525565b90565b916105519161057a565b61055a816109df565b905f1461056a575b60a052608052565b50610575601261052b565b610562565b90610584916107c4565b565b5190565b634e487b7160e01b5f52602260045260245ffd5b90600160028304921680156105be575b60208310146105b957565b61058a565b91607f16916105ae565b5f5260205f2090565b601f602091010490565b1b90565b919060086105fa9102916105f45f19846105db565b926105db565b9181191691161790565b919061061a6106156106229361039f565b6102d2565b9083546105df565b9055565b5f90565b61063c91610636610626565b91610604565b565b5f5b82811061064c57505050565b8061065b5f600193850161062a565b01610640565b9190601f8111610671575b505050565b81811161067e575b61066c565b61069361068d6106b1946105c8565b916105d1565b91602061069f826105d1565b91106106b9575b80910191039061063e565b5f8080610679565b505f6106a6565b1c90565b906106d4905f19906008026106c0565b191690565b816106e3916106c4565b906002021790565b906106f581610586565b9060018060401b0382116107b35761071782610711855461059e565b85610661565b602090601f831160011461074b5791809161073a935f9261073f575b50506106d9565b90555b565b90915001515f80610733565b601f1983169161075a856105c8565b925f5b81811061079b57509160029391856001969410610781575b5050500201905561073d565b610791910151601f8416906106c4565b90555f8080610775565b9193602060018192878701518155019501920161075d565b610075565b906107c2916106eb565b565b906107d36107da9260036107b8565b60046107b8565b565b5f90565b151590565b6107ee906103db565b90565b906107fb906107e5565b5f5260205260405f2090565b61081090610264565b90565b61081c90610807565b90565b9061082990610813565b5f5260205260405f2090565b9061084160ff91610298565b9181191691161790565b610854906107e0565b90565b90565b9061086f61086a6108769261084b565b610857565b8254610835565b9055565b5f0190565b6108876107dc565b5061089c610896828490610afa565b156107e0565b5f14610925576108c460016108bf5f6108b7600586906107f1565b01859061081f565b61085a565b906108cd610b28565b9061090a6109046108fe7f2f8788117e7eff1d82e926ec794901d17c78024a50270940304540a733656f0d956107e5565b92610813565b92610813565b92610913610061565b8061091d8161087a565b0390a4600190565b50505f90565b5f90565b61093890610807565b90565b90565b61095261094d6109579261093b565b610261565b610194565b90565b5f1c90565b61096b6109709161095a565b61039f565b90565b61098761098261098c92610525565b610261565b610194565b90565b6109a361099e6109a8926102f5565b610261565b610525565b90565b6109ba6109c09193929361084b565b9261098f565b90565b6109d76109d26109dc92610194565b610261565b610525565b90565b906109e86107dc565b506109f161092b565b50610a4d610a43610a09610a03610b39565b9461092f565b610a11610061565b90610a3e82610a2f60046020830163313ce56760e01b81520161087a565b60208201810382520383610089565b610b4c565b5091909193610b7f565b80610ab0575b80610a8c575b5f14610a7857610a72610a6d60019361095f565b6109c3565b915b9190565b9050610a855f5f906109ab565b9190610a74565b50610a968261095f565b610aa9610aa360ff610973565b91610194565b1115610a59565b50610ab9610b84565b610acc610ac6602061093e565b91610194565b1015610a53565b60ff1690565b610ae5610aea9161095a565b610ad3565b90565b610af79054610ad9565b90565b610b21915f610b16610b1c93610b0e6107dc565b5060056107f1565b0161081f565b610aed565b90565b5f90565b610b30610b24565b503390565b5f90565b610b41610b35565b5060405190565b5f90565b6040915f91610b596107dc565b50610b62610b48565b50610b6b610b48565b50602082519201905afa905f519060205190565b604052565b610b8c610626565b503d9056fe60806040526004361015610013575b611982565b61001d5f3561043c565b806301e1d1141461043757806301ffc9a71461043257806303ba4c441461042d5780630607e5bb1461042857806306fdde031461042357806307a2d13a1461041e57806309499aa614610419578063095ea7b3146104145780630a28a4771461040f5780630cb1982b1461040a57806318160ddd146104055780632289445e1461040057806323b872dd146103fb578063248a9ca3146103f657806324b99a7d146103f15780632696b7e0146103ec5780632f2ff15d146103e7578063313ce567146103e257806336568abe146103dd5780633738de3f146103d857806338d52e0f146103d35780633f4ba83a146103ce578063402d267d146103c95780634336d616146103c457806344c33b4c146103bf57806345b9cdf7146103ba57806348fb77d9146103b55780634cdad506146103b05780635c975abb146103ab5780635d20bbcb146103a65780635e4a9a65146103a15780636e553f651461039c5780637070e2b41461039757806370a082311461039257806376082a5e1461038d5780637f2d9575146103885780638456cb591461038357806391d148541461037e57806394bf804d1461037957806395d89b4114610374578063a07023cc1461036f578063a16ba4e01461036a578063a217fddf14610365578063a9059cbb14610360578063aa2f892d1461035b578063adc565e114610356578063ae09722314610351578063aef722661461034c578063b3d7f6b914610347578063b460af9414610342578063ba0876521461033d578063c63d75b614610338578063c6e6f59214610333578063ce96cb771461032e578063d52f55cc14610329578063d547741f14610324578063d905777e1461031f578063dd62ed3e1461031a578063e1e158a514610315578063e63ab1e914610310578063e767397c1461030b578063ec16d07614610306578063eec6d19a14610301578063ef8b30f7146102fc578063f29dfb33146102f75763fc11cdd60361000e5761194d565b61190a565b6118d5565b6118a2565b61186d565b611823565b6117ee565b61178a565b611721565b6116bf565b61168b565b611656565b611612565b6115dd565b6115a8565b61158d565b611572565b611503565b6114ce565b61148a565b611448565b611415565b6113df565b6113aa565b61133c565b611307565b6112a3565b61126d565b611237565b611204565b6111d1565b61119c565b611138565b611103565b611098565b611032565b610ee5565b610e78565b610e43565b610e0e565b610db5565b610d49565b610d16565b610ce1565b610c90565b610c5b565b610c27565b610ba3565b610b6e565b610b12565b610ab0565b610a45565b610a10565b610974565b610905565b6108c1565b61088e565b610859565b610823565b61079e565b61072d565b6106b7565b610617565b610567565b61052d565b610484565b60e01c90565b60405190565b5f80fd5b5f80fd5b5f91031261045a57565b61044c565b90565b61046b9061045f565b9052565b9190610482905f60208501940190610462565b565b346104b457610494366004610450565b6104b061049f611a73565b6104a7610442565b9182918261046f565b0390f35b610448565b63ffffffff60e01b1690565b6104ce816104b9565b036104d557565b5f80fd5b905035906104e6826104c5565b565b90602082820312610501576104fe915f016104d9565b90565b61044c565b151590565b61051490610506565b9052565b919061052b905f6020850194019061050b565b565b3461055d576105596105486105433660046104e8565b611b5f565b610550610442565b91829182610518565b0390f35b610448565b5f0190565b3461059557610577366004610450565b61057f611e77565b610587610442565b8061059181610562565b0390f35b610448565b1c90565b60018060a01b031690565b6105b99060086105be930261059a565b61059e565b90565b906105cc91546105a9565b90565b6105db60095f906105c1565b90565b60018060a01b031690565b6105f2906105de565b90565b6105fe906105e9565b9052565b9190610615905f602085019401906105f5565b565b3461064757610627366004610450565b6106436106326105cf565b61063a610442565b91829182610602565b0390f35b610448565b5190565b60209181520190565b90825f9392825e0152565b601f801991011690565b61068d61069660209361069b936106848161064c565b93848093610650565b95869101610659565b610664565b0190565b6106b49160208201915f81840391015261066e565b90565b346106e7576106c7366004610450565b6106e36106d26120a7565b6106da610442565b9182918261069f565b0390f35b610448565b6106f58161045f565b036106fc57565b5f80fd5b9050359061070d826106ec565b565b9060208282031261072857610725915f01610700565b90565b61044c565b3461075d5761075961074861074336600461070f565b61213f565b610750610442565b9182918261046f565b0390f35b610448565b90565b90565b61077c61077761078192610762565b610765565b61045f565b90565b61079062093a80610768565b90565b61079b610784565b90565b346107ce576107ae366004610450565b6107ca6107b9610793565b6107c1610442565b9182918261046f565b0390f35b610448565b6107dc816105e9565b036107e357565b5f80fd5b905035906107f4826107d3565b565b919060408382031261081e578061081261081b925f86016107e7565b93602001610700565b90565b61044c565b346108545761085061083f6108393660046107f6565b90612195565b610847610442565b91829182610518565b0390f35b610448565b346108895761088561087461086f36600461070f565b6121b7565b61087c610442565b9182918261046f565b0390f35b610448565b346108bc576108a66108a136600461070f565b6121f2565b6108ae610442565b806108b881610562565b0390f35b610448565b346108f1576108d1366004610450565b6108ed6108dc6121fd565b6108e4610442565b9182918261046f565b0390f35b610448565b610902600a5f906105c1565b90565b3461093557610915366004610450565b6109316109206108f6565b610928610442565b91829182610602565b0390f35b610448565b909160608284031261096f5761096c610955845f85016107e7565b9361096381602086016107e7565b93604001610700565b90565b61044c565b346109a5576109a161099061098a36600461093a565b91612213565b610998610442565b91829182610518565b0390f35b610448565b90565b6109b6816109aa565b036109bd57565b5f80fd5b905035906109ce826109ad565b565b906020828203126109e9576109e6915f016109c1565b90565b61044c565b6109f7906109aa565b9052565b9190610a0e905f602085019401906109ee565b565b34610a4057610a3c610a2b610a263660046109d0565b61228c565b610a33610442565b918291826109fb565b0390f35b610448565b34610a7357610a5d610a5836600461070f565b6123dc565b610a65610442565b80610a6f81610562565b0390f35b610448565b90565b610a8f610a8a610a9492610a78565b610765565b61045f565b90565b610aa261012c610a7b565b90565b610aad610a97565b90565b34610ae057610ac0366004610450565b610adc610acb610aa5565b610ad3610442565b9182918261046f565b0390f35b610448565b9190604083820312610b0d5780610b01610b0a925f86016109c1565b936020016107e7565b90565b61044c565b34610b4157610b2b610b25366004610ae5565b90612411565b610b33610442565b80610b3d81610562565b0390f35b610448565b60ff1690565b610b5590610b46565b9052565b9190610b6c905f60208501940190610b4c565b565b34610b9e57610b7e366004610450565b610b9a610b89612444565b610b91610442565b91829182610b59565b0390f35b610448565b34610bd257610bbc610bb6366004610ae5565b90612482565b610bc4610442565b80610bce81610562565b0390f35b610448565b610be081610506565b03610be757565b5f80fd5b90503590610bf882610bd7565b565b9190604083820312610c225780610c16610c1f925f86016107e7565b93602001610beb565b90565b61044c565b34610c5657610c40610c3a366004610bfa565b90612844565b610c48610442565b80610c5281610562565b0390f35b610448565b34610c8b57610c6b366004610450565b610c87610c76612854565b610c7e610442565b91829182610602565b0390f35b610448565b34610cbe57610ca0366004610450565b610ca86128ad565b610cb0610442565b80610cba81610562565b0390f35b610448565b90602082820312610cdc57610cd9915f016107e7565b90565b61044c565b34610d1157610d0d610cfc610cf7366004610cc3565b6128b7565b610d04610442565b9182918261046f565b0390f35b610448565b34610d4457610d2e610d29366004610cc3565b612a61565b610d36610442565b80610d4081610562565b0390f35b610448565b34610d7757610d61610d5c366004610cc3565b612cb2565b610d69610442565b80610d7381610562565b0390f35b610448565b90565b610d93610d8e610d9892610d7c565b610765565b61045f565b90565b610da762015180610d7f565b90565b610db2610d9b565b90565b34610de557610dc5366004610450565b610de1610dd0610daa565b610dd8610442565b9182918261046f565b0390f35b610448565b7f000000000000000000000000000000000000000000000000000000000000000090565b34610e3e57610e1e366004610450565b610e3a610e29610dea565b610e31610442565b9182918261046f565b0390f35b610448565b34610e7357610e6f610e5e610e5936600461070f565b612cbd565b610e66610442565b9182918261046f565b0390f35b610448565b34610ea857610e88366004610450565b610ea4610e93612cd2565b610e9b610442565b91829182610518565b0390f35b610448565b90565b610ec4610ebf610ec992610ead565b610765565b61045f565b90565b610ed76103e8610eb0565b90565b610ee2610ecc565b90565b34610f1557610ef5366004610450565b610f11610f00610eda565b610f08610442565b9182918261046f565b0390f35b610448565b610f2e610f29610f33926105de565b610765565b6105de565b90565b610f3f90610f1a565b90565b610f4b90610f36565b90565b90610f5890610f42565b5f5260205260405f2090565b5f1c90565b90565b610f78610f7d91610f64565b610f69565b90565b610f8a9054610f6c565b90565b60ff1690565b610f9f610fa491610f64565b610f8d565b90565b610fb19054610f93565b90565b610fbf90600c610f4e565b90610fcb5f8301610f80565b91610fd860018201610f80565b91610ff16003610fea60028501610f80565b9301610fa7565b90565b6110296110309461101f606094989795611015608086019a5f870190610462565b6020850190610462565b6040830190610462565b019061050b565b565b346110665761106261104d611048366004610cc3565b610fb4565b90611059949294610442565b94859485610ff4565b0390f35b610448565b91906040838203126110935780611087611090925f8601610700565b936020016107e7565b90565b61044c565b346110c9576110c56110b46110ae36600461106b565b90612d1a565b6110bc610442565b9182918261046f565b0390f35b610448565b6110de9060086110e3930261059a565b610f69565b90565b906110f191546110ce565b90565b611100600b5f906110e6565b90565b3461113357611113366004610450565b61112f61111e6110f4565b611126610442565b9182918261046f565b0390f35b610448565b346111685761116461115361114e366004610cc3565b612d9f565b61115b610442565b9182918261046f565b0390f35b610448565b7fb165298935924f540e4181c03493a5d686c54a0aaeb3f6216de85b7ffbba773890565b61119961116d565b90565b346111cc576111ac366004610450565b6111c86111b7611191565b6111bf610442565b918291826109fb565b0390f35b610448565b346111ff576111e1366004610450565b6111e9612f48565b6111f1610442565b806111fb81610562565b0390f35b610448565b3461123257611214366004610450565b61121c613088565b611224610442565b8061122e81610562565b0390f35b610448565b346112685761126461125361124d366004610ae5565b906130a8565b61125b610442565b91829182610518565b0390f35b610448565b3461129e5761129a61128961128336600461106b565b906130d2565b611291610442565b9182918261046f565b0390f35b610448565b346112d3576112b3366004610450565b6112cf6112be613142565b6112c6610442565b9182918261069f565b0390f35b610448565b7ff69ff10a3df3288bad92772f5c483e526b0c6cf77ac120db1f6c7bf1a45540df90565b6113046112d8565b90565b3461133757611317366004610450565b6113336113226112fc565b61132a610442565b918291826109fb565b0390f35b610448565b3461136a5761134c366004610450565b611354613282565b61135c610442565b8061136681610562565b0390f35b610448565b90565b5f1b90565b61138b6113866113909261136f565b611372565b6109aa565b90565b61139c5f611377565b90565b6113a7611393565b90565b346113da576113ba366004610450565b6113d66113c561139f565b6113cd610442565b918291826109fb565b0390f35b610448565b346114105761140c6113fb6113f53660046107f6565b90613424565b611403610442565b91829182610518565b0390f35b610448565b346114435761142d61142836600461070f565b6139c4565b611435610442565b8061143f81610562565b0390f35b610448565b346114765761146061145b366004610cc3565b613b07565b611468610442565b8061147281610562565b0390f35b610448565b61148760075f906110e6565b90565b346114ba5761149a366004610450565b6114b66114a561147b565b6114ad610442565b9182918261046f565b0390f35b610448565b6114cb600d5f906110e6565b90565b346114fe576114de366004610450565b6114fa6114e96114bf565b6114f1610442565b9182918261046f565b0390f35b610448565b346115335761152f61151e61151936600461070f565b613b12565b611526610442565b9182918261046f565b0390f35b610448565b909160608284031261156d5761156a611553845f8501610700565b9361156181602086016107e7565b936040016107e7565b90565b61044c565b3461158857611582366004611538565b91613b27565b610448565b346115a35761159d366004611538565b91613b93565b610448565b346115d8576115d46115c36115be366004610cc3565b613bfe565b6115cb610442565b9182918261046f565b0390f35b610448565b3461160d576116096115f86115f336600461070f565b613c0d565b611600610442565b9182918261046f565b0390f35b610448565b346116425761163e61162d611628366004610cc3565b613c63565b611635610442565b9182918261046f565b0390f35b610448565b611653600e5f906110e6565b90565b3461168657611666366004610450565b611682611671611647565b611679610442565b9182918261046f565b0390f35b610448565b346116ba576116a461169e366004610ae5565b90613caa565b6116ac610442565b806116b681610562565b0390f35b610448565b346116ef576116eb6116da6116d5366004610cc3565b613cb6565b6116e2610442565b9182918261046f565b0390f35b610448565b919060408382031261171c5780611710611719925f86016107e7565b936020016107e7565b90565b61044c565b346117525761174e61173d6117373660046116f4565b90613ce1565b611745610442565b9182918261046f565b0390f35b610448565b61176b6117666117709261136f565b610765565b61045f565b90565b61177c5f611757565b90565b611787611773565b90565b346117ba5761179a366004610450565b6117b66117a561177f565b6117ad610442565b9182918261046f565b0390f35b610448565b7f65d7a28e3265b37a6474929f336521b332c1681b933f6cb9f3376673440d862a90565b6117eb6117bf565b90565b3461181e576117fe366004610450565b61181a6118096117e3565b611811610442565b918291826109fb565b0390f35b610448565b346118515761183b61183636600461070f565b613e31565b611843610442565b8061184d81610562565b0390f35b610448565b61185f5f611757565b90565b61186a611856565b90565b3461189d5761187d366004610450565b611899611888611862565b611890610442565b9182918261046f565b0390f35b610448565b346118d0576118ba6118b5366004610cc3565b613fa2565b6118c2610442565b806118cc81610562565b0390f35b610448565b34611905576119016118f06118eb36600461070f565b613fad565b6118f8610442565b9182918261046f565b0390f35b610448565b346119395761192361191d36600461106b565b9061426f565b61192b610442565b8061193581610562565b0390f35b610448565b61194a60085f906110e6565b90565b3461197d5761195d366004610450565b61197961196861193e565b611970610442565b9182918261046f565b0390f35b610448565b5f80fd5b5f90565b61199390610f1a565b90565b61199f9061198a565b90565b6119ab90610f36565b90565b6119b790610f36565b90565b634e487b7160e01b5f52604160045260245ffd5b906119d890610664565b810190811067ffffffffffffffff8211176119f257604052565b6119ba565b60e01b90565b90505190611a0a826106ec565b565b90602082820312611a2557611a22915f016119fd565b90565b61044c565b611a32610442565b3d5f823e3d90fd5b634e487b7160e01b5f52601160045260245ffd5b611a5d611a639193929361045f565b9261045f565b8203918211611a6e57565b611a3a565b611a7b611986565b50611acb6020611a99611a94611a8f612854565b611996565b6119a2565b6370a0823190611ac0611aab306119ae565b92611ab4610442565b958694859384936119f7565b835260048301610602565b03915afa908115611b56575f91611b28575b5080611afa611af4611aef600d610f80565b61045f565b9161045f565b115f14611b1957611b1590611b0f600d610f80565b90611a4e565b5b90565b50611b235f611757565b611b16565b611b49915060203d8111611b4f575b611b4181836119ce565b810190611a0c565b5f611add565b503d611b37565b611a2a565b5f90565b611b67611b5b565b5080611b82611b7c637965db0b60e01b6104b9565b916104b9565b14908115611b8f575b5090565b611b99915061427b565b5f611b8b565b90611ba99061045f565b9052565b90611bb790610506565b9052565b90611bce611bc7610442565b92836119ce565b565b611bda6080611bbb565b90565b90611c44611c3b6003611bee611bd0565b94611c05611bfd5f8301610f80565b5f8801611b9f565b611c1d611c1460018301610f80565b60208801611b9f565b611c35611c2c60028301610f80565b60408801611b9f565b01610fa7565b60608401611bad565b565b611c4f90611bdd565b90565b611c5c905161045f565b90565b5f7f46756e645661756c743a206e6f2070656e64696e672072657175657374000000910152565b611c93601d602092610650565b611c9c81611c5f565b0190565b611cb59060208101905f818303910152611c86565b90565b15611cbf57565b611cc7610442565b62461bcd60e51b815280611cdd60048201611ca0565b0390fd5b611cf0611cf69193929361045f565b9261045f565b91611d0283820261045f565b928184041490151715611d1157565b611a3a565b90565b611d2d611d28611d3292611d16565b610765565b61045f565b90565b634e487b7160e01b5f52601260045260245ffd5b611d55611d5b9161045f565b9161045f565b908115611d66570490565b611d35565b90611d775f1991611372565b9181191691161790565b611d95611d90611d9a9261045f565b610765565b61045f565b90565b90565b90611db5611db0611dbc92611d81565b611d9d565b8254611d6b565b9055565b1b90565b91906008611ddf910291611dd95f1984611dc0565b92611dc0565b9181191691161790565b9190611dff611dfa611e0793611d81565b611d9d565b908354611dc4565b9055565b611e1d91611e17611986565b91611de9565b565b60035f91611e2f83808301611e0b565b611e3c8360018301611e0b565b611e498360028301611e0b565b0155565b634e487b7160e01b5f525f60045260245ffd5b905f03611e7257611e7090611e1f565b565b611e4d565b611e8b611e86600c3390610f4e565b611c46565b611eb1611e995f8301611c52565b611eab611ea55f611757565b9161045f565b11611cb8565b611f07611f00611ef1611eda611ec85f8601611c52565b611ed460208701611c52565b90611ce1565b611eeb670de0b6b3a7640000611d19565b90611d49565b611efb600d610f80565b611a4e565b600d611da0565b611f1c5f611f17600c3390610f4e565b611e60565b611f3a611f28306119ae565b33611f345f8501611c52565b916142a1565b611f465f339201611c52565b90611f86611f747f9aec5cafc1451c1485e4a0099bd4dfb4c9d2bb972b4e5c798da07db8323deaa392610f42565b92611f7d610442565b9182918261046f565b0390a2565b606090565b634e487b7160e01b5f52602260045260245ffd5b9060016002830492168015611fc4575b6020831014611fbf57565b611f90565b91607f1691611fb4565b60209181520190565b5f5260205f2090565b905f9291805490611ffa611ff383611fa4565b8094611fce565b916001811690815f146120515750600114612015575b505050565b6120229192939450611fd7565b915f925b81841061203957505001905f8080612010565b60018160209295939554848601520191019290612026565b92949550505060ff19168252151560200201905f8080612010565b9061207691611fe0565b90565b9061209961209292612089610442565b9384809261206c565b03836119ce565b565b6120a490612079565b90565b6120af611f8b565b506120ba600361209b565b90565b5f7f46756e645661756c743a206e6176206e6f742073657400000000000000000000910152565b6120f16016602092610650565b6120fa816120bd565b0190565b6121139060208101905f8183039101526120e4565b90565b1561211d57565b612125610442565b62461bcd60e51b81528061213b600482016120fe565b0390fd5b61217b6121929161214e611986565b506121596007610f80565b906121768261217061216a5f611757565b9161045f565b11612116565b611ce1565b61218c670de0b6b3a7640000611d19565b90611d49565b90565b6121b2916121a1611b5b565b506121aa61433e565b91909161434b565b600190565b6121c9906121c3611986565b50613c0d565b90565b6121e5906121e06121db6112d8565b61435b565b6121e7565b565b6121f0906143f1565b565b6121fb906121cc565b565b612205611986565b506122106002610f80565b90565b9161223d92612220611b5b565b5061223561222c61433e565b8290849161450a565b9190916142a1565b600190565b5f90565b61224f906109aa565b90565b9061225c90612246565b5f5260205260405f2090565b90565b61227761227c91610f64565b612268565b90565b612289905461226b565b90565b60016122a56122ab9261229d612242565b506005612252565b0161227f565b90565b6122c7906122c26122bd611393565b61435b565b61236e565b565b5f7f46756e645661756c743a206e6176206d757374206265203e2030000000000000910152565b6122fd601a602092610650565b612306816122c9565b0190565b61231f9060208101905f8183039101526122f0565b90565b1561232957565b612331610442565b62461bcd60e51b8152806123476004820161230a565b0390fd5b91602061236c92949361236560408201965f830190610462565b0190610462565b565b61238a8161238461237e5f611757565b9161045f565b11612322565b612395816007611da0565b6123a0426008611da0565b427f224bbf4ba043354bee6487d05aa90892db4426afe8e3aa79007d0eae1b985ebc916123d76123ce610442565b9283928361234b565b0390a1565b6123e5906122ae565b565b90612402916123fd6123f88261228c565b61435b565b612404565b565b9061240e91614596565b50565b9061241b916123e7565b565b5f90565b61242d61243391610b46565b91610b46565b019060ff821161243f57565b611a3a565b61244c61241d565b5061247f7f0000000000000000000000000000000000000000000000000000000000000000612479614661565b90612421565b90565b908061249d61249761249261433e565b6105e9565b916105e9565b036124ae576124ab91614677565b50565b5f63334bd91960e11b8152806124c660048201610562565b0390fd5b906124e4916124df6124da611393565b61435b565b61261a565b565b6124f09051610506565b90565b5f7f46756e645661756c743a206e6f74206469737075746564000000000000000000910152565b6125276017602092610650565b612530816124f3565b0190565b6125499060208101905f81830391015261251a565b90565b1561255357565b61255b610442565b62461bcd60e51b81528061257160048201612534565b0390fd5b5f7f46756e645661756c743a206475737420726564656d7074696f6e000000000000910152565b6125a9601a602092610650565b6125b281612575565b0190565b6125cb9060208101905f81830391015261259c565b90565b156125d557565b6125dd610442565b62461bcd60e51b8152806125f3600482016125b6565b0390fd5b91602061261892949361261160408201965f83019061050b565b0190610462565b565b9061278d5f61263361262e600c8690610f4e565b611c46565b9361265a612642838701611c52565b61265461264e85611757565b9161045f565b11611cb8565b61266e612669606087016124e6565b61254c565b6126a861269161267f848801611c52565b61268b60208901611c52565b90611ce1565b6126a2670de0b6b3a7640000611d19565b90611d49565b6126c56126be826126b9600d610f80565b611a4e565b600d611da0565b6126da836126d5600c8590610f4e565b611e60565b8483146127d1576126fd816126f76126f186611757565b9161045f565b116125ce565b61271a612709306119ae565b612714858901611c52565b90614719565b61273561272d612728612854565b611996565b838391614778565b81612741848801611c52565b9161276c7fd102e8852f4a66ebe22d1d0d84b30e1e4660b1966bd4b870c08bcec012f98abb92610f42565b92612781612778610442565b9283928361234b565b0390a25b929301611c52565b6127b77fbea3b200475ea5abb980039cc05180ab0f872b391dfd82f8267d821356c2929592610f42565b926127cc6127c3610442565b928392836125f7565b0390a2565b506127f06127de306119ae565b826127ea858901611c52565b916142a1565b806127fc838701611c52565b9061283c61282a7f9aec5cafc1451c1485e4a0099bd4dfb4c9d2bb972b4e5c798da07db8323deaa392610f42565b92612833610442565b9182918261046f565b0390a2612785565b9061284e916124ca565b565b5f90565b61285c612850565b506128867f00000000000000000000000000000000000000000000000000000000000000006119a2565b90565b6128996128946117bf565b61435b565b6128a16128a3565b565b6128ab61481f565b565b6128b5612889565b565b506128c0611986565b505f1990565b6128df906128da6128d56112d8565b61435b565b6129ab565b565b90565b5f7f46756e645661756c743a20616c72656164792064697370757465640000000000910152565b612918601b602092610650565b612921816128e4565b0190565b61293a9060208101905f81830391015261290b565b90565b1561294457565b61294c610442565b62461bcd60e51b81528061296260048201612925565b0390fd5b9061297260ff91611372565b9181191691161790565b61298590610506565b90565b90565b906129a061299b6129a79261297c565b612988565b8254612966565b9055565b612a1c5f6129c36129be600c8590610f4e565b6128e1565b926129ea6129d2838601610f80565b6129e46129de85611757565b9161045f565b11611cb8565b612a07612a026129fc60038701610fa7565b15610506565b61293d565b612a1560016003860161298b565b9201610f80565b90612a5c612a4a7fa2e79c1f176cd95832ea163b37c0e24ff504120b04f53dbfcb7ddb667d0c4c9292610f42565b92612a53610442565b9182918261046f565b0390a2565b612a6a906128c6565b565b612a8590612a80612a7b6112d8565b61435b565b612b2e565b565b612a96612a9c9193929361045f565b9261045f565b8201809211612aa757565b611a3a565b5f7f46756e645661756c743a20636f6f6c646f776e206e6f7420656c617073656400910152565b612ae0601f602092610650565b612ae981612aac565b0190565b612b029060208101905f818303910152612ad3565b90565b15612b0c57565b612b14610442565b62461bcd60e51b815280612b2a60048201612aed565b0390fd5b612b42612b3d600c8390610f4e565b611c46565b612b68612b505f8301611c52565b612b62612b5c5f611757565b9161045f565b11611cb8565b612ba142612b9a612b94612b8f612b8160408701611c52565b612b89610a97565b90612a87565b61045f565b9161045f565b1015612b05565b612c6d5f612bdf612bc8612bb6838601611c52565b612bc260208701611c52565b90611ce1565b612bd9670de0b6b3a7640000611d19565b90611d49565b93612bfc85612bf6612bf085611757565b9161045f565b116125ce565b612c19612c1286612c0d600d610f80565b611a4e565b600d611da0565b612c2e82612c29600c8490610f4e565b611e60565b612c4b612c3a306119ae565b612c45848701611c52565b90614719565b612c66612c5e612c59612854565b611996565b828791614778565b9201611c52565b91612c987fd102e8852f4a66ebe22d1d0d84b30e1e4660b1966bd4b870c08bcec012f98abb92610f42565b92612cad612ca4610442565b9283928361234b565b0390a2565b612cbb90612a6c565b565b612ccf90612cc9611986565b5061213f565b90565b612cda611b5b565b50612ce56006610fa7565b90565b604090612d11612d189496959396612d0760608401985f8501906105f5565b6020830190610462565b0190610462565b565b90612d23611986565b50612d2d816128b7565b82612d40612d3a8361045f565b9161045f565b11612d675750612d6490612d5383613fad565b92612d5c61433e565b918492614a4f565b90565b82612d858391925f938493633c8097d960e11b855260048501612ce8565b0390fd5b90612d9390610f42565b5f5260205260405f2090565b612db5612dba91612dae611986565b505f612d89565b610f80565b90565b612dc9612dce91610f64565b61059e565b90565b612ddb9054612dbd565b90565b612df2612ded612df79261136f565b610765565b6105de565b90565b612e0390612dde565b90565b5f7f46756e645661756c743a206e6f2070656e64696e67206f7261636c6500000000910152565b612e3a601c602092610650565b612e4381612e06565b0190565b612e5c9060208101905f818303910152612e2d565b90565b15612e6657565b612e6e610442565b62461bcd60e51b815280612e8460048201612e47565b0390fd5b5f7f46756e645661756c743a2074696d656c6f636b20616374697665000000000000910152565b612ebc601a602092610650565b612ec581612e88565b0190565b612ede9060208101905f818303910152612eaf565b90565b15612ee857565b612ef0610442565b62461bcd60e51b815280612f0660048201612ec9565b0390fd5b90612f1b60018060a01b0391611372565b9181191691161790565b90565b90612f3d612f38612f4492610f42565b612f25565b8254612f0a565b9055565b612f76612f556009612dd1565b612f6f612f69612f645f612dfa565b6105e9565b916105e9565b1415612e5f565b612f9c42612f95612f8f612f8a600b610f80565b61045f565b9161045f565b1015612ee1565b612fa66009612dd1565b612fb9612fb25f612dfa565b6009612f28565b612fc3600a612dd1565b612fdd612fd7612fd25f612dfa565b6105e9565b916105e9565b03613043575b612fee81600a612f28565b613000612ff96112d8565b8290614596565b5061302b7f6441767b1c31b00c1dddc4705a7d74eeed8b80cd113fa408e13df67daa152dea91610f42565b90613034610442565b8061303e81610562565b0390a2565b61305e61304e6112d8565b613058600a612dd1565b90614677565b50612fe3565b61307461306f6117bf565b61435b565b61307c61307e565b565b613086614abe565b565b613090613064565b565b9061309c90610f42565b5f5260205260405f2090565b6130cf915f6130c46130ca936130bc611b5b565b506005612252565b01613092565b610fa7565b90565b906130db611986565b506130e581613bfe565b826130f86130f28361045f565b9161045f565b11613120575061311d9061310b83613b12565b9261311461433e565b91849192614a4f565b90565b8261313e8391925f93849363284ff66760e01b855260048501612ce8565b0390fd5b61314a611f8b565b50613155600461209b565b90565b5f7f46756e645661756c743a20726564656d7074696f6e2064697370757465640000910152565b61318c601e602092610650565b61319581613158565b0190565b6131ae9060208101905f81830391015261317f565b90565b156131b857565b6131c0610442565b62461bcd60e51b8152806131d660048201613199565b0390fd5b60207f7420656c61707365640000000000000000000000000000000000000000000000917f46756e645661756c743a206175746f2d72656c656173652064656c6179206e6f5f8201520152565b6132346029604092610650565b61323d816131da565b0190565b6132569060208101905f818303910152613227565b90565b1561326057565b613268610442565b62461bcd60e51b81528061327e60048201613241565b0390fd5b613296613291600c3390610f4e565b611c46565b6132bc6132a45f8301611c52565b6132b66132b05f611757565b9161045f565b11611cb8565b6132d96132d46132ce606084016124e6565b15610506565b6131b1565b6133124261330b6133056133006132f260408701611c52565b6132fa610784565b90612a87565b61045f565b9161045f565b1015613259565b61334c6133356133235f8401611c52565b61332f60208501611c52565b90611ce1565b613346670de0b6b3a7640000611d19565b90611d49565b906133698261336361335d5f611757565b9161045f565b116125ce565b61338661337f8361337a600d610f80565b611a4e565b600d611da0565b61339b5f613396600c3390610f4e565b611e60565b6133b86133a7306119ae565b6133b25f8401611c52565b90614719565b6133d36133cb6133c6612854565b611996565b338491614778565b6133df5f339201611c52565b9161340a7f20e504fdcba8387aee6a4eabd2423467c9dab4c788aec326e5e96cd83a8b26fb92610f42565b9261341f613416610442565b9283928361234b565b0390a2565b61344191613430611b5b565b5061343961433e565b9190916142a1565b600190565b61345790613452614ac8565b6134db565b565b5f7f46756e645661756c743a204e4156207374616c65000000000000000000000000910152565b61348d6014602092610650565b61349681613459565b0190565b6134af9060208101905f818303910152613480565b90565b156134b957565b6134c1610442565b62461bcd60e51b8152806134d76004820161349a565b0390fd5b6135349061352f6134f6426134f06008610f80565b90611a4e565b6135286135227f000000000000000000000000000000000000000000000000000000000000000061045f565b9161045f565b11156134b2565b6137da565b565b5f7f46756e645661756c743a20736861726573206d757374206265203e2030000000910152565b61356a601d602092610650565b61357381613536565b0190565b61358c9060208101905f81830391015261355d565b90565b1561359657565b61359e610442565b62461bcd60e51b8152806135b460048201613577565b0390fd5b5f7f46756e645661756c743a20726571756573742070656e64696e67000000000000910152565b6135ec601a602092610650565b6135f5816135b8565b0190565b61360e9060208101905f8183039101526135df565b90565b1561361857565b613620610442565b62461bcd60e51b815280613636600482016135f9565b0390fd5b5f7f46756e645661756c743a20696e73756666696369656e74207368617265730000910152565b61366e601e602092610650565b6136778161363a565b0190565b6136909060208101905f818303910152613661565b90565b1561369a57565b6136a2610442565b62461bcd60e51b8152806136b86004820161367b565b0390fd5b90565b6136d36136ce6136d8926136bc565b610765565b61045f565b90565b5f7f46756e645661756c743a2065786365656473206d617820657869742073697a65910152565b61370e60208092610650565b613717816136db565b0190565b6137309060208101905f818303910152613702565b90565b1561373a57565b613742610442565b62461bcd60e51b8152806137586004820161371b565b0390fd5b6137666080611bbb565b90565b906137c6606060036137cc9461378c5f82016137865f8801611c52565b90611da0565b6137a56001820161379f60208801611c52565b90611da0565b6137be600282016137b860408801611c52565b90611da0565b0192016124e6565b9061298b565b565b906137d891613769565b565b6137f6816137f06137ea5f611757565b9161045f565b1161358f565b61382761380f5f613809600c3390610f4e565b01610f80565b61382161381b5f611757565b9161045f565b14613611565b61384c61383333612d9f565b61384561383f8461045f565b9161045f565b1015613693565b6138796138576121fd565b8061386a6138645f611757565b9161045f565b14908115613980575b50613733565b6138c36138bc6138ad613896846138906007610f80565b90611ce1565b6138a7670de0b6b3a7640000611d19565b90611d49565b6138b7600d610f80565b612a87565b600d611da0565b6138d7336138d0306119ae565b83916142a1565b613931816139206138e86007610f80565b6139174261390e5f936139056138fc61375c565b975f8901611b9f565b60208701611b9f565b60408501611b9f565b60608301611bad565b61392c600c3390610f4e565b6137ce565b3361393c6007610f80565b6139667f46949ee51143d5b58e4df83122d6c382a04f7bffbe563f78cd7fa61ee519ec0892610f42565b9261397b613972610442565b9283928361234b565b0390a2565b90506139bc6139b66139b16139a0869461399a600e610f80565b90611ce1565b6139ab6127106136bf565b90611d49565b61045f565b9161045f565b11155f613873565b6139cd90613446565b565b6139e8906139e36139de611393565b61435b565b613a6c565b565b5f7f46756e645661756c743a207a65726f2061646472657373000000000000000000910152565b613a1e6017602092610650565b613a27816139ea565b0190565b613a409060208101905f818303910152613a11565b90565b15613a4a57565b613a52610442565b62461bcd60e51b815280613a6860048201613a2b565b0390fd5b613a9181613a8a613a84613a7f5f612dfa565b6105e9565b916105e9565b1415613a43565b613a9c816009612f28565b613ab8613ab142613aab610d9b565b90612a87565b600b611da0565b613ac2600b610f80565b90613b02613af07ff87ff972014a6a542520a6e3b690c38076efdb1082bae938540b186c4551090092610f42565b92613af9610442565b9182918261046f565b0390a2565b613b10906139cf565b565b613b2490613b1e611986565b5061213f565b90565b919091613b32611986565b50613b3c82613c63565b81613b4f613b498361045f565b9161045f565b11613b715750613b5e816121b7565b91613b6761433e565b9390919293614b4b565b91613b8f9091925f938493633fa733bb60e21b855260048501612ce8565b0390fd5b9091613b9d611986565b50613ba781613cb6565b82613bba613bb48361045f565b9161045f565b11613bdc5750613bc982612cbd565b90613bd261433e565b9390919293614b4b565b82613bfa8391925f938493632e52afbb60e21b855260048501612ce8565b0390fd5b50613c07611986565b505f1990565b613c6090613c19611986565b50613c5b613c276007610f80565b91613c4483613c3e613c385f611757565b9161045f565b11612116565b613c55670de0b6b3a7640000611d19565b90611ce1565b611d49565b90565b613c78613c7d91613c72611986565b50613cb6565b612cbd565b90565b90613c9b91613c96613c918261228c565b61435b565b613c9d565b565b90613ca791614677565b50565b90613cb491613c80565b565b613cc890613cc2611986565b50612d9f565b90565b90613cd590610f42565b5f5260205260405f2090565b613d0691613cfc613d0192613cf4611986565b506001613ccb565b612d89565b610f80565b90565b613d2290613d1d613d18611393565b61435b565b613da6565b565b5f7f46756e645661756c743a20627073206f7574206f662072616e67650000000000910152565b613d58601b602092610650565b613d6181613d24565b0190565b613d7a9060208101905f818303910152613d4b565b90565b15613d8457565b613d8c610442565b62461bcd60e51b815280613da260048201613d65565b0390fd5b80613db9613db35f611757565b9161045f565b1180613e0f575b613dc990613d7d565b613dd481600e611da0565b613e0a7f91cdc265d5033ef80a03651bd13b4be0871de7f78dd04b211a394717d77163ef91613e01610442565b9182918261046f565b0390a1565b50613dc981613e28613e226127106136bf565b9161045f565b11159050613dc0565b613e3a90613d09565b565b613e5590613e50613e4b611393565b61435b565b613e57565b565b613e6b613e66600c8390610f4e565b611c46565b613e91613e795f8301611c52565b613e8b613e855f611757565b9161045f565b11611cb8565b613f5d5f613ecf613eb8613ea6838601611c52565b613eb260208701611c52565b90611ce1565b613ec9670de0b6b3a7640000611d19565b90611d49565b93613eec85613ee6613ee085611757565b9161045f565b116125ce565b613f09613f0286613efd600d610f80565b611a4e565b600d611da0565b613f1e82613f19600c8490610f4e565b611e60565b613f3b613f2a306119ae565b613f35848701611c52565b90614719565b613f56613f4e613f49612854565b611996565b828791614778565b9201611c52565b91613f887fd102e8852f4a66ebe22d1d0d84b30e1e4660b1966bd4b870c08bcec012f98abb92610f42565b92613f9d613f94610442565b9283928361234b565b0390a2565b613fab90613e3c565b565b613fbf90613fb9611986565b50613c0d565b90565b90613fdc91613fd7613fd2611393565b61435b565b614108565b565b5f7f46756e645661756c743a20616d6f756e74206d757374206265203e2030000000910152565b614012601d602092610650565b61401b81613fde565b0190565b6140349060208101905f818303910152614005565b90565b1561403e57565b614046610442565b62461bcd60e51b81528061405c6004820161401f565b0390fd5b60207f6974616c00000000000000000000000000000000000000000000000000000000917f46756e645661756c743a20696e73756666696369656e742066726565206361705f8201520152565b6140ba6024604092610650565b6140c381614060565b0190565b6140dc9060208101905f8183039101526140ad565b90565b156140e657565b6140ee610442565b62461bcd60e51b815280614104600482016140c7565b0390fd5b906141258261411f6141195f611757565b9161045f565b11614037565b61414a8161414361413d6141385f612dfa565b6105e9565b916105e9565b1415613a43565b61419a82602061416861416361415e612854565b611996565b6119a2565b6370a082319061418f61417a306119ae565b92614183610442565b968794859384936119f7565b835260048301610602565b03915afa91821561426a576141d06141cb6141dd946141d6935f9161423c575b506141c5600d610f80565b90611a4e565b61045f565b9161045f565b11156140df565b6141f86141f06141eb612854565b611996565b828491614778565b6142376142257f4d81bbe4082f7e517d393affbb296d4d970e377fd351719a011a8d09e7ca247492610f42565b9261422e610442565b9182918261046f565b0390a2565b61425d915060203d8111614263575b61425581836119ce565b810190611a0c565b5f6141ba565b503d61424b565b611a2a565b9061427991613fc2565b565b614283611b5b565b5061429d6142976301ffc9a760e01b6104b9565b916104b9565b1490565b91826142bd6142b76142b25f612dfa565b6105e9565b916105e9565b1461431757816142dd6142d76142d25f612dfa565b6105e9565b916105e9565b146142f0576142ee92919091614b7b565b565b6143136142fc5f612dfa565b5f91829163ec442f0560e01b835260048301610602565b0390fd5b61433a6143235f612dfa565b5f918291634b637e8f60e11b835260048301610602565b0390fd5b614346612850565b503390565b916143599291600192614cea565b565b61436d9061436761433e565b90614e1c565b565b5f7f46756e645661756c743a204e4156206368616e676520746f6f206c6172676500910152565b6143a3601f602092610650565b6143ac8161436f565b0190565b6143c59060208101905f818303910152614396565b90565b156143cf57565b6143d7610442565b62461bcd60e51b8152806143ed600482016143b0565b0390fd5b61440d816144076144015f611757565b9161045f565b11612322565b61447d61441a6007610f80565b8261442d6144278361045f565b9161045f565b115f146144cf5761445c90614457614446858390611a4e565b6144516127106136bf565b90611ce1565b611d49565b5b61447661447061446b610ecc565b61045f565b9161045f565b11156143c8565b614488816007611da0565b614493426008611da0565b427f224bbf4ba043354bee6487d05aa90892db4426afe8e3aa79007d0eae1b985ebc916144ca6144c1610442565b9283928361234b565b0390a1565b806144f26144e16144f7938690611a4e565b6144ec6127106136bf565b90611ce1565b611d49565b61445d565b90614507910361045f565b90565b929192614518818390613ce1565b908161452d6145275f1961045f565b9161045f565b1061453a575b5050509050565b8161454d6145478761045f565b9161045f565b106145735761456a93946145629193926144fc565b905f92614cea565b805f8080614533565b50614592849291925f938493637dc7a0d960e11b855260048501612ce8565b0390fd5b61459e611b5b565b506145b36145ad8284906130a8565b15610506565b5f1461463c576145db60016145d65f6145ce60058690612252565b018590613092565b61298b565b906145e461433e565b9061462161461b6146157f2f8788117e7eff1d82e926ec794901d17c78024a50270940304540a733656f0d95612246565b92610f42565b92610f42565b9261462a610442565b8061463481610562565b0390a4600190565b50505f90565b90565b61465961465461465e92614642565b610765565b610b46565b90565b61466961241d565b50614674600c614645565b90565b61467f611b5b565b5061468b8183906130a8565b5f14614713576146b25f6146ad5f6146a560058690612252565b018590613092565b61298b565b906146bb61433e565b906146f86146f26146ec7ff6391f5c32d9c69d2a47ea670b442974b53935d1edc7fd64eb21e047a839171b95612246565b92610f42565b92610f42565b92614701610442565b8061470b81610562565b0390a4600190565b50505f90565b908161473561472f61472a5f612dfa565b6105e9565b916105e9565b146147515761474f91906147485f612dfa565b9091614b7b565b565b61477461475d5f612dfa565b5f918291634b637e8f60e11b835260048301610602565b0390fd5b916147919161478b918491600192614e57565b15610506565b6147985750565b6147a46147bb916119a2565b5f918291635274afe760e01b835260048301610602565b0390fd5b6147c7614ec1565b6147cf6147d1565b565b6147dc5f600661298b565b6147e461433e565b61481a7f5db9ee0a495bf2e6ff9c91a7834c1ba4fdd244a5e8aa4e537bd38aeae4b073aa91614811610442565b91829182610602565b0390a1565b6148276147bf565b565b9061483d939291614838614ac8565b61483f565b565b9061489b93929161489661485d426148576008610f80565b90611a4e565b61488f6148897f000000000000000000000000000000000000000000000000000000000000000061045f565b9161045f565b11156134b2565b6149ed565b565b60207f6400000000000000000000000000000000000000000000000000000000000000917f46756e645661756c743a2063616c6c6572206e6f742077686974656c697374655f8201520152565b6148f76021604092610650565b6149008161489d565b0190565b6149199060208101905f8183039101526148ea565b90565b1561492357565b61492b610442565b62461bcd60e51b81528061494160048201614904565b0390fd5b60207f7465640000000000000000000000000000000000000000000000000000000000917f46756e645661756c743a207265636569766572206e6f742077686974656c69735f8201520152565b61499f6023604092610650565b6149a881614945565b0190565b6149c19060208101905f818303910152614992565b90565b156149cb57565b6149d3610442565b62461bcd60e51b8152806149e9600482016149ac565b0390fd5b91614a4d939192614a1082614a0a614a045f611757565b9161045f565b11614037565b614a2a614a25614a1e61116d565b83906130a8565b61491c565b614a44614a3f614a3861116d565b86906130a8565b6149c4565b92909192614ef4565b565b90614a5b939291614829565b565b614a65614ac8565b614a6d614a6f565b565b614a7b6001600661298b565b614a8361433e565b614ab97f62e78cea01bee320cd4e420270b5ea74000d11b0c9f74754ebdbfc544b05a25891614ab0610442565b91829182610602565b0390a1565b614ac6614a5d565b565b614ad0612cd2565b614ad657565b5f63d93c066560e01b815280614aee60048201610562565b0390fd5b5f7f46756e645661756c743a20757365207265717565737452656465656d00000000910152565b614b26601c602092610650565b614b2f81614af2565b0190565b614b489060208101905f818303910152614b19565b90565b614b53610442565b62461bcd60e51b815280614b6960048201614b33565b0390fd5b90614b78910161045f565b90565b91909180614b99614b93614b8e5f612dfa565b6105e9565b916105e9565b145f14614c7a57614bbd614bb683614bb16002610f80565b612a87565b6002611da0565b5b82614bd9614bd3614bce5f612dfa565b6105e9565b916105e9565b145f14614c4e57614bfd614bf683614bf16002610f80565b6144fc565b6002611da0565b5b919091614c49614c37614c317fddf252ad1be2c89b69c2b068fc378daa952ba7f163c4a11628f55a4df523b3ef93610f42565b93610f42565b93614c40610442565b9182918261046f565b0390a3565b614c7582614c6f614c605f8790612d89565b91614c6a83610f80565b614b6d565b90611da0565b614bfe565b614c8d614c885f8390612d89565b610f80565b80614ca0614c9a8561045f565b9161045f565b10614cc857614cb3614cc39184906144fc565b614cbe5f8490612d89565b611da0565b614bbe565b90614ce69091925f93849363391434e360e21b855260048501612ce8565b0390fd5b909281614d07614d01614cfc5f612dfa565b6105e9565b916105e9565b14614dd25783614d27614d21614d1c5f612dfa565b6105e9565b916105e9565b14614dab57614d4b83614d46614d3f60018690613ccb565b8790612d89565b611da0565b614d55575b505050565b919091614da0614d8e614d887f8c5be1e5ebec7d5bd14f71427d1e84f3dd0314c0f7b2291e5b200ac8c7c3b92593610f42565b93610f42565b93614d97610442565b9182918261046f565b0390a35f8080614d50565b614dce614db75f612dfa565b5f918291634a1406b160e11b835260048301610602565b0390fd5b614df5614dde5f612dfa565b5f91829163e602df0560e01b835260048301610602565b0390fd5b916020614e1a929493614e1360408201965f8301906105f5565b01906109ee565b565b90614e31614e2b8383906130a8565b15610506565b614e39575050565b614e535f92839263e2517d3f60e01b845260048401614df9565b0390fd5b9091939293614e64611b5b565b5063a9059cbb60e01b92604051935f525f1960601c1660045260245260205f60448180855af19360015f5114851615614e9f575b5050604052565b8492941516614eb8575f903b113d151616915f80614e98565b833d5f823e3d90fd5b614ed2614ecc612cd2565b15610506565b614ed857565b5f638dfc202b60e01b815280614ef060048201610562565b0390fd5b614eff818490614f66565b614f0a828590614f8d565b909192614f40614f3a7fdcbc1c05240f31ff3ad067ef1ee35ce4997762752e3a095284754544f4c709d793610f42565b93610f42565b93614f55614f4c610442565b9283928361234b565b0390a3565b614f6390610f36565b90565b614f8b91614f7a614f75612854565b611996565b91614f8430614f5a565b9192614feb565b565b80614fa8614fa2614f9d5f612dfa565b6105e9565b916105e9565b14614fc457614fc291614fba5f612dfa565b919091614b7b565b565b614fe7614fd05f612dfa565b5f91829163ec442f0560e01b835260048301610602565b0390fd5b929061500892615002928592919091600193615036565b15610506565b61500f5750565b61501b615032916119a2565b5f918291635274afe760e01b835260048301610602565b0390fd5b91949394929092615045611b5b565b506323b872dd60e01b93604051945f525f1960601c166004525f1960601c1660245260445260205f60648180855af19360015f511485161561508d575b50506040525f606052565b84929415166150a6575f903b113d151616915f80615082565b833d5f823e3d90fdfea2646970667358221220a079a07706e764ee3fef95cf8d4d1f3f19fe0a7a9aa328c24b314dd135aa122364736f6c63430008210033","linkReferences":{}},"methodIdentifiers":{"AUTO_RELEASE_DELAY()":"09499aa6","DEFAULT_ADMIN_ROLE()":"a217fddf","INVESTOR_ROLE()":"76082a5e","LOCKUP_PERIOD()":"ec16d076","MAX_NAV_CHANGE_BPS()":"5d20bbcb","MIN_DEPOSIT()":"e1e158a5","NAV_UPDATER_ROLE()":"a07023cc","ORACLE_TIMELOCK()":"45b9cdf7","PAUSER_ROLE()":"e63ab1e9","REDEMPTION_COOLDOWN()":"2696b7e0","acceptOracle()":"7f2d9575","adminForceUpdateNAV(uint256)":"24b99a7d","allowance(address,address)":"dd62ed3e","approve(address,uint256)":"095ea7b3","asset()":"38d52e0f","balanceOf(address)":"70a08231","cancelRedemption()":"03ba4c44","claimRedemption()":"a16ba4e0","convertToAssets(uint256)":"07a2d13a","convertToShares(uint256)":"c6e6f592","currentOracle()":"2289445e","decimals()":"313ce567","deposit(uint256,address)":"6e553f65","disputeRedemption(address)":"4336d616","forceFulfillRedemption(address)":"eec6d19a","fulfillRedemption(address)":"44c33b4c","getRoleAdmin(bytes32)":"248a9ca3","grantRole(bytes32,address)":"2f2ff15d","hasRole(bytes32,address)":"91d14854","maxDeposit(address)":"402d267d","maxExitBps()":"d52f55cc","maxMint(address)":"c63d75b6","maxNavStaleness()":"48fb77d9","maxRedeem(address)":"d905777e","maxWithdraw(address)":"ce96cb77","mint(uint256,address)":"94bf804d","name()":"06fdde03","navPerShare()":"ae097223","navUpdatedAt()":"fc11cdd6","oracleChangeAt()":"7070e2b4","pause()":"8456cb59","paused()":"5c975abb","pendingOracle()":"0607e5bb","pendingRedemptionValue()":"aef72266","previewDeposit(uint256)":"ef8b30f7","previewMint(uint256)":"b3d7f6b9","previewRedeem(uint256)":"4cdad506","previewWithdraw(uint256)":"0a28a477","proposeOracle(address)":"adc565e1","redeem(uint256,address,address)":"ba087652","redemptionRequests(address)":"5e4a9a65","renounceRole(bytes32,address)":"36568abe","requestRedeem(uint256)":"aa2f892d","resolveDispute(address,bool)":"3738de3f","revokeRole(bytes32,address)":"d547741f","setMaxExitBps(uint256)":"e767397c","supportsInterface(bytes4)":"01ffc9a7","symbol()":"95d89b41","totalAssets()":"01e1d114","totalSupply()":"18160ddd","transfer(address,uint256)":"a9059cbb","transferFrom(address,address,uint256)":"23b872dd","unpause()":"3f4ba83a","updateNAV(uint256)":"0cb1982b","withdraw(uint256,address,address)":"b460af94","withdrawCapital(uint256,address)":"f29dfb33"},"id":60}