{"abi":[{"type":"constructor","inputs":[{"name":"_vault","type":"address","internalType":"address"},{"name":"_creForwarder","type":"address","internalType":"address"},{"name":"_benchmarkFeed","type":"address","internalType":"address"}],"stateMutability":"nonpayable"},{"type":"function","name":"BENCHMARK_DEVIATION_BPS","inputs":[],"outputs":[{"name":"","type":"uint256","internalType":"uint256"}],"stateMutability":"view"},{"type":"function","name":"MAX_PAYLOAD_AGE","inputs":[],"outputs":[{"name":"","type":"uint256","internalType":"uint256"}],"stateMutability":"view"},{"type":"function","name":"NAV_UPDATE_TYPEHASH","inputs":[],"outputs":[{"name":"","type":"bytes32","internalType":"bytes32"}],"stateMutability":"view"},{"type":"function","name":"addAuditor","inputs":[{"name":"auditor","type":"address","internalType":"address"}],"outputs":[],"stateMutability":"nonpayable"},{"type":"function","name":"benchmarkDecimals","inputs":[],"outputs":[{"name":"","type":"uint8","internalType":"uint8"}],"stateMutability":"view"},{"type":"function","name":"benchmarkFeed","inputs":[],"outputs":[{"name":"","type":"address","internalType":"contract AggregatorV3Interface"}],"stateMutability":"view"},{"type":"function","name":"creForwarder","inputs":[],"outputs":[{"name":"","type":"address","internalType":"address"}],"stateMutability":"view"},{"type":"function","name":"eip712Domain","inputs":[],"outputs":[{"name":"fields","type":"bytes1","internalType":"bytes1"},{"name":"name","type":"string","internalType":"string"},{"name":"version","type":"string","internalType":"string"},{"name":"chainId","type":"uint256","internalType":"uint256"},{"name":"verifyingContract","type":"address","internalType":"address"},{"name":"salt","type":"bytes32","internalType":"bytes32"},{"name":"extensions","type":"uint256[]","internalType":"uint256[]"}],"stateMutability":"view"},{"type":"function","name":"isAuditor","inputs":[{"name":"","type":"address","internalType":"address"}],"outputs":[{"name":"","type":"bool","internalType":"bool"}],"stateMutability":"view"},{"type":"function","name":"lastBenchmarkPrice","inputs":[],"outputs":[{"name":"","type":"int256","internalType":"int256"}],"stateMutability":"view"},{"type":"function","name":"lastBenchmarkUpdatedAt","inputs":[],"outputs":[{"name":"","type":"uint256","internalType":"uint256"}],"stateMutability":"view"},{"type":"function","name":"lastNonce","inputs":[],"outputs":[{"name":"","type":"uint256","internalType":"uint256"}],"stateMutability":"view"},{"type":"function","name":"lastUpdatedAt","inputs":[],"outputs":[{"name":"","type":"uint256","internalType":"uint256"}],"stateMutability":"view"},{"type":"function","name":"latestNav","inputs":[],"outputs":[{"name":"","type":"uint256","internalType":"uint256"}],"stateMutability":"view"},{"type":"function","name":"onReport","inputs":[{"name":"report","type":"bytes","internalType":"bytes"}],"outputs":[],"stateMutability":"nonpayable"},{"type":"function","name":"owner","inputs":[],"outputs":[{"name":"","type":"address","internalType":"address"}],"stateMutability":"view"},{"type":"function","name":"refreshBenchmark","inputs":[],"outputs":[],"stateMutability":"nonpayable"},{"type":"function","name":"removeAuditor","inputs":[{"name":"auditor","type":"address","internalType":"address"}],"outputs":[],"stateMutability":"nonpayable"},{"type":"function","name":"renounceOwnership","inputs":[],"outputs":[],"stateMutability":"nonpayable"},{"type":"function","name":"setBenchmarkFeed","inputs":[{"name":"feed","type":"address","internalType":"address"}],"outputs":[],"stateMutability":"nonpayable"},{"type":"function","name":"setCREForwarder","inputs":[{"name":"forwarder","type":"address","internalType":"address"}],"outputs":[],"stateMutability":"nonpayable"},{"type":"function","name":"transferOwnership","inputs":[{"name":"newOwner","type":"address","internalType":"address"}],"outputs":[],"stateMutability":"nonpayable"},{"type":"function","name":"vault","inputs":[],"outputs":[{"name":"","type":"address","internalType":"contract IFundVaultConsumer"}],"stateMutability":"view"},{"type":"event","name":"AuditorAdded","inputs":[{"name":"auditor","type":"address","indexed":true,"internalType":"address"}],"anonymous":false},{"type":"event","name":"AuditorRemoved","inputs":[{"name":"auditor","type":"address","indexed":true,"internalType":"address"}],"anonymous":false},{"type":"event","name":"BenchmarkDeviationWarning","inputs":[{"name":"nav","type":"uint256","indexed":false,"internalType":"uint256"},{"name":"benchmarkPrice","type":"int256","indexed":false,"internalType":"int256"}],"anonymous":false},{"type":"event","name":"BenchmarkFeedSet","inputs":[{"name":"feed","type":"address","indexed":true,"internalType":"address"}],"anonymous":false},{"type":"event","name":"BenchmarkUpdated","inputs":[{"name":"price","type":"int256","indexed":false,"internalType":"int256"},{"name":"feedTimestamp","type":"uint256","indexed":false,"internalType":"uint256"},{"name":"roundId","type":"uint256","indexed":false,"internalType":"uint256"}],"anonymous":false},{"type":"event","name":"CREForwarderSet","inputs":[{"name":"forwarder","type":"address","indexed":true,"internalType":"address"}],"anonymous":false},{"type":"event","name":"EIP712DomainChanged","inputs":[],"anonymous":false},{"type":"event","name":"NAVReported","inputs":[{"name":"nav","type":"uint256","indexed":false,"internalType":"uint256"},{"name":"timestamp","type":"uint256","indexed":false,"internalType":"uint256"},{"name":"nonce","type":"uint256","indexed":false,"internalType":"uint256"}],"anonymous":false},{"type":"event","name":"OwnershipTransferred","inputs":[{"name":"previousOwner","type":"address","indexed":true,"internalType":"address"},{"name":"newOwner","type":"address","indexed":true,"internalType":"address"}],"anonymous":false},{"type":"error","name":"ECDSAInvalidSignature","inputs":[]},{"type":"error","name":"ECDSAInvalidSignatureLength","inputs":[{"name":"length","type":"uint256","internalType":"uint256"}]},{"type":"error","name":"ECDSAInvalidSignatureS","inputs":[{"name":"s","type":"bytes32","internalType":"bytes32"}]},{"type":"error","name":"InvalidShortString","inputs":[]},{"type":"error","name":"OwnableInvalidOwner","inputs":[{"name":"owner","type":"address","internalType":"address"}]},{"type":"error","name":"OwnableUnauthorizedAccount","inputs":[{"name":"account","type":"address","internalType":"address"}]},{"type":"error","name":"StringTooLong","inputs":[{"name":"str","type":"string","internalType":"string"}]}],"bytecode":{"object":"0x6101806040523461008b5761001b61001561016c565b916104e0565b610023610090565b612cc4610e09823960805181612635015260a0518161266c015260c051816125fc015260e05181612a1501526101005181612a3a01526101205181612387015261014051816123c7015261016051818181610be60152818161184d01526118f10152612cc490f35b610096565b60405190565b5f80fd5b601f801991011690565b634e487b7160e01b5f52604160045260245ffd5b906100c29061009a565b810190811060018060401b038211176100da57604052565b6100a4565b906100f26100eb610090565b92836100b8565b565b5f80fd5b60018060a01b031690565b61010c906100f8565b90565b61011881610103565b0361011f57565b5f80fd5b905051906101308261010f565b565b90916060828403126101675761016461014d845f8501610123565b9361015b8160208601610123565b93604001610123565b90565b6100f4565b61018a613acd8038038061017f816100df565b928339810190610132565b909192565b60018060401b0381116101ab576101a760209161009a565b0190565b6100a4565b906101c26101bd8361018f565b6100df565b918252565b5f7f4e4156436f6e73756d6572000000000000000000000000000000000000000000910152565b6101f8600b6101b0565b90610205602083016101c7565b565b61020f6101ee565b90565b5f7f3100000000000000000000000000000000000000000000000000000000000000910152565b61024360016101b0565b9061025060208301610212565b565b61025a610239565b90565b90565b90565b61027761027261027c9261025d565b610260565b6100f8565b90565b61028890610263565b90565b60209181520190565b5f7f4e4156436f6e73756d65723a207a65726f207661756c74000000000000000000910152565b6102c8601760209261028b565b6102d181610294565b0190565b6102ea9060208101905f8183039101526102bb565b90565b156102f457565b6102fc610090565b62461bcd60e51b815280610312600482016102d5565b0390fd5b61032a61032561032f926100f8565b610260565b6100f8565b90565b61033b90610316565b90565b61034790610332565b90565b5f1b90565b9061036060018060a01b039161034a565b9181191691161790565b61037390610316565b90565b61037f9061036a565b90565b90565b9061039a6103956103a192610376565b610382565b825461034f565b9055565b5f0190565b6103b390610316565b90565b6103bf906103aa565b90565b6103cb906103aa565b90565b90565b906103e66103e16103ed926103c2565b6103ce565b825461034f565b9055565b5f1c90565b60018060a01b031690565b61040d610412916103f1565b6103f6565b90565b61041f9054610401565b90565b61042b9061036a565b90565b60e01b90565b60ff1690565b61044381610434565b0361044a57565b5f80fd5b9050519061045b8261043a565b565b9060208282031261047657610473915f0161044e565b90565b6100f4565b610483610090565b3d5f823e3d90fd5b9061049760ff9161034a565b9181191691161790565b6104b56104b06104ba92610434565b610260565b610434565b90565b90565b906104d56104d06104dc926104a1565b6104bd565b825461048b565b9055565b610528906104fe6104ef610207565b6104f7610252565b33916106c5565b6105238161051c6105166105115f61027f565b610103565b91610103565b14156102ed565b61033e565b610160528061054761054161053c5f61027f565b610103565b91610103565b03610658575b508061056961056361055e5f61027f565b610103565b91610103565b03610572575b50565b61058561057e826103b6565b60056103d1565b6105b2602061059c6105976005610415565b610422565b63313ce567906105aa610090565b93849261042e565b825281806105c2600482016103a5565b03915afa8015610653576105df915f91610625575b5060086104c0565b6106097f8c526f41252186d25c384081305e095fa68bd1cd176de8c16627efafd282ee5491610376565b90610612610090565b8061061c816103a5565b0390a25f61056f565b610646915060203d811161064c575b61063e81836100b8565b81019061045d565b5f6105d7565b503d610634565b61047b565b610663816003610385565b61068d7f9ba2ca482a01faf5be80efa3538059fbd3425c3065902603d46298fa597836b291610376565b90610696610090565b806106a0816103a5565b0390a25f61054d565b90565b90565b60200190565b5190565b6106c29061036a565b90565b61070a906106d561072594610759565b6106e9816106e360016106a9565b90610a96565b61012052610701836106fb60026106a9565b90610a96565b610140526106ac565b61071c610716826106b5565b916106af565b2060e0526106ac565b610737610731826106b5565b916106af565b20610100524660a052610748610b9b565b608052610754306106b9565b60c052565b61076290610786565b565b61076d90610103565b9052565b9190610784905f60208501940190610764565b565b806107a161079b6107965f61027f565b610103565b91610103565b146107b1576107af90610c38565b565b6107d46107bd5f61027f565b5f918291631e4fbdf760e01b835260048301610771565b0390fd5b5f90565b90565b90565b6107f66107f16107fb926107df565b610260565b6107dc565b90565b5190565b634e487b7160e01b5f52602260045260245ffd5b9060016002830492168015610836575b602083101461083157565b610802565b91607f1691610826565b5f5260205f2090565b601f602091010490565b1b90565b9190600861087291029161086c5f1984610853565b92610853565b9181191691161790565b61089061088b610895926107dc565b610260565b6107dc565b90565b90565b91906108b16108ac6108b99361087c565b610898565b908354610857565b9055565b5f90565b6108d3916108cd6108bd565b9161089b565b565b5f5b8281106108e357505050565b806108f25f60019385016108c1565b016108d7565b9190601f8111610908575b505050565b818111610915575b610903565b61092a61092461094894610840565b91610849565b91602061093682610849565b9110610950575b8091019103906108d5565b5f8080610910565b505f61093d565b1c90565b9061096b905f1990600802610957565b191690565b8161097a9161095b565b906002021790565b9061098c816107fe565b9060018060401b038211610a4a576109ae826109a88554610816565b856108f8565b602090601f83116001146109e2579180916109d1935f926109d6575b5050610970565b90555b565b90915001515f806109ca565b601f198316916109f185610840565b925f5b818110610a3257509160029391856001969410610a18575b505050020190556109d4565b610a28910151601f84169061095b565b90555f8080610a0c565b919360206001819287870151815501950192016109f4565b6100a4565b90610a5991610982565b565b90565b90565b610a75610a70610a7a92610a5b565b61034a565b610a5e565b90565b610a8760ff610a61565b90565b610a9390610a5e565b90565b90610a9f6107d8565b50610ab1610aac836106ac565b6106b5565b610ac4610abe60206107e2565b916107dc565b105f14610ad85750610ad590610d7e565b90565b5f610ae6610aec9392610c97565b01610a4f565b610afc610af7610a7d565b610a8a565b90565b5f90565b7f8b73c3c69bb8fe3d512ecc4cf759cc79239f7b179b0ffacaa9a75d522b39400f90565b610b319051610a5e565b90565b610b3d90610a5e565b9052565b610b4a906107dc565b9052565b90959492610b9994610b88610b9292610b7e608096610b7460a088019c5f890190610b34565b6020870190610b34565b6040850190610b34565b6060830190610b41565b0190610764565b565b610ba3610aff565b50610bac610b03565b610bf6610bb960e0610b27565b91610be7610bc8610100610b27565b46610bd2306106b9565b91610bdb610090565b96879560208701610b4e565b602082018103825203826100b8565b610c08610c02826106b5565b916106af565b2090565b60018060a01b031690565b610c23610c28916103f1565b610c0c565b90565b610c359054610c17565b90565b610c415f610c2b565b610c4b825f610385565b90610c7f610c797f8be0079c531659141344cd1fd0a4f28419497f9722a3daafe3b4186f6b6457e093610376565b91610376565b91610c88610090565b80610c92816103a5565b0390a3565b90565b90565b610cb1610cac610cb692610c9a565b610260565b6107dc565b90565b90825f9392825e0152565b610ce3610cec602093610cf193610cda816107fe565b9384809361028b565b95869101610cb9565b61009a565b0190565b610d0a9160208201915f818403910152610cc4565b90565b610d27610d22610d1c836106b5565b926106af565b610b27565b9060208110610d35575b5090565b610d47905f1990602003600802610853565b165f610d31565b610d5a610d5f916103f1565b61087c565b90565b610d76610d71610d7b926107dc565b61034a565b610a5e565b90565b610d866107d8565b50610d90816106ac565b90610d9a826106b5565b610dad610da7601f610c9d565b916107dc565b11610de25750610dda81610dd4610dce610dc9610ddf95610d0d565b610d4e565b916106b5565b17610d62565b610a8a565b90565b610e0490610dee610090565b91829163305a27a960e01b835260048301610cf5565b0390fdfe60806040526004361015610013575b610c9e565b61001d5f3561018c565b80630e625b9b146101875780631695acdc146101825780632f79ca721461017d57806335a9960014610178578063367d490f1461017357806349b905571461016e5780634cafb1cc14610169578063513a9c341461016457806352631ab41461015f57806354aea1271461015a5780636e913cc014610155578063715018a61461015057806384b0196e1461014b5780638a68ad9c146101465780638da5cb5b1461014157806393267c161461013c578063b921af6214610137578063c2e5f7af14610132578063e429cef11461012d578063e6116cfd14610128578063f2fde38b14610123578063fbfa77cf1461011e5763fe63c22f0361000e57610c6b565b610c36565b610bb1565b610b7e565b610b4b565b610b17565b610a61565b6109ec565b610954565b61090a565b6108bf565b61071a565b6106e5565b61065c565b610618565b6105d4565b610567565b6104c4565b6103d9565b61036c565b6102d9565b6102a4565b610201565b60e01c90565b60405190565b5f80fd5b5f80fd5b5f80fd5b60018060a01b031690565b6101b8906101a4565b90565b6101c4816101af565b036101cb57565b5f80fd5b905035906101dc826101bb565b565b906020828203126101f7576101f4915f016101cf565b90565b61019c565b5f0190565b3461022f576102196102143660046101de565b610faf565b610221610192565b8061022b816101fc565b0390f35b610198565b5f91031261023e57565b61019c565b1c90565b90565b61025a90600861025f9302610243565b610247565b90565b9061026d915461024a565b90565b61027c60065f90610262565b90565b90565b61028b9061027f565b9052565b91906102a2905f60208501940190610282565b565b346102d4576102b4366004610234565b6102d06102bf610270565b6102c7610192565b9182918261028f565b0390f35b610198565b34610307576102e9366004610234565b6102f161105d565b6102f9610192565b80610303816101fc565b0390f35b610198565b90565b90565b90565b61032961032461032e9261030c565b610312565b61030f565b90565b61033c611c20610315565b90565b610347610331565b90565b6103539061030f565b9052565b919061036a905f6020850194019061034a565b565b3461039c5761037c366004610234565b61039861038761033f565b61038f610192565b91829182610357565b0390f35b610198565b90565b6103b86103b36103bd926103a1565b610312565b61030f565b90565b6103cb6113886103a4565b90565b6103d66103c0565b90565b34610409576103e9366004610234565b6104056103f46103ce565b6103fc610192565b91829182610357565b0390f35b610198565b61042261041d610427926101a4565b610312565b6101a4565b90565b6104339061040e565b90565b61043f9061042a565b90565b9061044c90610436565b5f5260205260405f2090565b60ff1690565b61046e9060086104739302610243565b610458565b90565b90610481915461045e565b90565b61049a906104956004915f92610442565b610476565b90565b151590565b6104ab9061049d565b9052565b91906104c2905f602085019401906104a2565b565b346104f4576104f06104df6104da3660046101de565b610484565b6104e7610192565b918291826104af565b0390f35b610198565b60018060a01b031690565b6105149060086105199302610243565b6104f9565b90565b906105279154610504565b90565b61053660055f9061051c565b90565b6105429061042a565b90565b61054e90610539565b9052565b9190610565905f60208501940190610545565b565b3461059757610577366004610234565b61059361058261052a565b61058a610192565b91829182610552565b0390f35b610198565b90565b6105af9060086105b49302610243565b61059c565b90565b906105c2915461059f565b90565b6105d1600b5f906105b7565b90565b34610604576105e4366004610234565b6106006105ef6105c5565b6105f7610192565b91829182610357565b0390f35b610198565b61061560095f906105b7565b90565b3461064857610628366004610234565b610644610633610609565b61063b610192565b91829182610357565b0390f35b610198565b610659600a5f906105b7565b90565b3461068c5761066c366004610234565b61068861067761064d565b61067f610192565b91829182610357565b0390f35b610198565b7f389f9bf9fe3b5eb4eb756cae5cab7dbb1f395629654a5218d2749bf7846ee86a90565b6106bd610691565b90565b90565b6106cc906106c0565b9052565b91906106e3905f602085019401906106c3565b565b34610715576106f5366004610234565b6107116107006106b5565b610708610192565b918291826106d0565b0390f35b610198565b346107485761072a366004610234565b6107326110cc565b61073a610192565b80610744816101fc565b0390f35b610198565b60ff60f81b1690565b61075f9061074d565b9052565b5190565b60209181520190565b90825f9392825e0152565b601f801991011690565b6107a46107ad6020936107b29361079b81610763565b93848093610767565b95869101610770565b61077b565b0190565b6107bf906101af565b9052565b5190565b60209181520190565b60200190565b6107df9061030f565b9052565b906107f0816020936107d6565b0190565b60200190565b9061081761081161080a846107c3565b80936107c7565b926107d0565b905f5b8181106108275750505090565b90919261084061083a60019286516107e3565b946107f4565b910191909161081a565b9395919461089b6108906108af956108826108a5956108bc9c9a61087560e08c01925f8d0190610756565b8a820360208c0152610785565b9088820360408a0152610785565b97606087019061034a565b60808501906107b6565b60a08301906106c3565b60c08184039101526107fa565b90565b346108f6576108cf366004610234565b6108f26108da6111b1565b936108e9979597939193610192565b9788978861084a565b0390f35b610198565b61090760075f906105b7565b90565b3461093a5761091a366004610234565b6109366109256108fb565b61092d610192565b91829182610357565b0390f35b610198565b9190610952905f602085019401906107b6565b565b3461098457610964366004610234565b61098061096f61125c565b610977610192565b9182918261093f565b0390f35b610198565b60ff1690565b61099f9060086109a49302610243565b610989565b90565b906109b2915461098f565b90565b6109c160085f906109a7565b90565b60ff1690565b6109d3906109c4565b9052565b91906109ea905f602085019401906109ca565b565b34610a1c576109fc366004610234565b610a18610a076109b5565b610a0f610192565b918291826109d7565b0390f35b610198565b60018060a01b031690565b610a3c906008610a419302610243565b610a21565b90565b90610a4f9154610a2c565b90565b610a5e60035f90610a44565b90565b34610a9157610a71366004610234565b610a8d610a7c610a52565b610a84610192565b9182918261093f565b0390f35b610198565b5f80fd5b5f80fd5b5f80fd5b909182601f83011215610adc5781359167ffffffffffffffff8311610ad7576020019260018302840111610ad257565b610a9e565b610a9a565b610a96565b90602082820312610b12575f82013567ffffffffffffffff8111610b0d57610b099201610aa2565b9091565b6101a0565b61019c565b34610b4657610b30610b2a366004610ae1565b90611773565b610b38610192565b80610b42816101fc565b0390f35b610198565b34610b7957610b63610b5e3660046101de565b611b46565b610b6b610192565b80610b75816101fc565b0390f35b610198565b34610bac57610b96610b913660046101de565b611bbb565b610b9e610192565b80610ba8816101fc565b0390f35b610198565b34610bdf57610bc9610bc43660046101de565b611c2b565b610bd1610192565b80610bdb816101fc565b0390f35b610198565b7f000000000000000000000000000000000000000000000000000000000000000090565b610c119061042a565b90565b610c1d90610c08565b9052565b9190610c34905f60208501940190610c14565b565b34610c6657610c46366004610234565b610c62610c51610be4565b610c59610192565b91829182610c21565b0390f35b610198565b34610c9957610c83610c7e3660046101de565b611cb9565b610c8b610192565b80610c95816101fc565b0390f35b610198565b5f80fd5b610cb390610cae611cc4565b610e76565b565b90565b610ccc610cc7610cd192610cb5565b610312565b6101a4565b90565b610cdd90610cb8565b90565b610ce99061040e565b90565b610cf590610ce0565b90565b5f1b90565b90610d0e60018060a01b0391610cf8565b9181191691161790565b610d2190610ce0565b90565b90565b90610d3c610d37610d4392610d18565b610d24565b8254610cfd565b9055565b610d5b610d56610d6092610cb5565b610312565b6109c4565b90565b90610d6f60ff91610cf8565b9181191691161790565b610d8d610d88610d92926109c4565b610312565b6109c4565b90565b90565b90610dad610da8610db492610d79565b610d95565b8254610d63565b9055565b5f1c90565b610dc9610dce91610db8565b6104f9565b90565b610ddb9054610dbd565b90565b5f80fd5b634e487b7160e01b5f52604160045260245ffd5b90610e009061077b565b810190811067ffffffffffffffff821117610e1a57604052565b610de2565b60e01b90565b610e2e816109c4565b03610e3557565b5f80fd5b90505190610e4682610e25565b565b90602082820312610e6157610e5e915f01610e39565b90565b61019c565b610e6e610192565b3d5f823e3d90fd5b80610e91610e8b610e865f610cd4565b6101af565b916101af565b14155f14610f7c57610eac610ea582610cec565b6005610d27565b610ed96020610ec3610ebe6005610dd1565b610539565b63313ce56790610ed1610192565b938492610e1f565b82528180610ee9600482016101fc565b03915afa8015610f7757610f06915f91610f49575b506008610d98565b5b610f317f8c526f41252186d25c384081305e095fa68bd1cd176de8c16627efafd282ee5491610436565b90610f3a610192565b80610f44816101fc565b0390a2565b610f6a915060203d8111610f70575b610f628183610df6565b810190610e48565b5f610efe565b503d610f58565b610e66565b610f97610f90610f8b5f610cd4565b610cec565b6005610d27565b610faa610fa35f610d47565b6008610d98565b610f07565b610fb890610ca2565b565b5f7f4e4156436f6e73756d65723a206e6f2066656564207365740000000000000000910152565b610fee6018602092610767565b610ff781610fba565b0190565b6110109060208101905f818303910152610fe1565b90565b1561101a57565b611022610192565b62461bcd60e51b81528061103860048201610ffb565b0390fd5b61104861104d91610db8565b61059c565b90565b61105a905461103c565b90565b61109361107261106d6005610dd1565b610539565b61108c6110866110815f610cd4565b6101af565b916101af565b1415611013565b6110a56110a0600b611050565b6120b7565b565b6110af611cc4565b6110b76110b9565b565b6110ca6110c55f610cd4565b612317565b565b6110d46110a7565b565b5f90565b606090565b5f90565b5f90565b5f90565b606090565b6110f99061042a565b90565b61111061110b61111592610cb5565b610cf8565b6106c0565b90565b61112c61112761113192610cb5565b610312565b61030f565b90565b90611147611140610192565b9283610df6565b565b67ffffffffffffffff81116111615760208091020190565b610de2565b9061117861117383611149565b611134565b918252565b369037565b906111a761118f83611166565b9260208061119d8693611149565b920191039061117d565b565b600f60f81b90565b6111b96110d6565b506111c26110da565b506111cb6110da565b506111d46110df565b506111dd6110e3565b506111e66110e7565b506111ef6110eb565b506111f8612379565b906112016123b9565b90469061120d306110f0565b906112175f6110fc565b906112296112245f611118565b611182565b906112326111a9565b96959493929190565b61124761124c91610db8565b610a21565b90565b611259905461123b565b90565b6112646110e3565b5061126e5f61124f565b90565b60207f6172646572000000000000000000000000000000000000000000000000000000917f4e4156436f6e73756d65723a2063616c6c6572206e6f742043524520666f72775f8201520152565b6112cb6025604092610767565b6112d481611271565b0190565b6112ed9060208101905f8183039101526112be565b90565b156112f757565b6112ff610192565b62461bcd60e51b815280611315600482016112d8565b0390fd5b6113228161030f565b0361132957565b5f80fd5b9050359061133a82611319565b565b5f80fd5b67ffffffffffffffff811161135e5761135a60209161077b565b0190565b610de2565b90825f939282370152565b9092919261138361137e82611340565b611134565b9381855260208501908284011161139f5761139d92611363565b565b61133c565b9080601f830112156113c2578160206113bf9335910161136e565b90565b610a96565b90608082820312611421576113de815f840161132d565b926113ec826020850161132d565b926113fa836040830161132d565b92606082013567ffffffffffffffff811161141c5761141992016113a4565b90565b6101a0565b61019c565b634e487b7160e01b5f52601160045260245ffd5b61144961144f9193929361030f565b9261030f565b820180921161145a57565b611426565b5f7f4e4156436f6e73756d65723a207061796c6f616420746f6f206f6c6400000000910152565b611493601c602092610767565b61149c8161145f565b0190565b6114b59060208101905f818303910152611486565b90565b156114bf57565b6114c7610192565b62461bcd60e51b8152806114dd600482016114a0565b0390fd5b5f7f4e4156436f6e73756d65723a2074696d657374616d70206e6f74206e65776572910152565b61151460208092610767565b61151d816114e1565b0190565b6115369060208101905f818303910152611508565b90565b1561154057565b611548610192565b62461bcd60e51b81528061155e60048201611521565b0390fd5b5f7f4e4156436f6e73756d65723a206e6f6e6365207265706c617900000000000000910152565b6115966019602092610767565b61159f81611562565b0190565b6115b89060208101905f818303910152611589565b90565b156115c257565b6115ca610192565b62461bcd60e51b8152806115e0600482016115a3565b0390fd5b9095949261162f9461161e6116289261161460809661160a60a088019c5f8901906106c3565b60208701906107b6565b604085019061034a565b606083019061034a565b019061034a565b565b60200190565b5190565b61164761164c91610db8565b610458565b90565b611659905461163b565b90565b5f7f4e4156436f6e73756d65723a20696e76616c69642061756469746f7220736967910152565b61168f60208092610767565b6116988161165c565b0190565b6116b19060208101905f818303910152611683565b90565b156116bb57565b6116c3610192565b62461bcd60e51b8152806116d96004820161169c565b0390fd5b906116e95f1991610cf8565b9181191691161790565b61170761170261170c9261030f565b610312565b61030f565b90565b90565b9061172761172261172e926116f3565b61170f565b82546116dd565b9055565b5f91031261173c57565b61019c565b60409061176a611771949695939661176060608401985f85019061034a565b602083019061034a565b019061034a565b565b6118ba6118cb6117b76118c6946118c19461178e600361124f565b6117a86117a261179d5f610cd4565b6101af565b916101af565b036119db575b908101906113c7565b96929591959490949594966117f06117d7876117d1610331565b9061143a565b6117e96117e34261030f565b9161030f565b10156114b8565b6118158661180f611809611804600a611050565b61030f565b9161030f565b11611539565b61183a8861183461182e6118296009611050565b61030f565b9161030f565b116115bb565b6118b5611845610691565b61189d6118717f0000000000000000000000000000000000000000000000000000000000000000610c08565b9161188e8b8d8c9091611882610192565b968795602087016115e4565b60208201810382520382610df6565b6118af6118a982611637565b91611631565b206123f9565b612416565b6004610442565b61164f565b6116b4565b6118d6836009611712565b6118e181600a611712565b6118ec82600b611712565b6119157f0000000000000000000000000000000000000000000000000000000000000000610c08565b92630cb1982b83853b156119d65761194c956119415f8094611935610192565b998a9586948593610e1f565b835260048301610357565b03925af19384156119d1576119a3946119a5575b508291909161199b7f585c381d737cf02ad656fa8e1a4d1b6e7b86f2c54a1a19c3862da8be9cb27a0993611992610192565b93849384611741565b0390a16120b7565b565b6119c4905f3d81116119ca575b6119bc8183610df6565b810190611732565b5f611960565b503d6119b2565b610e66565b610dde565b611a00336119fa6119f46119ef600361124f565b6101af565b916101af565b146112f0565b6117ae565b611a1690611a11611cc4565b611ac9565b565b5f7f4e4156436f6e73756d65723a207a65726f206164647265737300000000000000910152565b611a4c6019602092610767565b611a5581611a18565b0190565b611a6e9060208101905f818303910152611a3f565b90565b15611a7857565b611a80610192565b62461bcd60e51b815280611a9660048201611a59565b0390fd5b611aa39061049d565b90565b90565b90611abe611ab9611ac592611a9a565b611aa6565b8254610d63565b9055565b611aee81611ae7611ae1611adc5f610cd4565b6101af565b916101af565b1415611a71565b611b046001611aff60048490610442565b611aa9565b611b2e7f2c31044378cc14466459f09320dd4057d7ad6e99b194c0800c78227383a2529691610436565b90611b37610192565b80611b41816101fc565b0390a2565b611b4f90611a05565b565b611b6290611b5d611cc4565b611b64565b565b611b795f611b7460048490610442565b611aa9565b611ba37fd3e803f2dfdacd206b7d19aa46d847206386d84e3dc6b8de0926e54affa6fddc91610436565b90611bac610192565b80611bb6816101fc565b0390a2565b611bc490611b51565b565b611bd790611bd2611cc4565b611bd9565b565b80611bf4611bee611be95f610cd4565b6101af565b916101af565b14611c0457611c0290612317565b565b611c27611c105f610cd4565b5f918291631e4fbdf760e01b83526004830161093f565b0390fd5b611c3490611bc6565b565b611c4790611c42611cc4565b611c6c565b565b90565b90611c61611c5c611c6892610436565b611c49565b8254610cfd565b9055565b611c77816003611c4c565b611ca17f9ba2ca482a01faf5be80efa3538059fbd3425c3065902603d46298fa597836b291610436565b90611caa610192565b80611cb4816101fc565b0390a2565b611cc290611c36565b565b611ccc61125c565b611ce5611cdf611cda612438565b6101af565b916101af565b03611cec57565b611d0e611cf7612438565b5f91829163118cdaa760e01b83526004830161093f565b0390fd5b69ffffffffffffffffffff1690565b611d2a81611d12565b03611d3157565b5f80fd5b90505190611d4282611d21565b565b611d4d8161027f565b03611d5457565b5f80fd5b90505190611d6582611d44565b565b90505190611d7482611319565b565b919060a083820312611dc757611d8e815f8501611d35565b92611d9c8260208301611d58565b92611dc4611dad8460408501611d67565b93611dbb8160608601611d67565b93608001611d35565b90565b61019c565b611de0611ddb611de592610cb5565b610312565b61027f565b90565b60207f7269636500000000000000000000000000000000000000000000000000000000917f4e4156436f6e73756d65723a20696e76616c69642062656e63686d61726b20705f8201520152565b611e426024604092610767565b611e4b81611de8565b0190565b611e649060208101905f818303910152611e35565b90565b15611e6e57565b611e76610192565b62461bcd60e51b815280611e8c60048201611e4f565b0390fd5b611ea4611e9f611ea99261027f565b610312565b61027f565b90565b90565b90611ec4611ebf611ecb92611e90565b611eac565b82546116dd565b9055565b611ee3611ede611ee892611d12565b610312565b61030f565b90565b611ef490611ecf565b9052565b604090611f21611f289496959396611f1760608401985f850190610282565b602083019061034a565b0190611eeb565b565b90565b611f41611f3c611f4692611f2a565b610312565b61030f565b90565b611f58611f5e9193929361030f565b9261030f565b91611f6a83820261030f565b928184041490151715611f7957565b611426565b611f92611f8d611f979261027f565b610312565b61030f565b90565b611fa6611fab91610db8565b610989565b90565b611fb89054611f9a565b90565b90565b611fd2611fcd611fd792611fbb565b610312565b6109c4565b90565b611fe6611fec916109c4565b916109c4565b90039060ff8211611ff957565b611426565b612007906109c4565b604d811161201557600a0a90565b611426565b61202961202f9193929361030f565b9261030f565b820391821161203a57565b611426565b90565b61205661205161205b9261203f565b610312565b61030f565b90565b634e487b7160e01b5f52601260045260245ffd5b61207e6120849161030f565b9161030f565b90811561208f570490565b61205e565b9160206120b59294936120ae60408201965f83019061034a565b0190610282565b565b6120c96120c46005610dd1565b610539565b6120e36120dd6120d85f610cd4565b6101af565b916101af565b14612314576121169060a06121006120fb6005610dd1565b610539565b63feaf968c9061210e610192565b948592610e1f565b82528180612126600482016101fc565b03915afa801561230f575f80808095919390506122da575b5090929061215e846121586121525f611dcc565b9161027f565b13611e67565b612169846006611eaf565b612174826007611712565b839190916121ae7f021f0663e7195a6fb44ab8c1978b4ebcdd399f02b85d54442a6393bea79944c2936121a5610192565b93849384611ef8565b0390a16121c9816121c364e8d4a51000611f2d565b90611f49565b6122006121d584611f7e565b6121fa6121f560126121f06121ea6008611fae565b91611fbe565b611fda565b611ffe565b90611f49565b6122086110df565b508161221c6122168361030f565b9161030f565b115f146122af5761224561223461224a93839061201a565b61223f612710612042565b90611f49565b612072565b5b61226461225e6122596103c0565b61030f565b9161030f565b1161226e575b5050565b907f928f3622d4f8ee01a1b3da6b19a9ddba8c1b0bc7a0bef6c68451bc5a3fc5b873916122a561229c610192565b92839283612094565b0390a15f8061226a565b6122d06122bf6122d5938361201a565b6122ca612710612042565b90611f49565b612072565b61224b565b9150506122ff91925060a03d8111612308575b6122f78183610df6565b810190611d76565b5093929061213e565b503d6122ed565b610e66565b50565b6123205f61124f565b61232a825f611c4c565b9061235e6123587f8be0079c531659141344cd1fd0a4f28419497f9722a3daafe3b4186f6b6457e093610436565b91610436565b91612367610192565b80612371816101fc565b0390a3565b90565b6123816110da565b506123b67f00000000000000000000000000000000000000000000000000000000000000006123b06001612376565b90612594565b90565b6123c16110da565b506123f67f00000000000000000000000000000000000000000000000000000000000000006123f06002612376565b90612594565b90565b612413906124056110e7565b5061240e6125e2565b61269c565b90565b6124359161242c916124266110e3565b50612720565b90929192612808565b90565b6124406110e3565b503390565b61244e906106c0565b90565b90565b61246861246361246d92612451565b610cf8565b6106c0565b90565b61247a60ff612454565b90565b634e487b7160e01b5f52602260045260245ffd5b90600160028304921680156124b1575b60208310146124ac57565b61247d565b91607f16916124a1565b60209181520190565b5f5260205f2090565b905f92918054906124e76124e083612491565b80946124bb565b916001811690815f1461253e5750600114612502575b505050565b61250f91929394506124c4565b915f925b81841061252657505001905f80806124fd565b60018160209295939554848601520191019290612513565b92949550505060ff19168252151560200201905f80806124fd565b90612563916124cd565b90565b9061258661257f92612576610192565b93848092612559565b0383610df6565b565b61259190612566565b90565b9061259d6110da565b506125a782612445565b6125c06125ba6125b5612470565b6106c0565b916106c0565b14155f146125d557506125d29061295e565b90565b6125df9150612588565b90565b6125ea6110e7565b506125f4306110f0565b6126266126207f00000000000000000000000000000000000000000000000000000000000000006101af565b916101af565b1480612662575b5f14612657577f000000000000000000000000000000000000000000000000000000000000000090565b61265f6129ff565b90565b50466126966126907f000000000000000000000000000000000000000000000000000000000000000061030f565b9161030f565b1461262d565b6042916126a76110e7565b50604051917f19010000000000000000000000000000000000000000000000000000000000008352600283015260228201522090565b5f90565b90565b6126f86126f36126fd926126e1565b610312565b61030f565b90565b61271461270f6127199261030f565b610cf8565b6106c0565b90565b5f90565b91909161272b6110e3565b506127346126dd565b5061273d6110e7565b5061274783611637565b61275a61275460416126e4565b9161030f565b145f146127a15761279a919261276e6110e7565b506127776110e7565b5061278061271c565b506020810151606060408301519201515f1a909192612afa565b9192909190565b506127ab5f610cd4565b906127bf6127ba600294611637565b612700565b91929190565b634e487b7160e01b5f52602160045260245ffd5b600411156127e357565b6127c5565b906127f2826127d9565b565b61280061280591610db8565b6116f3565b90565b8061281b6128155f6127e8565b916127e8565b145f14612826575050565b8061283a61283460016127e8565b916127e8565b145f1461285d575f63f645eedf60e01b815280612859600482016101fc565b0390fd5b8061287161286b60026127e8565b916127e8565b145f1461289f5761289b612884836127f4565b5f91829163fce698f760e01b835260048301610357565b0390fd5b6128b26128ac60036127e8565b916127e8565b146128ba5750565b6128d5905f9182916335e2f38360e21b8352600483016106d0565b0390fd5b90565b6128f06128eb6128f5926128d9565b610312565b61030f565b90565b67ffffffffffffffff81116129165761291260209161077b565b0190565b610de2565b9061292d612928836128f8565b611134565b918252565b369037565b9061295c6129448361291b565b9260208061295286936128f8565b9201910390612932565b565b6129666110da565b5061297081612c31565b9061298361297e60206128dc565b612937565b918252602082015290565b7f8b73c3c69bb8fe3d512ecc4cf759cc79239f7b179b0ffacaa9a75d522b39400f90565b909594926129fd946129ec6129f6926129e26080966129d860a088019c5f8901906106c3565b60208701906106c3565b60408501906106c3565b606083019061034a565b01906107b6565b565b612a076110e7565b50612a1061298e565b612a877f000000000000000000000000000000000000000000000000000000000000000091612a787f000000000000000000000000000000000000000000000000000000000000000046612a63306110f0565b91612a6c610192565b968795602087016129b2565b60208201810382520382610df6565b612a99612a9382611637565b91611631565b2090565b90565b612ab4612aaf612ab992612a9d565b610312565b61030f565b90565b612af1612af894612ae7606094989795612add608086019a5f8701906106c3565b60208501906109ca565b60408301906106c3565b01906106c3565b565b939293612b056110e3565b50612b0e6126dd565b50612b176110e7565b50612b21856127f4565b612b53612b4d7f7fffffffffffffffffffffffffffffff5d576e7357a4501ddfe92f46681b20a0612aa0565b9161030f565b11612be05790612b76602094955f94939293612b6d610192565b94859485612abc565b838052039060015afa15612bdb57612b8e5f51610cf8565b80612ba9612ba3612b9e5f610cd4565b6101af565b916101af565b14612bbf575f91612bb95f6110fc565b91929190565b50612bc95f610cd4565b600191612bd55f6110fc565b91929190565b610e66565b505050612bec5f610cd4565b9060039291929190565b612c0a612c05612c0f92612451565b610312565b61030f565b90565b90565b612c29612c24612c2e92612c12565b610312565b61030f565b90565b612c46612c4b91612c406110df565b50612445565b6127f4565b612c5560ff612bf6565b1680612c6a612c64601f612c15565b9161030f565b11612c725790565b5f632cd44ac360e21b815280612c8a600482016101fc565b0390fdfea264697066735822122050987bcb4aa4d0a89b850445488fb5a82165b463f99d3ef58d25adb442db5c1964736f6c63430008210033","linkReferences":{}},"methodIdentifiers":{"BENCHMARK_DEVIATION_BPS()":"367d490f","MAX_PAYLOAD_AGE()":"35a99600","NAV_UPDATE_TYPEHASH()":"6e913cc0","addAuditor(address)":"e429cef1","benchmarkDecimals()":"93267c16","benchmarkFeed()":"4cafb1cc","creForwarder()":"b921af62","eip712Domain()":"84b0196e","isAuditor(address)":"49b90557","lastBenchmarkPrice()":"1695acdc","lastBenchmarkUpdatedAt()":"8a68ad9c","lastNonce()":"52631ab4","lastUpdatedAt()":"54aea127","latestNav()":"513a9c34","onReport(bytes)":"c2e5f7af","owner()":"8da5cb5b","refreshBenchmark()":"2f79ca72","removeAuditor(address)":"e6116cfd","renounceOwnership()":"715018a6","setBenchmarkFeed(address)":"0e625b9b","setCREForwarder(address)":"fe63c22f","transferOwnership(address)":"f2fde38b","vault()":"fbfa77cf"},"id":65}