{"abi":[{"type":"constructor","inputs":[{"name":"admin","type":"address","internalType":"address"}],"stateMutability":"nonpayable"},{"type":"function","name":"addHedgeFund","inputs":[{"name":"account","type":"address","internalType":"address"}],"outputs":[],"stateMutability":"nonpayable"},{"type":"function","name":"isHedgeFund","inputs":[{"name":"account","type":"address","internalType":"address"}],"outputs":[{"name":"","type":"bool","internalType":"bool"}],"stateMutability":"view"},{"type":"function","name":"owner","inputs":[],"outputs":[{"name":"","type":"address","internalType":"address"}],"stateMutability":"view"},{"type":"function","name":"removeHedgeFund","inputs":[{"name":"account","type":"address","internalType":"address"}],"outputs":[],"stateMutability":"nonpayable"},{"type":"function","name":"renounceOwnership","inputs":[],"outputs":[],"stateMutability":"nonpayable"},{"type":"function","name":"transferOwnership","inputs":[{"name":"newOwner","type":"address","internalType":"address"}],"outputs":[],"stateMutability":"nonpayable"},{"type":"event","name":"HedgeFundAdded","inputs":[{"name":"account","type":"address","indexed":true,"internalType":"address"}],"anonymous":false},{"type":"event","name":"HedgeFundRemoved","inputs":[{"name":"account","type":"address","indexed":true,"internalType":"address"}],"anonymous":false},{"type":"event","name":"OwnershipTransferred","inputs":[{"name":"previousOwner","type":"address","indexed":true,"internalType":"address"},{"name":"newOwner","type":"address","indexed":true,"internalType":"address"}],"anonymous":false},{"type":"error","name":"OwnableInvalidOwner","inputs":[{"name":"owner","type":"address","internalType":"address"}]},{"type":"error","name":"OwnableUnauthorizedAccount","inputs":[{"name":"account","type":"address","internalType":"address"}]}],"bytecode":{"object":"0x608060405234801561000f575f80fd5b506040516103cf3803806103cf83398101604081905261002e916100bb565b806001600160a01b03811661005c57604051631e4fbdf760e01b81525f600482015260240160405180910390fd5b6100658161006c565b50506100e8565b5f80546001600160a01b038381166001600160a01b0319831681178455604051919092169283917f8be0079c531659141344cd1fd0a4f28419497f9722a3daafe3b4186f6b6457e09190a35050565b5f602082840312156100cb575f80fd5b81516001600160a01b03811681146100e1575f80fd5b9392505050565b6102da806100f55f395ff3fe608060405234801561000f575f80fd5b5060043610610060575f3560e01c806363967ff414610064578063715018a6146100795780638da5cb5b14610081578063a8003eaf146100a0578063a93fd326146100db578063f2fde38b146100ee575b5f80fd5b610077610072366004610277565b610101565b005b610077610151565b5f546040516001600160a01b0390911681526020015b60405180910390f35b6100cb6100ae366004610277565b6001600160a01b03165f9081526001602052604090205460ff1690565b6040519015158152602001610097565b6100776100e9366004610277565b610164565b6100776100fc366004610277565b6101ba565b6101096101fc565b6001600160a01b0381165f81815260016020526040808220805460ff19169055517f1c4c89479682ea01afbab529af7f625f198fceefbc85c8aeebc589a182ecc6d79190a250565b6101596101fc565b6101625f610228565b565b61016c6101fc565b6001600160a01b0381165f818152600160208190526040808320805460ff1916909217909155517f0db78d07082927c361395dc1949f1a5c7ed07d860413fa1e4af9521bcdd3ce559190a250565b6101c26101fc565b6001600160a01b0381166101f057604051631e4fbdf760e01b81525f60048201526024015b60405180910390fd5b6101f981610228565b50565b5f546001600160a01b031633146101625760405163118cdaa760e01b81523360048201526024016101e7565b5f80546001600160a01b038381166001600160a01b0319831681178455604051919092169283917f8be0079c531659141344cd1fd0a4f28419497f9722a3daafe3b4186f6b6457e09190a35050565b5f60208284031215610287575f80fd5b81356001600160a01b038116811461029d575f80fd5b939250505056fea2646970667358221220052ac1af6c0cc593c06dc160bcf7253931826725632a9ac1f45facd339de572f64736f6c63430008180033","linkReferences":{}},"methodIdentifiers":{"addHedgeFund(address)":"a93fd326","isHedgeFund(address)":"a8003eaf","owner()":"8da5cb5b","removeHedgeFund(address)":"63967ff4","renounceOwnership()":"715018a6","transferOwnership(address)":"f2fde38b"},"id":31}