{"abi":[{"type":"constructor","inputs":[],"stateMutability":"nonpayable"},{"type":"function","name":"deployVault","inputs":[{"name":"usdc","type":"address","internalType":"address"},{"name":"name","type":"string","internalType":"string"},{"name":"symbol","type":"string","internalType":"string"},{"name":"initialNav","type":"uint256","internalType":"uint256"},{"name":"maxStaleness","type":"uint256","internalType":"uint256"}],"outputs":[{"name":"vault","type":"address","internalType":"address"}],"stateMutability":"nonpayable"},{"type":"function","name":"isVault","inputs":[{"name":"","type":"address","internalType":"address"}],"outputs":[{"name":"","type":"bool","internalType":"bool"}],"stateMutability":"view"},{"type":"function","name":"owner","inputs":[],"outputs":[{"name":"","type":"address","internalType":"address"}],"stateMutability":"view"},{"type":"function","name":"renounceOwnership","inputs":[],"outputs":[],"stateMutability":"nonpayable"},{"type":"function","name":"transferOwnership","inputs":[{"name":"newOwner","type":"address","internalType":"address"}],"outputs":[],"stateMutability":"nonpayable"},{"type":"function","name":"vaultCount","inputs":[],"outputs":[{"name":"","type":"uint256","internalType":"uint256"}],"stateMutability":"view"},{"type":"function","name":"vaults","inputs":[{"name":"","type":"uint256","internalType":"uint256"}],"outputs":[{"name":"","type":"address","internalType":"address"}],"stateMutability":"view"},{"type":"event","name":"OwnershipTransferred","inputs":[{"name":"previousOwner","type":"address","indexed":true,"internalType":"address"},{"name":"newOwner","type":"address","indexed":true,"internalType":"address"}],"anonymous":false},{"type":"event","name":"VaultDeployed","inputs":[{"name":"vault","type":"address","indexed":true,"internalType":"address"},{"name":"usdc","type":"address","indexed":true,"internalType":"address"},{"name":"name","type":"string","indexed":false,"internalType":"string"},{"name":"symbol","type":"string","indexed":false,"internalType":"string"}],"anonymous":false},{"type":"error","name":"OwnableInvalidOwner","inputs":[{"name":"owner","type":"address","internalType":"address"}]},{"type":"error","name":"OwnableUnauthorizedAccount","inputs":[{"name":"account","type":"address","internalType":"address"}]}],"bytecode":{"object":"0x608060405234801561000f575f5ffd5b50335f73ffffffffffffffffffffffffffffffffffffffff168173ffffffffffffffffffffffffffffffffffffffff1603610081575f6040517f1e4fbdf70000000000000000000000000000000000000000000000000000000081526004016100789190610196565b60405180910390fd5b6100908161009660201b60201c565b506101af565b5f5f5f9054906101000a900473ffffffffffffffffffffffffffffffffffffffff169050815f5f6101000a81548173ffffffffffffffffffffffffffffffffffffffff021916908373ffffffffffffffffffffffffffffffffffffffff1602179055508173ffffffffffffffffffffffffffffffffffffffff168173ffffffffffffffffffffffffffffffffffffffff167f8be0079c531659141344cd1fd0a4f28419497f9722a3daafe3b4186f6b6457e060405160405180910390a35050565b5f73ffffffffffffffffffffffffffffffffffffffff82169050919050565b5f61018082610157565b9050919050565b61019081610176565b82525050565b5f6020820190506101a95f830184610187565b92915050565b615c79806101bc5f395ff3fe608060405234801561000f575f5ffd5b506004361061007b575f3560e01c80638da5cb5b116100595780638da5cb5b146100e95780639ac7886014610107578063a7c6a10014610137578063f2fde38b146101555761007b565b8063652b9b411461007f578063715018a6146100af5780638c64ea4a146100b9575b5f5ffd5b61009960048036038101906100949190610ac1565b610171565b6040516100a69190610b06565b60405180910390f35b6100b761018e565b005b6100d360048036038101906100ce9190610b52565b6101a1565b6040516100e09190610b8c565b60405180910390f35b6100f16101dc565b6040516100fe9190610b8c565b60405180910390f35b610121600480360381019061011c9190610c06565b610203565b60405161012e9190610b8c565b60405180910390f35b61013f610873565b60405161014c9190610ccc565b60405180910390f35b61016f600480360381019061016a9190610ac1565b61087f565b005b6002602052805f5260405f205f915054906101000a900460ff1681565b610196610903565b61019f5f61098a565b565b600181815481106101b0575f80fd5b905f5260205f20015f915054906101000a900473ffffffffffffffffffffffffffffffffffffffff1681565b5f5f5f9054906101000a900473ffffffffffffffffffffffffffffffffffffffff16905090565b5f61020c610903565b5f8888888888888860405161022090610a52565b6102309796959493929190610d3f565b604051809103905ff080158015610249573d5f5f3e3d5ffd5b5090508073ffffffffffffffffffffffffffffffffffffffff16632f2ff15d8273ffffffffffffffffffffffffffffffffffffffff1663a217fddf6040518163ffffffff1660e01b8152600401602060405180830381865afa1580156102b1573d5f5f3e3d5ffd5b505050506040513d601f19601f820116820180604052508101906102d59190610dd5565b336040518363ffffffff1660e01b81526004016102f3929190610e0f565b5f604051808303815f87803b15801561030a575f5ffd5b505af115801561031c573d5f5f3e3d5ffd5b505050508073ffffffffffffffffffffffffffffffffffffffff16632f2ff15d8273ffffffffffffffffffffffffffffffffffffffff1663a07023cc6040518163ffffffff1660e01b8152600401602060405180830381865afa158015610385573d5f5f3e3d5ffd5b505050506040513d601f19601f820116820180604052508101906103a99190610dd5565b336040518363ffffffff1660e01b81526004016103c7929190610e0f565b5f604051808303815f87803b1580156103de575f5ffd5b505af11580156103f0573d5f5f3e3d5ffd5b505050508073ffffffffffffffffffffffffffffffffffffffff16632f2ff15d8273ffffffffffffffffffffffffffffffffffffffff1663e63ab1e96040518163ffffffff1660e01b8152600401602060405180830381865afa158015610459573d5f5f3e3d5ffd5b505050506040513d601f19601f8201168201806040525081019061047d9190610dd5565b336040518363ffffffff1660e01b815260040161049b929190610e0f565b5f604051808303815f87803b1580156104b2575f5ffd5b505af11580156104c4573d5f5f3e3d5ffd5b505050508073ffffffffffffffffffffffffffffffffffffffff166336568abe8273ffffffffffffffffffffffffffffffffffffffff1663a07023cc6040518163ffffffff1660e01b8152600401602060405180830381865afa15801561052d573d5f5f3e3d5ffd5b505050506040513d601f19601f820116820180604052508101906105519190610dd5565b306040518363ffffffff1660e01b815260040161056f929190610e0f565b5f604051808303815f87803b158015610586575f5ffd5b505af1158015610598573d5f5f3e3d5ffd5b505050508073ffffffffffffffffffffffffffffffffffffffff166336568abe8273ffffffffffffffffffffffffffffffffffffffff1663e63ab1e96040518163ffffffff1660e01b8152600401602060405180830381865afa158015610601573d5f5f3e3d5ffd5b505050506040513d601f19601f820116820180604052508101906106259190610dd5565b306040518363ffffffff1660e01b8152600401610643929190610e0f565b5f604051808303815f87803b15801561065a575f5ffd5b505af115801561066c573d5f5f3e3d5ffd5b505050508073ffffffffffffffffffffffffffffffffffffffff166336568abe8273ffffffffffffffffffffffffffffffffffffffff1663a217fddf6040518163ffffffff1660e01b8152600401602060405180830381865afa1580156106d5573d5f5f3e3d5ffd5b505050506040513d601f19601f820116820180604052508101906106f99190610dd5565b306040518363ffffffff1660e01b8152600401610717929190610e0f565b5f604051808303815f87803b15801561072e575f5ffd5b505af1158015610740573d5f5f3e3d5ffd5b50505050600181908060018154018082558091505060019003905f5260205f20015f9091909190916101000a81548173ffffffffffffffffffffffffffffffffffffffff021916908373ffffffffffffffffffffffffffffffffffffffff160217905550600160025f8373ffffffffffffffffffffffffffffffffffffffff1673ffffffffffffffffffffffffffffffffffffffff1681526020019081526020015f205f6101000a81548160ff0219169083151502179055508873ffffffffffffffffffffffffffffffffffffffff168173ffffffffffffffffffffffffffffffffffffffff167ffd7439309318fc0abb0976e1dddf30d112c3b5c6f4438cca5ee7f70342f97f598a8a8a8a60405161085c9493929190610e36565b60405180910390a380915050979650505050505050565b5f600180549050905090565b610887610903565b5f73ffffffffffffffffffffffffffffffffffffffff168173ffffffffffffffffffffffffffffffffffffffff16036108f7575f6040517f1e4fbdf70000000000000000000000000000000000000000000000000000000081526004016108ee9190610b8c565b60405180910390fd5b6109008161098a565b50565b61090b610a4b565b73ffffffffffffffffffffffffffffffffffffffff166109296101dc565b73ffffffffffffffffffffffffffffffffffffffff16146109885761094c610a4b565b6040517f118cdaa700000000000000000000000000000000000000000000000000000000815260040161097f9190610b8c565b60405180910390fd5b565b5f5f5f9054906101000a900473ffffffffffffffffffffffffffffffffffffffff169050815f5f6101000a81548173ffffffffffffffffffffffffffffffffffffffff021916908373ffffffffffffffffffffffffffffffffffffffff1602179055508173ffffffffffffffffffffffffffffffffffffffff168173ffffffffffffffffffffffffffffffffffffffff167f8be0079c531659141344cd1fd0a4f28419497f9722a3daafe3b4186f6b6457e060405160405180910390a35050565b5f33905090565b614dd480610e7083390190565b5f5ffd5b5f5ffd5b5f73ffffffffffffffffffffffffffffffffffffffff82169050919050565b5f610a9082610a67565b9050919050565b610aa081610a86565b8114610aaa575f5ffd5b50565b5f81359050610abb81610a97565b92915050565b5f60208284031215610ad657610ad5610a5f565b5b5f610ae384828501610aad565b91505092915050565b5f8115159050919050565b610b0081610aec565b82525050565b5f602082019050610b195f830184610af7565b92915050565b5f819050919050565b610b3181610b1f565b8114610b3b575f5ffd5b50565b5f81359050610b4c81610b28565b92915050565b5f60208284031215610b6757610b66610a5f565b5b5f610b7484828501610b3e565b91505092915050565b610b8681610a86565b82525050565b5f602082019050610b9f5f830184610b7d565b92915050565b5f5ffd5b5f5ffd5b5f5ffd5b5f5f83601f840112610bc657610bc5610ba5565b5b8235905067ffffffffffffffff811115610be357610be2610ba9565b5b602083019150836001820283011115610bff57610bfe610bad565b5b9250929050565b5f5f5f5f5f5f5f60a0888a031215610c2157610c20610a5f565b5b5f610c2e8a828b01610aad565b975050602088013567ffffffffffffffff811115610c4f57610c4e610a63565b5b610c5b8a828b01610bb1565b9650965050604088013567ffffffffffffffff811115610c7e57610c7d610a63565b5b610c8a8a828b01610bb1565b94509450506060610c9d8a828b01610b3e565b9250506080610cae8a828b01610b3e565b91505092959891949750929550565b610cc681610b1f565b82525050565b5f602082019050610cdf5f830184610cbd565b92915050565b5f82825260208201905092915050565b828183375f83830152505050565b5f601f19601f8301169050919050565b5f610d1e8385610ce5565b9350610d2b838584610cf5565b610d3483610d03565b840190509392505050565b5f60a082019050610d525f83018a610b7d565b8181036020830152610d6581888a610d13565b90508181036040830152610d7a818688610d13565b9050610d896060830185610cbd565b610d966080830184610cbd565b98975050505050505050565b5f819050919050565b610db481610da2565b8114610dbe575f5ffd5b50565b5f81519050610dcf81610dab565b92915050565b5f60208284031215610dea57610de9610a5f565b5b5f610df784828501610dc1565b91505092915050565b610e0981610da2565b82525050565b5f604082019050610e225f830185610e00565b610e2f6020830184610b7d565b9392505050565b5f6040820190508181035f830152610e4f818688610d13565b90508181036020830152610e64818486610d13565b90509594505050505056fe60e06040526103e8600e55348015610015575f5ffd5b50604051614dd4380380614dd4833981810160405281019061003791906105d9565b848484816003908161004991906108a0565b50806004908161005991906108a0565b5050505f5f61006d8361019a60201b60201c565b915091508161007d57601261007f565b805b60ff1660a08160ff16815250508273ffffffffffffffffffffffffffffffffffffffff1660808173ffffffffffffffffffffffffffffffffffffffff16815250505050505f8211610105576040517f08c379a00000000000000000000000000000000000000000000000000000000081526004016100fc906109c9565b60405180910390fd5b81600781905550426008819055508060c0818152505061012d5f5f1b3361026660201b60201c565b5061015e7ff69ff10a3df3288bad92772f5c483e526b0c6cf77ac120db1f6c7bf1a45540df3361026660201b60201c565b5061018f7f65d7a28e3265b37a6474929f336521b332c1681b933f6cb9f3376673440d862a3361026660201b60201c565b5050505050506109e7565b5f5f5f6101ab61035c60201b60201c565b90505f5f6102098660405160240160405160208183030381529060405263313ce56760e01b6020820180517bffffffffffffffffffffffffffffffffffffffffffffffffffffffff838183161783525050505061036560201b60201c565b509150915061021d8361038660201b60201c565b8180156102385750602061023561038d60201b60201c565b10155b8015610249575060ff8016815f1c11155b610254575f5f61025a565b6001815f1c5b94509450505050915091565b5f610277838361039460201b60201c565b61035257600160055f8581526020019081526020015f205f015f8473ffffffffffffffffffffffffffffffffffffffff1673ffffffffffffffffffffffffffffffffffffffff1681526020019081526020015f205f6101000a81548160ff0219169083151502179055506102ef6103f860201b60201c565b73ffffffffffffffffffffffffffffffffffffffff168273ffffffffffffffffffffffffffffffffffffffff16847f2f8788117e7eff1d82e926ec794901d17c78024a50270940304540a733656f0d60405160405180910390a460019050610356565b5f90505b92915050565b5f604051905090565b5f5f5f60405f855160208701885afa92505f51915060205190509250925092565b8060405250565b5f3d905090565b5f60055f8481526020019081526020015f205f015f8373ffffffffffffffffffffffffffffffffffffffff1673ffffffffffffffffffffffffffffffffffffffff1681526020019081526020015f205f9054906101000a900460ff16905092915050565b5f33905090565b5f604051905090565b5f5ffd5b5f5ffd5b5f73ffffffffffffffffffffffffffffffffffffffff82169050919050565b5f61043982610410565b9050919050565b6104498161042f565b8114610453575f5ffd5b50565b5f8151905061046481610440565b92915050565b5f5ffd5b5f5ffd5b5f601f19601f8301169050919050565b7f4e487b71000000000000000000000000000000000000000000000000000000005f52604160045260245ffd5b6104b882610472565b810181811067ffffffffffffffff821117156104d7576104d6610482565b5b80604052505050565b5f6104e96103ff565b90506104f582826104af565b919050565b5f67ffffffffffffffff82111561051457610513610482565b5b61051d82610472565b9050602081019050919050565b8281835e5f83830152505050565b5f61054a610545846104fa565b6104e0565b9050828152602081018484840111156105665761056561046e565b5b61057184828561052a565b509392505050565b5f82601f83011261058d5761058c61046a565b5b815161059d848260208601610538565b91505092915050565b5f819050919050565b6105b8816105a6565b81146105c2575f5ffd5b50565b5f815190506105d3816105af565b92915050565b5f5f5f5f5f60a086880312156105f2576105f1610408565b5b5f6105ff88828901610456565b955050602086015167ffffffffffffffff8111156106205761061f61040c565b5b61062c88828901610579565b945050604086015167ffffffffffffffff81111561064d5761064c61040c565b5b61065988828901610579565b935050606061066a888289016105c5565b925050608061067b888289016105c5565b9150509295509295909350565b5f81519050919050565b7f4e487b71000000000000000000000000000000000000000000000000000000005f52602260045260245ffd5b5f60028204905060018216806106d657607f821691505b6020821081036106e9576106e8610692565b5b50919050565b5f819050815f5260205f209050919050565b5f6020601f8301049050919050565b5f82821b905092915050565b5f6008830261074b7fffffffffffffffffffffffffffffffffffffffffffffffffffffffffffffffff82610710565b6107558683610710565b95508019841693508086168417925050509392505050565b5f819050919050565b5f61079061078b610786846105a6565b61076d565b6105a6565b9050919050565b5f819050919050565b6107a983610776565b6107bd6107b582610797565b84845461071c565b825550505050565b5f5f905090565b6107d46107c5565b6107df8184846107a0565b505050565b5f5b82811015610805576107fa5f8284016107cc565b6001810190506107e6565b505050565b601f821115610858578282111561085757610824816106ef565b61082d83610701565b61083685610701565b6020861015610843575f90505b808301610852828403826107e4565b505050505b5b505050565b5f82821c905092915050565b5f6108785f198460080261085d565b1980831691505092915050565b5f6108908383610869565b9150826002028217905092915050565b6108a982610688565b67ffffffffffffffff8111156108c2576108c1610482565b5b6108cc82546106bf565b6108d782828561080a565b5f60209050601f831160018114610908575f84156108f6578287015190505b6109008582610885565b865550610967565b601f198416610916866106ef565b5f5b8281101561093d57848901518255600182019150602085019450602081019050610918565b8683101561095a5784890151610956601f891682610869565b8355505b6001600288020188555050505b505050505050565b5f82825260208201905092915050565b7f46756e645661756c743a206e6176206d757374206265203e20300000000000005f82015250565b5f6109b3601a8361096f565b91506109be8261097f565b602082019050919050565b5f6020820190508181035f8301526109e0816109a7565b9050919050565b60805160a05160c0516143b5610a1f5f395f81816114bd01528181611aaa0152612acc01525f6110ec01525f61119801526143b55ff3fe608060405234801561000f575f5ffd5b50600436106103a2575f3560e01c806376082a5e116101e7578063ba0876521161010d578063dd62ed3e116100ab578063ec16d0761161007a578063ec16d07614610b64578063eec6d19a14610b82578063ef8b30f714610b9e578063fc11cdd614610bce576103a2565b8063dd62ed3e14610adc578063e1e158a514610b0c578063e63ab1e914610b2a578063e767397c14610b48576103a2565b8063ce96cb77116100e7578063ce96cb7714610a42578063d52f55cc14610a72578063d547741f14610a90578063d905777e14610aac576103a2565b8063ba087652146109b2578063c63d75b6146109e2578063c6e6f59214610a12576103a2565b8063a217fddf11610185578063ae09722311610154578063ae09722314610916578063aef7226614610934578063b3d7f6b914610952578063b460af9414610982576103a2565b8063a217fddf14610890578063a9059cbb146108ae578063aa2f892d146108de578063adc565e1146108fa576103a2565b806391d14854116101c157806391d14854146107f457806394bf804d1461082457806395d89b4114610854578063a07023cc14610872576103a2565b806376082a5e146107c25780637f2d9575146107e05780638456cb59146107ea576103a2565b8063313ce567116102cc57806348fb77d91161026a5780635e4a9a65116102395780635e4a9a65146107125780636e553f65146107445780637070e2b41461077457806370a0823114610792576103a2565b806348fb77d9146106885780634cdad506146106a65780635c975abb146106d65780635d20bbcb146106f4576103a2565b80633f4ba83a116102a65780633f4ba83a14610614578063402d267d1461061e57806344c33b4c1461064e57806345b9cdf71461066a576103a2565b8063313ce567146105bc57806336568abe146105da57806338d52e0f146105f6576103a2565b80630a28a4771161034457806323b872dd1161031357806323b872dd14610522578063248a9ca3146105525780632696b7e0146105825780632f2ff15d146105a0576103a2565b80630a28a4771461049a5780630cb1982b146104ca57806318160ddd146104e65780632289445e14610504576103a2565b80630607e5bb116103805780630607e5bb146103fe57806306fdde031461041c57806307a2d13a1461043a578063095ea7b31461046a576103a2565b806301e1d114146103a657806301ffc9a7146103c457806303ba4c44146103f4575b5f5ffd5b6103ae610bec565b6040516103bb919061340e565b60405180910390f35b6103de60048036038101906103d99190613480565b610c93565b6040516103eb91906134c5565b60405180910390f35b6103fc610d0c565b005b610406610eb1565b604051610413919061351d565b60405180910390f35b610424610ed6565b60405161043191906135a6565b60405180910390f35b610454600480360381019061044f91906135f0565b610f66565b604051610461919061340e565b60405180910390f35b610484600480360381019061047f9190613645565b610fd6565b60405161049191906134c5565b60405180910390f35b6104b460048036038101906104af91906135f0565b610ff8565b6040516104c1919061340e565b60405180910390f35b6104e460048036038101906104df91906135f0565b611009565b005b6104ee611040565b6040516104fb919061340e565b60405180910390f35b61050c611049565b604051610519919061351d565b60405180910390f35b61053c60048036038101906105379190613683565b61106e565b60405161054991906134c5565b60405180910390f35b61056c60048036038101906105679190613706565b61109c565b6040516105799190613740565b60405180910390f35b61058a6110b9565b604051610597919061340e565b60405180910390f35b6105ba60048036038101906105b59190613759565b6110bf565b005b6105c46110e1565b6040516105d191906137b2565b60405180910390f35b6105f460048036038101906105ef9190613759565b61111a565b005b6105fe611195565b60405161060b919061351d565b60405180910390f35b61061c6111bc565b005b610638600480360381019061063391906137cb565b6111f1565b604051610645919061340e565b60405180910390f35b610668600480360381019061066391906137cb565b61121a565b005b6106726114b4565b60405161067f919061340e565b60405180910390f35b6106906114bb565b60405161069d919061340e565b60405180910390f35b6106c060048036038101906106bb91906135f0565b6114df565b6040516106cd919061340e565b60405180910390f35b6106de6114f0565b6040516106eb91906134c5565b60405180910390f35b6106fc611505565b604051610709919061340e565b60405180910390f35b61072c600480360381019061072791906137cb565b61150b565b60405161073b939291906137f6565b60405180910390f35b61075e6004803603810190610759919061382b565b611531565b60405161076b919061340e565b60405180910390f35b61077c6115b1565b604051610789919061340e565b60405180910390f35b6107ac60048036038101906107a791906137cb565b6115b7565b6040516107b9919061340e565b60405180910390f35b6107ca6115fc565b6040516107d79190613740565b60405180910390f35b6107e8611620565b005b6107f26118ab565b005b61080e60048036038101906108099190613759565b6118e0565b60405161081b91906134c5565b60405180910390f35b61083e6004803603810190610839919061382b565b611944565b60405161084b919061340e565b60405180910390f35b61085c6119c4565b60405161086991906135a6565b60405180910390f35b61087a611a54565b6040516108879190613740565b60405180910390f35b610898611a78565b6040516108a59190613740565b60405180910390f35b6108c860048036038101906108c39190613645565b611a7e565b6040516108d591906134c5565b60405180910390f35b6108f860048036038101906108f391906135f0565b611aa0565b005b610914600480360381019061090f91906137cb565b611daf565b005b61091e611ed2565b60405161092b919061340e565b60405180910390f35b61093c611ed8565b604051610949919061340e565b60405180910390f35b61096c600480360381019061096791906135f0565b611ede565b604051610979919061340e565b60405180910390f35b61099c60048036038101906109979190613869565b611eef565b6040516109a9919061340e565b60405180910390f35b6109cc60048036038101906109c79190613869565b611f71565b6040516109d9919061340e565b60405180910390f35b6109fc60048036038101906109f791906137cb565b611ff3565b604051610a09919061340e565b60405180910390f35b610a2c6004803603810190610a2791906135f0565b61201c565b604051610a39919061340e565b60405180910390f35b610a5c6004803603810190610a5791906137cb565b61208c565b604051610a69919061340e565b60405180910390f35b610a7a6120a5565b604051610a87919061340e565b60405180910390f35b610aaa6004803603810190610aa59190613759565b6120ab565b005b610ac66004803603810190610ac191906137cb565b6120cd565b604051610ad3919061340e565b60405180910390f35b610af66004803603810190610af191906138b9565b6120de565b604051610b03919061340e565b60405180910390f35b610b14612160565b604051610b21919061340e565b60405180910390f35b610b32612164565b604051610b3f9190613740565b60405180910390f35b610b626004803603810190610b5d91906135f0565b612188565b005b610b6c612226565b604051610b79919061340e565b60405180910390f35b610b9c6004803603810190610b9791906137cb565b61222a565b005b610bb86004803603810190610bb391906135f0565b612452565b604051610bc5919061340e565b60405180910390f35b610bd6612463565b604051610be3919061340e565b60405180910390f35b5f5f610bf6611195565b73ffffffffffffffffffffffffffffffffffffffff166370a08231306040518263ffffffff1660e01b8152600401610c2e919061351d565b602060405180830381865afa158015610c49573d5f5f3e3d5ffd5b505050506040513d601f19601f82011682018060405250810190610c6d919061390b565b9050600d548111610c7e575f610c8d565b600d5481610c8c9190613963565b5b91505090565b5f7f7965db0b000000000000000000000000000000000000000000000000000000007bffffffffffffffffffffffffffffffffffffffffffffffffffffffff1916827bffffffffffffffffffffffffffffffffffffffffffffffffffffffff19161480610d055750610d0482612469565b5b9050919050565b5f600c5f3373ffffffffffffffffffffffffffffffffffffffff1673ffffffffffffffffffffffffffffffffffffffff1681526020019081526020015f206040518060600160405290815f82015481526020016001820154815260200160028201548152505090505f815f015111610db9576040517f08c379a0000000000000000000000000000000000000000000000000000000008152600401610db0906139e0565b60405180910390fd5b5f670de0b6b3a76400008260200151835f0151610dd691906139fe565b610de09190613a6c565b905080600d5f828254610df39190613963565b92505081905550600c5f3373ffffffffffffffffffffffffffffffffffffffff1673ffffffffffffffffffffffffffffffffffffffff1681526020019081526020015f205f5f82015f9055600182015f9055600282015f90555050610e5c3033845f01516124d2565b3373ffffffffffffffffffffffffffffffffffffffff167f9aec5cafc1451c1485e4a0099bd4dfb4c9d2bb972b4e5c798da07db8323deaa3835f0151604051610ea5919061340e565b60405180910390a25050565b60095f9054906101000a900473ffffffffffffffffffffffffffffffffffffffff1681565b606060038054610ee590613ac9565b80601f0160208091040260200160405190810160405280929190818152602001828054610f1190613ac9565b8015610f5c5780601f10610f3357610100808354040283529160200191610f5c565b820191905f5260205f20905b815481529060010190602001808311610f3f57829003601f168201915b5050505050905090565b5f5f60075490505f8111610faf576040517f08c379a0000000000000000000000000000000000000000000000000000000008152600401610fa690613b43565b60405180910390fd5b670de0b6b3a76400008184610fc491906139fe565b610fce9190613a6c565b915050919050565b5f5f610fe06125c2565b9050610fed8185856125c9565b600191505092915050565b5f6110028261201c565b9050919050565b7ff69ff10a3df3288bad92772f5c483e526b0c6cf77ac120db1f6c7bf1a45540df611033816125db565b61103c826125ef565b5050565b5f600254905090565b600a5f9054906101000a900473ffffffffffffffffffffffffffffffffffffffff1681565b5f5f6110786125c2565b9050611085858285612720565b6110908585856124d2565b60019150509392505050565b5f60055f8381526020019081526020015f20600101549050919050565b61012c81565b6110c88261109c565b6110d1816125db565b6110db83836127b3565b50505050565b5f6110ea61289d565b7f00000000000000000000000000000000000000000000000000000000000000006111159190613b61565b905090565b6111226125c2565b73ffffffffffffffffffffffffffffffffffffffff168173ffffffffffffffffffffffffffffffffffffffff1614611186576040517f6697b23200000000000000000000000000000000000000000000000000000000815260040160405180910390fd5b61119082826128a5565b505050565b5f7f0000000000000000000000000000000000000000000000000000000000000000905090565b7f65d7a28e3265b37a6474929f336521b332c1681b933f6cb9f3376673440d862a6111e6816125db565b6111ee61298f565b50565b5f7fffffffffffffffffffffffffffffffffffffffffffffffffffffffffffffffff9050919050565b7ff69ff10a3df3288bad92772f5c483e526b0c6cf77ac120db1f6c7bf1a45540df611244816125db565b5f600c5f8473ffffffffffffffffffffffffffffffffffffffff1673ffffffffffffffffffffffffffffffffffffffff1681526020019081526020015f206040518060600160405290815f82015481526020016001820154815260200160028201548152505090505f815f0151116112f1576040517f08c379a00000000000000000000000000000000000000000000000000000000081526004016112e8906139e0565b60405180910390fd5b61012c81604001516113039190613b95565b421015611345576040517f08c379a000000000000000000000000000000000000000000000000000000000815260040161133c90613c12565b60405180910390fd5b5f670de0b6b3a76400008260200151835f015161136291906139fe565b61136c9190613a6c565b90505f81116113b0576040517f08c379a00000000000000000000000000000000000000000000000000000000081526004016113a790613c7a565b60405180910390fd5b80600d5f8282546113c19190613963565b92505081905550600c5f8573ffffffffffffffffffffffffffffffffffffffff1673ffffffffffffffffffffffffffffffffffffffff1681526020019081526020015f205f5f82015f9055600182015f9055600282015f9055505061142930835f01516129f0565b61145b8482611436611195565b73ffffffffffffffffffffffffffffffffffffffff16612a6f9092919063ffffffff16565b8373ffffffffffffffffffffffffffffffffffffffff167fd102e8852f4a66ebe22d1d0d84b30e1e4660b1966bd4b870c08bcec012f98abb835f0151836040516114a6929190613c98565b60405180910390a250505050565b6201518081565b7f000000000000000000000000000000000000000000000000000000000000000081565b5f6114e982610f66565b9050919050565b5f60065f9054906101000a900460ff16905090565b6103e881565b600c602052805f5260405f205f91509050805f0154908060010154908060020154905083565b5f5f61153c836111f1565b905080841115611587578284826040517f79012fb200000000000000000000000000000000000000000000000000000000815260040161157e93929190613cbf565b60405180910390fd5b5f61159185612452565b90506115a661159e6125c2565b858784612ac2565b809250505092915050565b600b5481565b5f5f5f8373ffffffffffffffffffffffffffffffffffffffff1673ffffffffffffffffffffffffffffffffffffffff1681526020019081526020015f20549050919050565b7fb165298935924f540e4181c03493a5d686c54a0aaeb3f6216de85b7ffbba773881565b5f73ffffffffffffffffffffffffffffffffffffffff1660095f9054906101000a900473ffffffffffffffffffffffffffffffffffffffff1673ffffffffffffffffffffffffffffffffffffffff16036116af576040517f08c379a00000000000000000000000000000000000000000000000000000000081526004016116a690613d3e565b60405180910390fd5b600b544210156116f4576040517f08c379a00000000000000000000000000000000000000000000000000000000081526004016116eb90613da6565b60405180910390fd5b5f60095f9054906101000a900473ffffffffffffffffffffffffffffffffffffffff1690505f60095f6101000a81548173ffffffffffffffffffffffffffffffffffffffff021916908373ffffffffffffffffffffffffffffffffffffffff1602179055505f73ffffffffffffffffffffffffffffffffffffffff16600a5f9054906101000a900473ffffffffffffffffffffffffffffffffffffffff1673ffffffffffffffffffffffffffffffffffffffff16146117fa576117f87ff69ff10a3df3288bad92772f5c483e526b0c6cf77ac120db1f6c7bf1a45540df600a5f9054906101000a900473ffffffffffffffffffffffffffffffffffffffff166128a5565b505b80600a5f6101000a81548173ffffffffffffffffffffffffffffffffffffffff021916908373ffffffffffffffffffffffffffffffffffffffff1602179055506118647ff69ff10a3df3288bad92772f5c483e526b0c6cf77ac120db1f6c7bf1a45540df826127b3565b508073ffffffffffffffffffffffffffffffffffffffff167f6441767b1c31b00c1dddc4705a7d74eeed8b80cd113fa408e13df67daa152dea60405160405180910390a250565b7f65d7a28e3265b37a6474929f336521b332c1681b933f6cb9f3376673440d862a6118d5816125db565b6118dd612c60565b50565b5f60055f8481526020019081526020015f205f015f8373ffffffffffffffffffffffffffffffffffffffff1673ffffffffffffffffffffffffffffffffffffffff1681526020019081526020015f205f9054906101000a900460ff16905092915050565b5f5f61194f83611ff3565b90508084111561199a578284826040517f284ff66700000000000000000000000000000000000000000000000000000000815260040161199193929190613cbf565b60405180910390fd5b5f6119a485611ede565b90506119b96119b16125c2565b858388612ac2565b809250505092915050565b6060600480546119d390613ac9565b80601f01602080910402602001604051908101604052809291908181526020018280546119ff90613ac9565b8015611a4a5780601f10611a2157610100808354040283529160200191611a4a565b820191905f5260205f20905b815481529060010190602001808311611a2d57829003601f168201915b5050505050905090565b7ff69ff10a3df3288bad92772f5c483e526b0c6cf77ac120db1f6c7bf1a45540df81565b5f5f1b81565b5f5f611a886125c2565b9050611a958185856124d2565b600191505092915050565b611aa8612cc2565b7f000000000000000000000000000000000000000000000000000000000000000060085442611ad79190613963565b1115611b18576040517f08c379a0000000000000000000000000000000000000000000000000000000008152600401611b0f90613e0e565b60405180910390fd5b5f8111611b5a576040517f08c379a0000000000000000000000000000000000000000000000000000000008152600401611b5190613e76565b60405180910390fd5b5f600c5f3373ffffffffffffffffffffffffffffffffffffffff1673ffffffffffffffffffffffffffffffffffffffff1681526020019081526020015f205f015414611bdb576040517f08c379a0000000000000000000000000000000000000000000000000000000008152600401611bd290613ede565b60405180910390fd5b80611be5336115b7565b1015611c26576040517f08c379a0000000000000000000000000000000000000000000000000000000008152600401611c1d90613f46565b60405180910390fd5b5f611c2f611040565b90505f811480611c595750612710600e5482611c4b91906139fe565b611c559190613a6c565b8211155b611c98576040517f08c379a0000000000000000000000000000000000000000000000000000000008152600401611c8f90613fae565b60405180910390fd5b5f670de0b6b3a764000060075484611cb091906139fe565b611cba9190613a6c565b905080600d5f828254611ccd9190613b95565b92505081905550611cdf3330856124d2565b6040518060600160405280848152602001600754815260200142815250600c5f3373ffffffffffffffffffffffffffffffffffffffff1673ffffffffffffffffffffffffffffffffffffffff1681526020019081526020015f205f820151815f015560208201518160010155604082015181600201559050503373ffffffffffffffffffffffffffffffffffffffff167f46949ee51143d5b58e4df83122d6c382a04f7bffbe563f78cd7fa61ee519ec0884600754604051611da2929190613c98565b60405180910390a2505050565b5f5f1b611dbb816125db565b5f73ffffffffffffffffffffffffffffffffffffffff168273ffffffffffffffffffffffffffffffffffffffff1603611e29576040517f08c379a0000000000000000000000000000000000000000000000000000000008152600401611e2090614016565b60405180910390fd5b8160095f6101000a81548173ffffffffffffffffffffffffffffffffffffffff021916908373ffffffffffffffffffffffffffffffffffffffff1602179055506201518042611e789190613b95565b600b819055508173ffffffffffffffffffffffffffffffffffffffff167ff87ff972014a6a542520a6e3b690c38076efdb1082bae938540b186c45510900600b54604051611ec6919061340e565b60405180910390a25050565b60075481565b600d5481565b5f611ee882610f66565b9050919050565b5f5f611efa8361208c565b905080851115611f45578285826040517ffe9cceec000000000000000000000000000000000000000000000000000000008152600401611f3c93929190613cbf565b60405180910390fd5b5f611f4f86610ff8565b9050611f65611f5c6125c2565b86868985612d03565b80925050509392505050565b5f5f611f7c836120cd565b905080851115611fc7578285826040517fb94abeec000000000000000000000000000000000000000000000000000000008152600401611fbe93929190613cbf565b60405180910390fd5b5f611fd1866114df565b9050611fe7611fde6125c2565b8686848a612d03565b80925050509392505050565b5f7fffffffffffffffffffffffffffffffffffffffffffffffffffffffffffffffff9050919050565b5f5f60075490505f8111612065576040517f08c379a000000000000000000000000000000000000000000000000000000000815260040161205c90613b43565b60405180910390fd5b80670de0b6b3a76400008461207a91906139fe565b6120849190613a6c565b915050919050565b5f61209e612099836120cd565b6114df565b9050919050565b600e5481565b6120b48261109c565b6120bd816125db565b6120c783836128a5565b50505050565b5f6120d7826115b7565b9050919050565b5f60015f8473ffffffffffffffffffffffffffffffffffffffff1673ffffffffffffffffffffffffffffffffffffffff1681526020019081526020015f205f8373ffffffffffffffffffffffffffffffffffffffff1673ffffffffffffffffffffffffffffffffffffffff1681526020019081526020015f2054905092915050565b5f81565b7f65d7a28e3265b37a6474929f336521b332c1681b933f6cb9f3376673440d862a81565b5f5f1b612194816125db565b5f821180156121a557506127108211155b6121e4576040517f08c379a00000000000000000000000000000000000000000000000000000000081526004016121db9061407e565b60405180910390fd5b81600e819055507f91cdc265d5033ef80a03651bd13b4be0871de7f78dd04b211a394717d77163ef8260405161221a919061340e565b60405180910390a15050565b5f81565b5f5f1b612236816125db565b5f600c5f8473ffffffffffffffffffffffffffffffffffffffff1673ffffffffffffffffffffffffffffffffffffffff1681526020019081526020015f206040518060600160405290815f82015481526020016001820154815260200160028201548152505090505f815f0151116122e3576040517f08c379a00000000000000000000000000000000000000000000000000000000081526004016122da906139e0565b60405180910390fd5b5f670de0b6b3a76400008260200151835f015161230091906139fe565b61230a9190613a6c565b90505f811161234e576040517f08c379a000000000000000000000000000000000000000000000000000000000815260040161234590613c7a565b60405180910390fd5b80600d5f82825461235f9190613963565b92505081905550600c5f8573ffffffffffffffffffffffffffffffffffffffff1673ffffffffffffffffffffffffffffffffffffffff1681526020019081526020015f205f5f82015f9055600182015f9055600282015f905550506123c730835f01516129f0565b6123f984826123d4611195565b73ffffffffffffffffffffffffffffffffffffffff16612a6f9092919063ffffffff16565b8373ffffffffffffffffffffffffffffffffffffffff167fd102e8852f4a66ebe22d1d0d84b30e1e4660b1966bd4b870c08bcec012f98abb835f015183604051612444929190613c98565b60405180910390a250505050565b5f61245c8261201c565b9050919050565b60085481565b5f7f01ffc9a7000000000000000000000000000000000000000000000000000000007bffffffffffffffffffffffffffffffffffffffffffffffffffffffff1916827bffffffffffffffffffffffffffffffffffffffffffffffffffffffff1916149050919050565b5f73ffffffffffffffffffffffffffffffffffffffff168373ffffffffffffffffffffffffffffffffffffffff1603612542575f6040517f96c6fd1e000000000000000000000000000000000000000000000000000000008152600401612539919061351d565b60405180910390fd5b5f73ffffffffffffffffffffffffffffffffffffffff168273ffffffffffffffffffffffffffffffffffffffff16036125b2575f6040517fec442f050000000000000000000000000000000000000000000000000000000081526004016125a9919061351d565b60405180910390fd5b6125bd838383612d3e565b505050565b5f33905090565b6125d68383836001612f57565b505050565b6125ec816125e76125c2565b613126565b50565b5f8111612631576040517f08c379a0000000000000000000000000000000000000000000000000000000008152600401612628906140e6565b60405180910390fd5b5f60075490505f8183116126685781612710848461264f9190613963565b61265991906139fe565b6126639190613a6c565b61268d565b8161271083856126789190613963565b61268291906139fe565b61268c9190613a6c565b5b90506103e88111156126d4576040517f08c379a00000000000000000000000000000000000000000000000000000000081526004016126cb9061414e565b60405180910390fd5b82600781905550426008819055507f224bbf4ba043354bee6487d05aa90892db4426afe8e3aa79007d0eae1b985ebc8342604051612713929190613c98565b60405180910390a1505050565b5f61272b84846120de565b90507fffffffffffffffffffffffffffffffffffffffffffffffffffffffffffffffff8110156127ad578181101561279e578281836040517ffb8f41b200000000000000000000000000000000000000000000000000000000815260040161279593929190613cbf565b60405180910390fd5b6127ac84848484035f612f57565b5b50505050565b5f6127be83836118e0565b61289357600160055f8581526020019081526020015f205f015f8473ffffffffffffffffffffffffffffffffffffffff1673ffffffffffffffffffffffffffffffffffffffff1681526020019081526020015f205f6101000a81548160ff0219169083151502179055506128306125c2565b73ffffffffffffffffffffffffffffffffffffffff168273ffffffffffffffffffffffffffffffffffffffff16847f2f8788117e7eff1d82e926ec794901d17c78024a50270940304540a733656f0d60405160405180910390a460019050612897565b5f90505b92915050565b5f600c905090565b5f6128b083836118e0565b15612985575f60055f8581526020019081526020015f205f015f8473ffffffffffffffffffffffffffffffffffffffff1673ffffffffffffffffffffffffffffffffffffffff1681526020019081526020015f205f6101000a81548160ff0219169083151502179055506129226125c2565b73ffffffffffffffffffffffffffffffffffffffff168273ffffffffffffffffffffffffffffffffffffffff16847ff6391f5c32d9c69d2a47ea670b442974b53935d1edc7fd64eb21e047a839171b60405160405180910390a460019050612989565b5f90505b92915050565b612997613177565b5f60065f6101000a81548160ff0219169083151502179055507f5db9ee0a495bf2e6ff9c91a7834c1ba4fdd244a5e8aa4e537bd38aeae4b073aa6129d96125c2565b6040516129e6919061351d565b60405180910390a1565b5f73ffffffffffffffffffffffffffffffffffffffff168273ffffffffffffffffffffffffffffffffffffffff1603612a60575f6040517f96c6fd1e000000000000000000000000000000000000000000000000000000008152600401612a57919061351d565b60405180910390fd5b612a6b825f83612d3e565b5050565b612a7c83838360016131b7565b612abd57826040517f5274afe7000000000000000000000000000000000000000000000000000000008152600401612ab4919061351d565b60405180910390fd5b505050565b612aca612cc2565b7f000000000000000000000000000000000000000000000000000000000000000060085442612af99190613963565b1115612b3a576040517f08c379a0000000000000000000000000000000000000000000000000000000008152600401612b3190613e0e565b60405180910390fd5b5f8211612b7c576040517f08c379a0000000000000000000000000000000000000000000000000000000008152600401612b73906141b6565b60405180910390fd5b612ba67fb165298935924f540e4181c03493a5d686c54a0aaeb3f6216de85b7ffbba7738856118e0565b612be5576040517f08c379a0000000000000000000000000000000000000000000000000000000008152600401612bdc90614244565b60405180910390fd5b612c0f7fb165298935924f540e4181c03493a5d686c54a0aaeb3f6216de85b7ffbba7738846118e0565b612c4e576040517f08c379a0000000000000000000000000000000000000000000000000000000008152600401612c45906142d2565b60405180910390fd5b612c5a84848484613219565b50505050565b612c68612cc2565b600160065f6101000a81548160ff0219169083151502179055507f62e78cea01bee320cd4e420270b5ea74000d11b0c9f74754ebdbfc544b05a258612cab6125c2565b604051612cb8919061351d565b60405180910390a1565b612cca6114f0565b15612d01576040517fd93c066500000000000000000000000000000000000000000000000000000000815260040160405180910390fd5b565b6040517f08c379a0000000000000000000000000000000000000000000000000000000008152600401612d359061433a565b60405180910390fd5b5f73ffffffffffffffffffffffffffffffffffffffff168373ffffffffffffffffffffffffffffffffffffffff1603612d8e578060025f828254612d829190613b95565b92505081905550612e5c565b5f5f5f8573ffffffffffffffffffffffffffffffffffffffff1673ffffffffffffffffffffffffffffffffffffffff1681526020019081526020015f2054905081811015612e17578381836040517fe450d38c000000000000000000000000000000000000000000000000000000008152600401612e0e93929190613cbf565b60405180910390fd5b8181035f5f8673ffffffffffffffffffffffffffffffffffffffff1673ffffffffffffffffffffffffffffffffffffffff1681526020019081526020015f2081905550505b5f73ffffffffffffffffffffffffffffffffffffffff168273ffffffffffffffffffffffffffffffffffffffff1603612ea3578060025f8282540392505081905550612eed565b805f5f8473ffffffffffffffffffffffffffffffffffffffff1673ffffffffffffffffffffffffffffffffffffffff1681526020019081526020015f205f82825401925050819055505b8173ffffffffffffffffffffffffffffffffffffffff168373ffffffffffffffffffffffffffffffffffffffff167fddf252ad1be2c89b69c2b068fc378daa952ba7f163c4a11628f55a4df523b3ef83604051612f4a919061340e565b60405180910390a3505050565b5f73ffffffffffffffffffffffffffffffffffffffff168473ffffffffffffffffffffffffffffffffffffffff1603612fc7575f6040517fe602df05000000000000000000000000000000000000000000000000000000008152600401612fbe919061351d565b60405180910390fd5b5f73ffffffffffffffffffffffffffffffffffffffff168373ffffffffffffffffffffffffffffffffffffffff1603613037575f6040517f94280d6200000000000000000000000000000000000000000000000000000000815260040161302e919061351d565b60405180910390fd5b8160015f8673ffffffffffffffffffffffffffffffffffffffff1673ffffffffffffffffffffffffffffffffffffffff1681526020019081526020015f205f8573ffffffffffffffffffffffffffffffffffffffff1673ffffffffffffffffffffffffffffffffffffffff1681526020019081526020015f20819055508015613120578273ffffffffffffffffffffffffffffffffffffffff168473ffffffffffffffffffffffffffffffffffffffff167f8c5be1e5ebec7d5bd14f71427d1e84f3dd0314c0f7b2291e5b200ac8c7c3b92584604051613117919061340e565b60405180910390a35b50505050565b61313082826118e0565b6131735780826040517fe2517d3f00000000000000000000000000000000000000000000000000000000815260040161316a929190614358565b60405180910390fd5b5050565b61317f6114f0565b6131b5576040517f8dfc202b00000000000000000000000000000000000000000000000000000000815260040160405180910390fd5b565b5f5f63a9059cbb60e01b9050604051815f525f1960601c86166004528460245260205f60445f5f8b5af1925060015f5114831661320b5783831516156131ff573d5f823e3d81fd5b5f873b113d1516831692505b806040525050949350505050565b613223848361329a565b61322d83826132b1565b8273ffffffffffffffffffffffffffffffffffffffff168473ffffffffffffffffffffffffffffffffffffffff167fdcbc1c05240f31ff3ad067ef1ee35ce4997762752e3a095284754544f4c709d7848460405161328c929190613c98565b60405180910390a350505050565b6132ad6132a5611195565b833084613330565b5050565b5f73ffffffffffffffffffffffffffffffffffffffff168273ffffffffffffffffffffffffffffffffffffffff1603613321575f6040517fec442f05000000000000000000000000000000000000000000000000000000008152600401613318919061351d565b60405180910390fd5b61332c5f8383612d3e565b5050565b61333e848484846001613385565b61337f57836040517f5274afe7000000000000000000000000000000000000000000000000000000008152600401613376919061351d565b60405180910390fd5b50505050565b5f5f6323b872dd60e01b9050604051815f525f1960601c87166004525f1960601c86166024528460445260205f60645f5f8c5af1925060015f511483166133e35783831516156133d7573d5f823e3d81fd5b5f883b113d1516831692505b806040525f606052505095945050505050565b5f819050919050565b613408816133f6565b82525050565b5f6020820190506134215f8301846133ff565b92915050565b5f5ffd5b5f7fffffffff0000000000000000000000000000000000000000000000000000000082169050919050565b61345f8161342b565b8114613469575f5ffd5b50565b5f8135905061347a81613456565b92915050565b5f6020828403121561349557613494613427565b5b5f6134a28482850161346c565b91505092915050565b5f8115159050919050565b6134bf816134ab565b82525050565b5f6020820190506134d85f8301846134b6565b92915050565b5f73ffffffffffffffffffffffffffffffffffffffff82169050919050565b5f613507826134de565b9050919050565b613517816134fd565b82525050565b5f6020820190506135305f83018461350e565b92915050565b5f81519050919050565b5f82825260208201905092915050565b8281835e5f83830152505050565b5f601f19601f8301169050919050565b5f61357882613536565b6135828185613540565b9350613592818560208601613550565b61359b8161355e565b840191505092915050565b5f6020820190508181035f8301526135be818461356e565b905092915050565b6135cf816133f6565b81146135d9575f5ffd5b50565b5f813590506135ea816135c6565b92915050565b5f6020828403121561360557613604613427565b5b5f613612848285016135dc565b91505092915050565b613624816134fd565b811461362e575f5ffd5b50565b5f8135905061363f8161361b565b92915050565b5f5f6040838503121561365b5761365a613427565b5b5f61366885828601613631565b9250506020613679858286016135dc565b9150509250929050565b5f5f5f6060848603121561369a57613699613427565b5b5f6136a786828701613631565b93505060206136b886828701613631565b92505060406136c9868287016135dc565b9150509250925092565b5f819050919050565b6136e5816136d3565b81146136ef575f5ffd5b50565b5f81359050613700816136dc565b92915050565b5f6020828403121561371b5761371a613427565b5b5f613728848285016136f2565b91505092915050565b61373a816136d3565b82525050565b5f6020820190506137535f830184613731565b92915050565b5f5f6040838503121561376f5761376e613427565b5b5f61377c858286016136f2565b925050602061378d85828601613631565b9150509250929050565b5f60ff82169050919050565b6137ac81613797565b82525050565b5f6020820190506137c55f8301846137a3565b92915050565b5f602082840312156137e0576137df613427565b5b5f6137ed84828501613631565b91505092915050565b5f6060820190506138095f8301866133ff565b61381660208301856133ff565b61382360408301846133ff565b949350505050565b5f5f6040838503121561384157613840613427565b5b5f61384e858286016135dc565b925050602061385f85828601613631565b9150509250929050565b5f5f5f606084860312156138805761387f613427565b5b5f61388d868287016135dc565b935050602061389e86828701613631565b92505060406138af86828701613631565b9150509250925092565b5f5f604083850312156138cf576138ce613427565b5b5f6138dc85828601613631565b92505060206138ed85828601613631565b9150509250929050565b5f81519050613905816135c6565b92915050565b5f602082840312156139205761391f613427565b5b5f61392d848285016138f7565b91505092915050565b7f4e487b71000000000000000000000000000000000000000000000000000000005f52601160045260245ffd5b5f61396d826133f6565b9150613978836133f6565b92508282039050818111156139905761398f613936565b5b92915050565b7f46756e645661756c743a206e6f2070656e64696e6720726571756573740000005f82015250565b5f6139ca601d83613540565b91506139d582613996565b602082019050919050565b5f6020820190508181035f8301526139f7816139be565b9050919050565b5f613a08826133f6565b9150613a13836133f6565b9250828202613a21816133f6565b91508282048414831517613a3857613a37613936565b5b5092915050565b7f4e487b71000000000000000000000000000000000000000000000000000000005f52601260045260245ffd5b5f613a76826133f6565b9150613a81836133f6565b925082613a9157613a90613a3f565b5b828204905092915050565b7f4e487b71000000000000000000000000000000000000000000000000000000005f52602260045260245ffd5b5f6002820490506001821680613ae057607f821691505b602082108103613af357613af2613a9c565b5b50919050565b7f46756e645661756c743a206e6176206e6f7420736574000000000000000000005f82015250565b5f613b2d601683613540565b9150613b3882613af9565b602082019050919050565b5f6020820190508181035f830152613b5a81613b21565b9050919050565b5f613b6b82613797565b9150613b7683613797565b9250828201905060ff811115613b8f57613b8e613936565b5b92915050565b5f613b9f826133f6565b9150613baa836133f6565b9250828201905080821115613bc257613bc1613936565b5b92915050565b7f46756e645661756c743a20636f6f6c646f776e206e6f7420656c6170736564005f82015250565b5f613bfc601f83613540565b9150613c0782613bc8565b602082019050919050565b5f6020820190508181035f830152613c2981613bf0565b9050919050565b7f46756e645661756c743a206475737420726564656d7074696f6e0000000000005f82015250565b5f613c64601a83613540565b9150613c6f82613c30565b602082019050919050565b5f6020820190508181035f830152613c9181613c58565b9050919050565b5f604082019050613cab5f8301856133ff565b613cb860208301846133ff565b9392505050565b5f606082019050613cd25f83018661350e565b613cdf60208301856133ff565b613cec60408301846133ff565b949350505050565b7f46756e645661756c743a206e6f2070656e64696e67206f7261636c65000000005f82015250565b5f613d28601c83613540565b9150613d3382613cf4565b602082019050919050565b5f6020820190508181035f830152613d5581613d1c565b9050919050565b7f46756e645661756c743a2074696d656c6f636b206163746976650000000000005f82015250565b5f613d90601a83613540565b9150613d9b82613d5c565b602082019050919050565b5f6020820190508181035f830152613dbd81613d84565b9050919050565b7f46756e645661756c743a204e4156207374616c650000000000000000000000005f82015250565b5f613df8601483613540565b9150613e0382613dc4565b602082019050919050565b5f6020820190508181035f830152613e2581613dec565b9050919050565b7f46756e645661756c743a20736861726573206d757374206265203e20300000005f82015250565b5f613e60601d83613540565b9150613e6b82613e2c565b602082019050919050565b5f6020820190508181035f830152613e8d81613e54565b9050919050565b7f46756e645661756c743a20726571756573742070656e64696e670000000000005f82015250565b5f613ec8601a83613540565b9150613ed382613e94565b602082019050919050565b5f6020820190508181035f830152613ef581613ebc565b9050919050565b7f46756e645661756c743a20696e73756666696369656e742073686172657300005f82015250565b5f613f30601e83613540565b9150613f3b82613efc565b602082019050919050565b5f6020820190508181035f830152613f5d81613f24565b9050919050565b7f46756e645661756c743a2065786365656473206d617820657869742073697a655f82015250565b5f613f98602083613540565b9150613fa382613f64565b602082019050919050565b5f6020820190508181035f830152613fc581613f8c565b9050919050565b7f46756e645661756c743a207a65726f20616464726573730000000000000000005f82015250565b5f614000601783613540565b915061400b82613fcc565b602082019050919050565b5f6020820190508181035f83015261402d81613ff4565b9050919050565b7f46756e645661756c743a20627073206f7574206f662072616e676500000000005f82015250565b5f614068601b83613540565b915061407382614034565b602082019050919050565b5f6020820190508181035f8301526140958161405c565b9050919050565b7f46756e645661756c743a206e6176206d757374206265203e20300000000000005f82015250565b5f6140d0601a83613540565b91506140db8261409c565b602082019050919050565b5f6020820190508181035f8301526140fd816140c4565b9050919050565b7f46756e645661756c743a204e4156206368616e676520746f6f206c61726765005f82015250565b5f614138601f83613540565b915061414382614104565b602082019050919050565b5f6020820190508181035f8301526141658161412c565b9050919050565b7f46756e645661756c743a20616d6f756e74206d757374206265203e20300000005f82015250565b5f6141a0601d83613540565b91506141ab8261416c565b602082019050919050565b5f6020820190508181035f8301526141cd81614194565b9050919050565b7f46756e645661756c743a2063616c6c6572206e6f742077686974656c697374655f8201527f6400000000000000000000000000000000000000000000000000000000000000602082015250565b5f61422e602183613540565b9150614239826141d4565b604082019050919050565b5f6020820190508181035f83015261425b81614222565b9050919050565b7f46756e645661756c743a207265636569766572206e6f742077686974656c69735f8201527f7465640000000000000000000000000000000000000000000000000000000000602082015250565b5f6142bc602383613540565b91506142c782614262565b604082019050919050565b5f6020820190508181035f8301526142e9816142b0565b9050919050565b7f46756e645661756c743a20757365207265717565737452656465656d000000005f82015250565b5f614324601c83613540565b915061432f826142f0565b602082019050919050565b5f6020820190508181035f83015261435181614318565b9050919050565b5f60408201905061436b5f83018561350e565b6143786020830184613731565b939250505056fea26469706673582212200729b5dd5f6e6ce1fc4cd3e0160c3cf8743c45b698b33f07fb4095f4803f241e64736f6c63430008210033a2646970667358221220968f5b19d0eab6c68630273f3a334f6106a4eda4ebc2182b19633adc7fe12b6964736f6c63430008210033","linkReferences":{}},"methodIdentifiers":{"deployVault(address,string,string,uint256,uint256)":"9ac78860","isVault(address)":"652b9b41","owner()":"8da5cb5b","renounceOwnership()":"715018a6","transferOwnership(address)":"f2fde38b","vaultCount()":"a7c6a100","vaults(uint256)":"8c64ea4a"},"id":65}