{"abi":[{"type":"constructor","inputs":[],"stateMutability":"nonpayable"},{"type":"function","name":"fulfillRequest","inputs":[{"name":"client","type":"address","internalType":"address"},{"name":"requestId","type":"bytes32","internalType":"bytes32"},{"name":"response","type":"bytes","internalType":"bytes"},{"name":"err","type":"bytes","internalType":"bytes"}],"outputs":[],"stateMutability":"nonpayable"},{"type":"function","name":"owner","inputs":[],"outputs":[{"name":"","type":"address","internalType":"address"}],"stateMutability":"view"},{"type":"function","name":"renounceOwnership","inputs":[],"outputs":[],"stateMutability":"nonpayable"},{"type":"function","name":"sendRequest","inputs":[{"name":"","type":"uint64","internalType":"uint64"},{"name":"","type":"bytes","internalType":"bytes"},{"name":"","type":"uint16","internalType":"uint16"},{"name":"","type":"uint32","internalType":"uint32"},{"name":"","type":"bytes32","internalType":"bytes32"}],"outputs":[{"name":"requestId","type":"bytes32","internalType":"bytes32"}],"stateMutability":"nonpayable"},{"type":"function","name":"transferOwnership","inputs":[{"name":"newOwner","type":"address","internalType":"address"}],"outputs":[],"stateMutability":"nonpayable"},{"type":"event","name":"OwnershipTransferred","inputs":[{"name":"previousOwner","type":"address","indexed":true,"internalType":"address"},{"name":"newOwner","type":"address","indexed":true,"internalType":"address"}],"anonymous":false},{"type":"event","name":"RequestFulfilled","inputs":[{"name":"requestId","type":"bytes32","indexed":true,"internalType":"bytes32"},{"name":"client","type":"address","indexed":true,"internalType":"address"}],"anonymous":false},{"type":"event","name":"RequestSent","inputs":[{"name":"requestId","type":"bytes32","indexed":true,"internalType":"bytes32"},{"name":"client","type":"address","indexed":true,"internalType":"address"}],"anonymous":false},{"type":"error","name":"OwnableInvalidOwner","inputs":[{"name":"owner","type":"address","internalType":"address"}]},{"type":"error","name":"OwnableUnauthorizedAccount","inputs":[{"name":"account","type":"address","internalType":"address"}]}],"bytecode":{"object":"0x60806040523461002757610011610036565b61001961002c565b610ab56102078239610ab590f35b610032565b60405190565b5f80fd5b61003f336100a8565b565b90565b60018060a01b031690565b90565b61006661006161006b92610041565b61004f565b610044565b90565b61007790610052565b90565b61008390610044565b90565b61008f9061007a565b9052565b91906100a6905f60208501940190610086565b565b806100c36100bd6100b85f61006e565b61007a565b9161007a565b146100d3576100d1906101a7565b565b6100f66100df5f61006e565b5f918291631e4fbdf760e01b835260048301610093565b0390fd5b5f1c90565b60018060a01b031690565b61011661011b916100fa565b6100ff565b90565b610128905461010a565b90565b5f1b90565b9061014160018060a01b039161012b565b9181191691161790565b61015f61015a61016492610044565b61004f565b610044565b90565b6101709061014b565b90565b61017c90610167565b90565b90565b9061019761019261019e92610173565b61017f565b8254610130565b9055565b5f0190565b6101b05f61011e565b6101ba825f610182565b906101ee6101e87f8be0079c531659141344cd1fd0a4f28419497f9722a3daafe3b4186f6b6457e093610173565b91610173565b916101f761002c565b80610201816101a2565b0390a356fe60806040526004361015610013575b610428565b61001d5f3561006c565b80633e2e8de314610067578063461d276214610062578063715018a61461005d5780638da5cb5b146100585763f2fde38b0361000e576103f5565b6103a2565b61034d565b610302565b6101af565b60e01c90565b60405190565b5f80fd5b5f80fd5b5f80fd5b60018060a01b031690565b61009890610084565b90565b6100a48161008f565b036100ab57565b5f80fd5b905035906100bc8261009b565b565b90565b6100ca816100be565b036100d157565b5f80fd5b905035906100e2826100c1565b565b5f80fd5b5f80fd5b5f80fd5b909182601f8301121561012a5781359167ffffffffffffffff831161012557602001926001830284011161012057565b6100ec565b6100e8565b6100e4565b91906080838203126101a557610147815f85016100af565b9261015582602083016100d5565b92604082013567ffffffffffffffff81116101a057836101769184016100f0565b929093606082013567ffffffffffffffff811161019b5761019792016100f0565b9091565b610080565b610080565b61007c565b5f0190565b346101e4576101ce6101c236600461012f565b94939093929192610674565b6101d6610072565b806101e0816101aa565b0390f35b610078565b67ffffffffffffffff1690565b6101ff816101e9565b0361020657565b5f80fd5b90503590610217826101f6565b565b61ffff1690565b61022981610219565b0361023057565b5f80fd5b9050359061024182610220565b565b63ffffffff1690565b61025581610243565b0361025c57565b5f80fd5b9050359061026d8261024c565b565b91909160a0818403126102db57610288835f830161020a565b92602082013567ffffffffffffffff81116102d657816102a99184016100f0565b9290936102d36102bc8460408501610234565b936102ca8160608601610260565b936080016100d5565b90565b610080565b61007c565b6102e9906100be565b9052565b9190610300905f602085019401906102e0565b565b346103395761033561032461031836600461026f565b949390939291926107bf565b61032c610072565b918291826102ed565b0390f35b610078565b5f91031261034857565b61007c565b3461037b5761035d36600461033e565b6103656108c8565b61036d610072565b80610377816101aa565b0390f35b610078565b6103899061008f565b9052565b91906103a0905f60208501940190610380565b565b346103d2576103b236600461033e565b6103ce6103bd610902565b6103c5610072565b9182918261038d565b0390f35b610078565b906020828203126103f0576103ed915f016100af565b90565b61007c565b346104235761040d6104083660046103d7565b61097c565b610415610072565b8061041f816101aa565b0390f35b610078565b5f80fd5b90610442959493929161043d610987565b61058d565b565b90565b61045b61045661046092610084565b610444565b610084565b90565b61046c90610447565b90565b61047890610463565b90565b61048490610447565b90565b6104909061047b565b90565b5f80fd5b601f801991011690565b634e487b7160e01b5f52604160045260245ffd5b906104bf90610497565b810190811067ffffffffffffffff8211176104d957604052565b6104a1565b60e01b90565b5f9103126104ee57565b61007c565b60209181520190565b90825f939282370152565b91906105218161051a81610526956104f3565b80956104fc565b610497565b0190565b93919061056295936105549261054760608801935f8901906102e0565b8683036020880152610507565b926040818503910152610507565b90565b61056d610072565b3d5f823e3d90fd5b61057e906100be565b90565b61058a9061047b565b90565b94939190936105a361059e8761046f565b610487565b90630ca7617590869395949091833b1561066f576105e26105d7935f979388946105cb610072565b9a8b998a9889976104de565b87526004870161052a565b03925af1801561066a5761063e575b50906106266106207f830b60a027ae5718542482d9a0dff6192a316ad1720cd40a5b45aa1e21ab543a93610575565b91610581565b9161062f610072565b80610639816101aa565b0390a3565b61065d905f3d8111610663575b61065581836104b5565b8101906104e4565b5f6105f1565b503d61064b565b610565565b610493565b90610682959493929161042c565b565b5f90565b5f1c90565b90565b61069c6106a191610688565b61068d565b90565b6106ae9054610690565b90565b634e487b7160e01b5f52601160045260245ffd5b90565b6106d1906106c5565b5f1981146106df5760010190565b6106b1565b5f1b90565b906106f55f19916106e4565b9181191691161790565b61071361070e610718926106c5565b610444565b6106c5565b90565b90565b9061073361072e61073a926106ff565b61071b565b82546106e9565b9055565b90565b61074d610752916106c5565b61073e565b9052565b60601b90565b61076590610756565b90565b6107719061075c565b90565b6107806107859161008f565b610768565b9052565b602093926107a985836107a16014956107b197610741565b018092610774565b018092610741565b0190565b60200190565b5190565b5050505050506107cd610684565b504261081733916108086107e160016106a4565b6107f46107ed826106c8565b600161071e565b6107fc610072565b94859360208501610789565b602082018103825203826104b5565b610829610823826107bb565b916107b5565b2090813361086061085a7f91f0d67c2f27abd6cfc317e120d5e80b31e97b9926b65d3887e59402fb20adfb93610575565b91610581565b91610869610072565b80610873816101aa565b0390a3565b610880610987565b6108886108b5565b565b90565b6108a161089c6108a69261088a565b610444565b610084565b90565b6108b29061088d565b90565b6108c66108c15f6108a9565b610a13565b565b6108d0610878565b565b5f90565b60018060a01b031690565b6108ed6108f291610688565b6108d6565b90565b6108ff90546108e1565b90565b61090a6108d2565b506109145f6108f5565b90565b61092890610923610987565b61092a565b565b8061094561093f61093a5f6108a9565b61008f565b9161008f565b146109555761095390610a13565b565b6109786109615f6108a9565b5f918291631e4fbdf760e01b83526004830161038d565b0390fd5b61098590610917565b565b61098f610902565b6109a86109a261099d610a72565b61008f565b9161008f565b036109af57565b6109d16109ba610a72565b5f91829163118cdaa760e01b83526004830161038d565b0390fd5b906109e660018060a01b03916106e4565b9181191691161790565b90565b90610a08610a03610a0f92610581565b6109f0565b82546109d5565b9055565b610a1c5f6108f5565b610a26825f6109f3565b90610a5a610a547f8be0079c531659141344cd1fd0a4f28419497f9722a3daafe3b4186f6b6457e093610581565b91610581565b91610a63610072565b80610a6d816101aa565b0390a3565b610a7a6108d2565b50339056fea2646970667358221220f9685b1f19ef1c1d5bb3432a059d7f55272a2099509a06e4e7fc25737b986c1d64736f6c63430008210033","linkReferences":{}},"methodIdentifiers":{"fulfillRequest(address,bytes32,bytes,bytes)":"3e2e8de3","owner()":"8da5cb5b","renounceOwnership()":"715018a6","sendRequest(uint64,bytes,uint16,uint32,bytes32)":"461d2762","transferOwnership(address)":"f2fde38b"},"id":63}