{"abi":[{"type":"constructor","inputs":[{"name":"functionsRouter","type":"address","internalType":"address"},{"name":"_vault","type":"address","internalType":"address"},{"name":"_subscriptionId","type":"uint64","internalType":"uint64"},{"name":"_gasLimit","type":"uint32","internalType":"uint32"},{"name":"_donId","type":"bytes32","internalType":"bytes32"},{"name":"_requestInterval","type":"uint256","internalType":"uint256"},{"name":"_jsSource","type":"string","internalType":"string"}],"stateMutability":"nonpayable"},{"type":"function","name":"MAX_PAYLOAD_AGE","inputs":[],"outputs":[{"name":"","type":"uint256","internalType":"uint256"}],"stateMutability":"view"},{"type":"function","name":"NAV_UPDATE_TYPEHASH","inputs":[],"outputs":[{"name":"","type":"bytes32","internalType":"bytes32"}],"stateMutability":"view"},{"type":"function","name":"addAuditor","inputs":[{"name":"auditor","type":"address","internalType":"address"}],"outputs":[],"stateMutability":"nonpayable"},{"type":"function","name":"checkUpkeep","inputs":[{"name":"","type":"bytes","internalType":"bytes"}],"outputs":[{"name":"upkeepNeeded","type":"bool","internalType":"bool"},{"name":"","type":"bytes","internalType":"bytes"}],"stateMutability":"view"},{"type":"function","name":"donId","inputs":[],"outputs":[{"name":"","type":"bytes32","internalType":"bytes32"}],"stateMutability":"view"},{"type":"function","name":"eip712Domain","inputs":[],"outputs":[{"name":"fields","type":"bytes1","internalType":"bytes1"},{"name":"name","type":"string","internalType":"string"},{"name":"version","type":"string","internalType":"string"},{"name":"chainId","type":"uint256","internalType":"uint256"},{"name":"verifyingContract","type":"address","internalType":"address"},{"name":"salt","type":"bytes32","internalType":"bytes32"},{"name":"extensions","type":"uint256[]","internalType":"uint256[]"}],"stateMutability":"view"},{"type":"function","name":"gasLimit","inputs":[],"outputs":[{"name":"","type":"uint32","internalType":"uint32"}],"stateMutability":"view"},{"type":"function","name":"handleOracleFulfillment","inputs":[{"name":"requestId","type":"bytes32","internalType":"bytes32"},{"name":"response","type":"bytes","internalType":"bytes"},{"name":"err","type":"bytes","internalType":"bytes"}],"outputs":[],"stateMutability":"nonpayable"},{"type":"function","name":"isAuditor","inputs":[{"name":"","type":"address","internalType":"address"}],"outputs":[{"name":"","type":"bool","internalType":"bool"}],"stateMutability":"view"},{"type":"function","name":"jsSource","inputs":[],"outputs":[{"name":"","type":"string","internalType":"string"}],"stateMutability":"view"},{"type":"function","name":"lastNonce","inputs":[],"outputs":[{"name":"","type":"uint256","internalType":"uint256"}],"stateMutability":"view"},{"type":"function","name":"lastRequestId","inputs":[],"outputs":[{"name":"","type":"bytes32","internalType":"bytes32"}],"stateMutability":"view"},{"type":"function","name":"lastRequestedAt","inputs":[],"outputs":[{"name":"","type":"uint256","internalType":"uint256"}],"stateMutability":"view"},{"type":"function","name":"owner","inputs":[],"outputs":[{"name":"","type":"address","internalType":"address"}],"stateMutability":"view"},{"type":"function","name":"performUpkeep","inputs":[{"name":"","type":"bytes","internalType":"bytes"}],"outputs":[],"stateMutability":"nonpayable"},{"type":"function","name":"removeAuditor","inputs":[{"name":"auditor","type":"address","internalType":"address"}],"outputs":[],"stateMutability":"nonpayable"},{"type":"function","name":"renounceOwnership","inputs":[],"outputs":[],"stateMutability":"nonpayable"},{"type":"function","name":"requestInterval","inputs":[],"outputs":[{"name":"","type":"uint256","internalType":"uint256"}],"stateMutability":"view"},{"type":"function","name":"requestNAVUpdate","inputs":[],"outputs":[],"stateMutability":"nonpayable"},{"type":"function","name":"setGasLimit","inputs":[{"name":"_gasLimit","type":"uint32","internalType":"uint32"}],"outputs":[],"stateMutability":"nonpayable"},{"type":"function","name":"setJsSource","inputs":[{"name":"_jsSource","type":"string","internalType":"string"}],"outputs":[],"stateMutability":"nonpayable"},{"type":"function","name":"setRequestInterval","inputs":[{"name":"_interval","type":"uint256","internalType":"uint256"}],"outputs":[],"stateMutability":"nonpayable"},{"type":"function","name":"setSubscriptionId","inputs":[{"name":"_subscriptionId","type":"uint64","internalType":"uint64"}],"outputs":[],"stateMutability":"nonpayable"},{"type":"function","name":"submitSignedNAV","inputs":[{"name":"nav","type":"uint256","internalType":"uint256"},{"name":"timestamp","type":"uint256","internalType":"uint256"},{"name":"nonce","type":"uint256","internalType":"uint256"},{"name":"sig","type":"bytes","internalType":"bytes"}],"outputs":[],"stateMutability":"nonpayable"},{"type":"function","name":"subscriptionId","inputs":[],"outputs":[{"name":"","type":"uint64","internalType":"uint64"}],"stateMutability":"view"},{"type":"function","name":"transferOwnership","inputs":[{"name":"newOwner","type":"address","internalType":"address"}],"outputs":[],"stateMutability":"nonpayable"},{"type":"function","name":"vault","inputs":[],"outputs":[{"name":"","type":"address","internalType":"contract IFundVault"}],"stateMutability":"view"},{"type":"event","name":"AuditorAdded","inputs":[{"name":"auditor","type":"address","indexed":true,"internalType":"address"}],"anonymous":false},{"type":"event","name":"AuditorRemoved","inputs":[{"name":"auditor","type":"address","indexed":true,"internalType":"address"}],"anonymous":false},{"type":"event","name":"EIP712DomainChanged","inputs":[],"anonymous":false},{"type":"event","name":"FulfillError","inputs":[{"name":"requestId","type":"bytes32","indexed":true,"internalType":"bytes32"},{"name":"err","type":"bytes","indexed":false,"internalType":"bytes"}],"anonymous":false},{"type":"event","name":"NAVRequestSent","inputs":[{"name":"requestId","type":"bytes32","indexed":true,"internalType":"bytes32"}],"anonymous":false},{"type":"event","name":"NAVUpdatedViaOracle","inputs":[{"name":"nav","type":"uint256","indexed":false,"internalType":"uint256"},{"name":"timestamp","type":"uint256","indexed":false,"internalType":"uint256"},{"name":"auditor","type":"address","indexed":false,"internalType":"address"}],"anonymous":false},{"type":"event","name":"OwnershipTransferred","inputs":[{"name":"previousOwner","type":"address","indexed":true,"internalType":"address"},{"name":"newOwner","type":"address","indexed":true,"internalType":"address"}],"anonymous":false},{"type":"event","name":"RequestFulfilled","inputs":[{"name":"id","type":"bytes32","indexed":true,"internalType":"bytes32"}],"anonymous":false},{"type":"event","name":"RequestSent","inputs":[{"name":"id","type":"bytes32","indexed":true,"internalType":"bytes32"}],"anonymous":false},{"type":"error","name":"ECDSAInvalidSignature","inputs":[]},{"type":"error","name":"ECDSAInvalidSignatureLength","inputs":[{"name":"length","type":"uint256","internalType":"uint256"}]},{"type":"error","name":"ECDSAInvalidSignatureS","inputs":[{"name":"s","type":"bytes32","internalType":"bytes32"}]},{"type":"error","name":"EmptySource","inputs":[]},{"type":"error","name":"InvalidShortString","inputs":[]},{"type":"error","name":"NoInlineSecrets","inputs":[]},{"type":"error","name":"OnlyRouterCanFulfill","inputs":[]},{"type":"error","name":"OwnableInvalidOwner","inputs":[{"name":"owner","type":"address","internalType":"address"}]},{"type":"error","name":"OwnableUnauthorizedAccount","inputs":[{"name":"account","type":"address","internalType":"address"}]},{"type":"error","name":"StringTooLong","inputs":[{"name":"str","type":"string","internalType":"string"}]}],"bytecode":{"object":"0x6101a0604052346100a95761002161001561030e565b959490949391936107b3565b6100296100ae565b6143fd610de3823960805181818161120c0152612e72015260a0518161356b015260c051816135a2015260e0518161353201526101005181613eb601526101205181613edb015261014051816126f501526101605181612734015261018051818181611119015281816123cb01528181612483015261253401526143fd90f35b6100b4565b60405190565b5f80fd5b601f801991011690565b634e487b7160e01b5f52604160045260245ffd5b906100e0906100b8565b810190811060018060401b038211176100f857604052565b6100c2565b906101106101096100ae565b92836100d6565b565b5f80fd5b5f80fd5b60018060a01b031690565b61012e9061011a565b90565b61013a81610125565b0361014157565b5f80fd5b9050519061015282610131565b565b60018060401b031690565b61016881610154565b0361016f57565b5f80fd5b905051906101808261015f565b565b63ffffffff1690565b61019481610182565b0361019b57565b5f80fd5b905051906101ac8261018b565b565b90565b6101ba816101ae565b036101c157565b5f80fd5b905051906101d2826101b1565b565b90565b6101e0816101d4565b036101e757565b5f80fd5b905051906101f8826101d7565b565b5f80fd5b5f80fd5b60018060401b03811161021e5761021a6020916100b8565b0190565b6100c2565b90825f9392825e0152565b9092919261024361023e82610202565b6100fd565b9381855260208501908284011161025f5761025d92610223565b565b6101fe565b9080601f830112156102825781602061027f9351910161022e565b90565b6101fa565b9060e0828203126103095761029e815f8401610145565b926102ac8260208501610145565b926102ba8360408301610173565b926102c8816060840161019f565b926102d682608085016101c5565b926102e48360a083016101eb565b9260c082015160018060401b038111610304576103019201610264565b90565b610116565b610112565b61032c6151e080380380610321816100fd565b928339810190610287565b90919293949596565b9061034761034283610202565b6100fd565b918252565b5f7f4e41564f7261636c650000000000000000000000000000000000000000000000910152565b61037d6009610335565b9061038a6020830161034c565b565b610394610373565b90565b5f7f3100000000000000000000000000000000000000000000000000000000000000910152565b6103c86001610335565b906103d560208301610397565b565b6103df6103be565b90565b90565b6103f96103f46103fe9261011a565b6103e2565b61011a565b90565b61040a906103e5565b90565b61041690610401565b90565b60a01b90565b90610434600160a01b600160e01b0391610419565b9181191691161790565b61045261044d61045792610154565b6103e2565b610154565b90565b90565b9061047261046d6104799261043e565b61045a565b825461041f565b9055565b60e01b90565b9061049563ffffffff60e01b9161047d565b9181191691161790565b6104b36104ae6104b892610182565b6103e2565b610182565b90565b90565b906104d36104ce6104da9261049f565b6104bb565b8254610483565b9055565b5f1b90565b906104ef5f19916104de565b9181191691161790565b610502906101ae565b90565b5f1c90565b61051390610505565b90565b9061052b610526610532926104f9565b61050a565b82546104e3565b9055565b61054a61054561054f926101d4565b6103e2565b6101d4565b90565b90565b9061056a61056561057192610536565b610552565b82546104e3565b9055565b5190565b634e487b7160e01b5f52602260045260245ffd5b90600160028304921680156105ad575b60208310146105a857565b610579565b91607f169161059d565b5f5260205f2090565b601f602091010490565b1b90565b919060086105e99102916105e35f19846105ca565b926105ca565b9181191691161790565b919061060961060461061193610536565b610552565b9083546105ce565b9055565b5f90565b61062b91610625610615565b916105f3565b565b5f5b82811061063b57505050565b8061064a5f6001938501610619565b0161062f565b9190601f8111610660575b505050565b81811161066d575b61065b565b61068261067c6106a0946105b7565b916105c0565b91602061068e826105c0565b91106106a8575b80910191039061062d565b5f8080610668565b505f610695565b1c90565b906106c3905f19906008026106af565b191690565b816106d2916106b3565b906002021790565b906106e481610575565b9060018060401b0382116107a25761070682610700855461058d565b85610650565b602090601f831160011461073a57918091610729935f9261072e575b50506106c8565b90555b565b90915001515f80610722565b601f19831691610749856105b7565b925f5b81811061078a57509160029391856001969410610770575b5050500201905561072c565b610780910151601f8416906106b3565b90555f8080610764565b9193602060018192878701518155019501920161074c565b6100c2565b906107b1916106da565b565b6108149695936107f8610806946107ed61080d98956107e86107ff9633906107d961038c565b6107e16103d7565b919261086e565b61040d565b61018052600261045d565b60026104be565b6003610516565b6008610555565b60046107a7565b61081f426007610555565b565b90565b61083861083361083d92610821565b6103e2565b61011a565b90565b61084990610824565b90565b61085590610125565b9052565b919061086c905f6020850194019061084c565b565b92909161087a926108cc565b8061089561088f61088a5f610840565b610125565b91610125565b146108a5576108a390610a4c565b565b6108c86108b15f610840565b5f918291631e4fbdf760e01b835260048301610859565b0390fd5b906108d79291610901565b565b90565b90565b60200190565b5190565b6108f2906103e5565b90565b6108fe906108e9565b90565b6109459061091161096194610995565b6109248161091e5f6108d9565b90610afc565b6101405261093c8361093660016108d9565b90610afc565b610160526108dc565b610957610951826108e5565b916108df565b20610100526108dc565b61097361096d826108e5565b916108df565b20610120524660c052610984610c01565b60a052610990306108f5565b60e052565b61099e906109a0565b565b6109a9906109c3565b565b6109b4906103e5565b90565b6109c0906109ab565b90565b6109cc906109b7565b608052565b60018060a01b031690565b6109e86109ed91610505565b6109d1565b90565b6109fa90546109dc565b90565b90610a0e60018060a01b03916104de565b9181191691161790565b610a21906108e9565b90565b90565b90610a3c610a37610a4392610a18565b610a24565b82546109fd565b9055565b5f0190565b610a5660026109f0565b610a61826002610a27565b90610a95610a8f7f8be0079c531659141344cd1fd0a4f28419497f9722a3daafe3b4186f6b6457e093610a18565b91610a18565b91610a9e6100ae565b80610aa881610a47565b0390a3565b5f90565b90565b610ac8610ac3610acd92610ab1565b6103e2565b6101d4565b90565b90565b610ae7610ae2610aec92610ad0565b6104de565b6101ae565b90565b610af960ff610ad3565b90565b90610b05610aad565b50610b17610b12836108dc565b6108e5565b610b2a610b246020610ab4565b916101d4565b105f14610b3e5750610b3b90610d58565b90565b5f610b4c610b529392610c73565b016107a7565b610b62610b5d610aef565b6104f9565b90565b5f90565b7f8b73c3c69bb8fe3d512ecc4cf759cc79239f7b179b0ffacaa9a75d522b39400f90565b610b9790516101ae565b90565b610ba3906101ae565b9052565b610bb0906101d4565b9052565b90959492610bff94610bee610bf892610be4608096610bda60a088019c5f890190610b9a565b6020870190610b9a565b6040850190610b9a565b6060830190610ba7565b019061084c565b565b610c09610b65565b50610c12610b69565b610c5d610c20610100610b8d565b91610c4e610c2f610120610b8d565b46610c39306108f5565b91610c426100ae565b96879560208701610bb4565b602082018103825203826100d6565b610c6f610c69826108e5565b916108df565b2090565b90565b90565b610c8d610c88610c9292610c76565b6103e2565b6101d4565b90565b60209181520190565b610cbd610cc6602093610ccb93610cb481610575565b93848093610c95565b95869101610223565b6100b8565b0190565b610ce49160208201915f818403910152610c9e565b90565b610d01610cfc610cf6836108e5565b926108df565b610b8d565b9060208110610d0f575b5090565b610d21905f19906020036008026105ca565b165f610d0b565b610d34610d3991610505565b610536565b90565b610d50610d4b610d55926101d4565b6104de565b6101ae565b90565b610d60610aad565b50610d6a816108dc565b90610d74826108e5565b610d87610d81601f610c79565b916101d4565b11610dbc5750610db481610dae610da8610da3610db995610ce7565b610d28565b916108e5565b17610d3c565b6104f9565b90565b610dde90610dc86100ae565b91829163305a27a960e01b835260048301610ccf565b0390fdfe60806040526004361015610013575b6111e2565b61001d5f356101cc565b806309c1ba2e146101c75780630ca76175146101c2578063272808a3146101bd57806335a99600146101b857806341628ce0146101b357806344af6819146101ae5780634585e33b146101a957806349b90557146101a457806352631ab41461019f57806352d84c621461019a578063536f6070146101955780635ff52684146101905780636e04ff0d1461018b5780636e913cc014610186578063715018a61461018157806384b0196e1461017c5780638da5cb5b146101775780638dbe7b9d14610172578063d65060fb1461016d578063d8f4809a14610168578063e429cef114610163578063e6116cfd1461015e578063ea7b4f7714610159578063f2fde38b14610154578063f68016b71461014f578063fbfa77cf1461014a5763fc2a88c30361000e576111ad565b611169565b6110e2565b61104e565b61101b565b610fa7565b610f74565b610f40565b610e98565b610e63565b610df6565b610da5565b610c53565b610c1e565b610b96565b610afb565b610a66565b610a24565b6109a5565b610961565b61081f565b61076f565b6106f9565b61068c565b6105f7565b61041d565b610265565b60e01c90565b60405190565b5f80fd5b5f80fd5b5f9103126101ea57565b6101dc565b1c90565b67ffffffffffffffff1690565b61021090600861021593026101ef565b6101f3565b90565b906102239154610200565b90565b6102336002601490610218565b90565b67ffffffffffffffff1690565b61024c90610236565b9052565b9190610263905f60208501940190610243565b565b34610295576102753660046101e0565b610291610280610226565b6102886101d2565b91829182610250565b0390f35b6101d8565b5f80fd5b90565b6102aa8161029e565b036102b157565b5f80fd5b905035906102c2826102a1565b565b5f80fd5b5f80fd5b601f801991011690565b634e487b7160e01b5f52604160045260245ffd5b906102f4906102cc565b810190811067ffffffffffffffff82111761030e57604052565b6102d6565b9061032661031f6101d2565b92836102ea565b565b67ffffffffffffffff8111610346576103426020916102cc565b0190565b6102d6565b90825f939282370152565b9092919261036b61036682610328565b610313565b93818552602085019082840111610387576103859261034b565b565b6102c8565b9080601f830112156103aa578160206103a793359101610356565b90565b6102c4565b91606083830312610413576103c6825f85016102b5565b92602081013567ffffffffffffffff811161040e57836103e791830161038c565b92604082013567ffffffffffffffff811161040957610406920161038c565b90565b61029a565b61029a565b6101dc565b5f0190565b3461044c576104366104303660046103af565b916111fe565b61043e6101d2565b8061044881610418565b0390f35b6101d8565b634e487b7160e01b5f525f60045260245ffd5b634e487b7160e01b5f52602260045260245ffd5b9060016002830492168015610498575b602083101461049357565b610464565b91607f1691610488565b60209181520190565b5f5260205f2090565b905f92918054906104ce6104c783610478565b80946104a2565b916001811690815f1461052557506001146104e9575b505050565b6104f691929394506104ab565b915f925b81841061050d57505001905f80806104e4565b600181602092959395548486015201910192906104fa565b92949550505060ff19168252151560200201905f80806104e4565b9061054a916104b4565b90565b9061056d6105669261055d6101d2565b93848092610540565b03836102ea565b565b905f106105825761057f9061054d565b90565b610451565b61059360045f9061056f565b90565b5190565b60209181520190565b90825f9392825e0152565b6105cd6105d66020936105db936105c481610596565b9384809361059a565b958691016105a3565b6102cc565b0190565b6105f49160208201915f8184039101526105ae565b90565b34610627576106073660046101e0565b610623610612610587565b61061a6101d2565b918291826105df565b0390f35b6101d8565b90565b90565b90565b61064961064461064e9261062c565b610632565b61062f565b90565b61065c611c20610635565b90565b610667610651565b90565b6106739061062f565b9052565b919061068a905f6020850194019061066a565b565b346106bc5761069c3660046101e0565b6106b86106a761065f565b6106af6101d2565b91829182610677565b0390f35b6101d8565b90565b6106d49060086106d993026101ef565b6106c1565b90565b906106e791546106c4565b90565b6106f660075f906106dc565b90565b34610729576107093660046101e0565b6107256107146106ea565b61071c6101d2565b91829182610677565b0390f35b6101d8565b6107378161062f565b0361073e57565b5f80fd5b9050359061074f8261072e565b565b9060208282031261076a57610767915f01610742565b90565b6101dc565b3461079d57610787610782366004610751565b611325565b61078f6101d2565b8061079981610418565b0390f35b6101d8565b5f80fd5b5f80fd5b909182601f830112156107e45781359167ffffffffffffffff83116107df5760200192600183028401116107da57565b6107a6565b6107a2565b6102c4565b9060208282031261081a575f82013567ffffffffffffffff81116108155761081192016107aa565b9091565b61029a565b6101dc565b3461084e576108386108323660046107e9565b90611411565b6108406101d2565b8061084a81610418565b0390f35b6101d8565b60018060a01b031690565b61086790610853565b90565b6108738161085e565b0361087a57565b5f80fd5b9050359061088b8261086a565b565b906020828203126108a6576108a3915f0161087e565b90565b6101dc565b6108bf6108ba6108c492610853565b610632565b610853565b90565b6108d0906108ab565b90565b6108dc906108c7565b90565b906108e9906108d3565b5f5260205260405f2090565b60ff1690565b61090b90600861091093026101ef565b6108f5565b90565b9061091e91546108fb565b90565b610937906109326005915f926108df565b610913565b90565b151590565b6109489061093a565b9052565b919061095f905f6020850194019061093f565b565b346109915761098d61097c61097736600461088d565b610921565b6109846101d2565b9182918261094c565b0390f35b6101d8565b6109a260065f906106dc565b90565b346109d5576109b53660046101e0565b6109d16109c0610996565b6109c86101d2565b91829182610677565b0390f35b6101d8565b63ffffffff1690565b6109ec816109da565b036109f357565b5f80fd5b90503590610a04826109e3565b565b90602082820312610a1f57610a1c915f016109f7565b90565b6101dc565b34610a5257610a3c610a37366004610a06565b6114d7565b610a446101d2565b80610a4e81610418565b0390f35b6101d8565b610a6360085f906106dc565b90565b34610a9657610a763660046101e0565b610a92610a81610a57565b610a896101d2565b91829182610677565b0390f35b6101d8565b90608082820312610af657610ab2815f8401610742565b92610ac08260208501610742565b92610ace8360408301610742565b92606082013567ffffffffffffffff8111610af157610aed92016107aa565b9091565b61029a565b6101dc565b34610b2d57610b17610b0e366004610a9b565b939290926114f0565b610b1f6101d2565b80610b2981610418565b0390f35b6101d8565b5190565b60209181520190565b610b5e610b67602093610b6c93610b5581610b32565b93848093610b36565b958691016105a3565b6102cc565b0190565b91610b9392610b8660408201935f83019061093f565b6020818403910152610b3f565b90565b34610bc857610baf610ba93660046107e9565b9061150f565b90610bc4610bbb6101d2565b92839283610b70565b0390f35b6101d8565b7f389f9bf9fe3b5eb4eb756cae5cab7dbb1f395629654a5218d2749bf7846ee86a90565b610bf9610bcd565b90565b610c059061029e565b9052565b9190610c1c905f60208501940190610bfc565b565b34610c4e57610c2e3660046101e0565b610c4a610c39610bf1565b610c416101d2565b91829182610c09565b0390f35b6101d8565b34610c8157610c633660046101e0565b610c6b6115a6565b610c736101d2565b80610c7d81610418565b0390f35b6101d8565b60ff60f81b1690565b610c9890610c86565b9052565b610ca59061085e565b9052565b5190565b60209181520190565b60200190565b610cc59061062f565b9052565b90610cd681602093610cbc565b0190565b60200190565b90610cfd610cf7610cf084610ca9565b8093610cad565b92610cb6565b905f5b818110610d0d5750505090565b909192610d26610d206001928651610cc9565b94610cda565b9101919091610d00565b93959194610d81610d76610d9595610d68610d8b95610da29c9a610d5b60e08c01925f8d0190610c8f565b8a820360208c01526105ae565b9088820360408a01526105ae565b97606087019061066a565b6080850190610c9c565b60a0830190610bfc565b60c0818403910152610ce0565b90565b34610ddc57610db53660046101e0565b610dd8610dc0611676565b93610dcf9795979391936101d2565b97889788610d30565b0390f35b6101d8565b9190610df4905f60208501940190610c9c565b565b34610e2657610e063660046101e0565b610e22610e1161172c565b610e196101d2565b91829182610de1565b0390f35b6101d8565b90565b610e3e906008610e4393026101ef565b610e2b565b90565b90610e519154610e2e565b90565b610e6060035f90610e46565b90565b34610e9357610e733660046101e0565b610e8f610e7e610e54565b610e866101d2565b91829182610c09565b0390f35b6101d8565b34610ec657610ea83660046101e0565b610eb0611742565b610eb86101d2565b80610ec281610418565b0390f35b6101d8565b909182601f83011215610f055781359167ffffffffffffffff8311610f00576020019260018302840111610efb57565b6107a6565b6107a2565b6102c4565b90602082820312610f3b575f82013567ffffffffffffffff8111610f3657610f329201610ecb565b9091565b61029a565b6101dc565b34610f6f57610f59610f53366004610f0a565b90611999565b610f616101d2565b80610f6b81610418565b0390f35b6101d8565b34610fa257610f8c610f8736600461088d565b611afc565b610f946101d2565b80610f9e81610418565b0390f35b6101d8565b34610fd557610fbf610fba36600461088d565b611b71565b610fc76101d2565b80610fd181610418565b0390f35b6101d8565b610fe381610236565b03610fea57565b5f80fd5b90503590610ffb82610fda565b565b9060208282031261101657611013915f01610fee565b90565b6101dc565b346110495761103361102e366004610ffd565b611c01565b61103b6101d2565b8061104581610418565b0390f35b6101d8565b3461107c5761106661106136600461088d565b611c71565b61106e6101d2565b8061107881610418565b0390f35b6101d8565b63ffffffff1690565b61109a90600861109f93026101ef565b611081565b90565b906110ad915461108a565b90565b6110bd6002601c906110a2565b90565b6110c9906109da565b9052565b91906110e0905f602085019401906110c0565b565b34611112576110f23660046101e0565b61110e6110fd6110b0565b6111056101d2565b918291826110cd565b0390f35b6101d8565b7f000000000000000000000000000000000000000000000000000000000000000090565b611144906108c7565b90565b6111509061113b565b9052565b9190611167905f60208501940190611147565b565b34611199576111793660046101e0565b611195611184611117565b61118c6101d2565b91829182611154565b0390f35b6101d8565b6111aa60095f90610e46565b90565b346111dd576111bd3660046101e0565b6111d96111c861119e565b6111d06101d2565b91829182610c09565b0390f35b6101d8565b5f80fd5b6111ef906108c7565b90565b6111fb9061029e565b90565b91903361123b6112356112307f00000000000000000000000000000000000000000000000000000000000000006111e6565b61085e565b9161085e565b0361128f5761124d9183919091611d5b565b6112777f85e1543bf2f84fe80c6badbce3648c8539ad1df4d2b3d822938ca0538be727e6916111f2565b906112806101d2565b8061128a81610418565b0390a2565b5f63c6829f8360e01b8152806112a760048201610418565b0390fd5b6112bc906112b7611df5565b611318565b565b5f1b90565b906112cf5f19916112be565b9181191691161790565b6112ed6112e86112f29261062f565b610632565b61062f565b90565b90565b9061130d611308611314926112d9565b6112f5565b82546112c3565b9055565b6113239060086112f8565b565b61132e906112ab565b565b5f1c90565b61134161134691611330565b6106c1565b90565b6113539054611335565b90565b634e487b7160e01b5f52601160045260245ffd5b61137961137f9193929361062f565b9261062f565b820180921161138a57565b611356565b5f7f4e41564f7261636c653a20746f6f20736f6f6e00000000000000000000000000910152565b6113c3601360209261059a565b6113cc8161138f565b0190565b6113e59060208101905f8183039101526113b6565b90565b156113ef57565b6113f76101d2565b62461bcd60e51b81528061140d600482016113d0565b0390fd5b505061144c4261144561143f61143a61142a6007611349565b6114346008611349565b9061136a565b61062f565b9161062f565b10156113e8565b611454611f7a565b565b61146790611462611df5565b6114ca565b565b60e01b90565b9061148163ffffffff60e01b91611469565b9181191691161790565b61149f61149a6114a4926109da565b610632565b6109da565b90565b90565b906114bf6114ba6114c69261148b565b6114a7565b825461146f565b9055565b6114d59060026114aa565b565b6114e090611456565b565b6114ed913691610356565b90565b611504946114fe91946114e2565b9261238f565b565b5f90565b606090565b5050611519611506565b5061152261150a565b4261155161154b6115466115366007611349565b6115406008611349565b9061136a565b61062f565b9161062f565b101591565b61155e611df5565b611566611593565b565b90565b61157f61157a61158492611568565b610632565b610853565b90565b6115909061156b565b90565b6115a461159f5f611587565b612683565b565b6115ae611556565b565b5f90565b606090565b5f90565b5f90565b5f90565b606090565b6115d3906108c7565b90565b6115ea6115e56115ef92611568565b6112be565b61029e565b90565b61160661160161160b92611568565b610632565b61062f565b90565b67ffffffffffffffff81116116265760208091020190565b6102d6565b9061163d6116388361160e565b610313565b918252565b369037565b9061166c6116548361162b565b92602080611662869361160e565b9201910390611642565b565b600f60f81b90565b61167e6115b0565b506116876115b4565b506116906115b4565b506116996115b9565b506116a26115bd565b506116ab6115c1565b506116b46115c5565b506116bd6126e7565b906116c6612726565b9046906116d2306115ca565b906116dc5f6115d6565b906116ee6116e95f6115f2565b611647565b906116f761166e565b96959493929190565b60018060a01b031690565b61171761171c91611330565b611700565b90565b611729905461170b565b90565b6117346115bd565b5061173f600261171f565b90565b61177b4261177461176e6117696117596007611349565b6117636008611349565b9061136a565b61062f565b9161062f565b10156113e8565b611783611f7a565b565b9061179791611792611df5565b61198b565b565b5090565b601f602091010490565b1b90565b919060086117c69102916117c05f19846117a7565b926117a7565b9181191691161790565b91906117e66117e16117ee936112d9565b6112f5565b9083546117ab565b9055565b611804916117fe6115b9565b916117d0565b565b5f5b82811061181457505050565b806118235f60019385016117f2565b01611808565b9190601f8111611839575b505050565b818111611846575b611834565b61185b611855611879946104ab565b9161179d565b9160206118678261179d565b9110611881575b809101910390611806565b5f8080611841565b505f61186e565b90611898905f19906008026101ef565b191690565b816118a791611888565b906002021790565b916118ba9082611799565b9067ffffffffffffffff8211611979576118de826118d88554610478565b85611829565b5f90601f831160011461191157918091611900935f92611905575b505061189d565b90555b565b90915001355f806118f9565b601f19831691611920856104ab565b925f5b81811061196157509160029391856001969410611947575b50505002019055611903565b611957910135601f841690611888565b90555f808061193b565b91936020600181928787013581550195019201611923565b6102d6565b9061198992916118af565b565b9061199791600461197e565b565b906119a391611785565b565b6119b6906119b1611df5565b611a7f565b565b5f7f4e41564f7261636c653a207a65726f2061646472657373000000000000000000910152565b6119ec601760209261059a565b6119f5816119b8565b0190565b611a0e9060208101905f8183039101526119df565b90565b15611a1857565b611a206101d2565b62461bcd60e51b815280611a36600482016119f9565b0390fd5b90611a4660ff916112be565b9181191691161790565b611a599061093a565b90565b90565b90611a74611a6f611a7b92611a50565b611a5c565b8254611a3a565b9055565b611aa481611a9d611a97611a925f611587565b61085e565b9161085e565b1415611a11565b611aba6001611ab5600584906108df565b611a5f565b611ae47f2c31044378cc14466459f09320dd4057d7ad6e99b194c0800c78227383a25296916108d3565b90611aed6101d2565b80611af781610418565b0390a2565b611b05906119a5565b565b611b1890611b13611df5565b611b1a565b565b611b2f5f611b2a600584906108df565b611a5f565b611b597fd3e803f2dfdacd206b7d19aa46d847206386d84e3dc6b8de0926e54affa6fddc916108d3565b90611b626101d2565b80611b6c81610418565b0390a2565b611b7a90611b07565b565b611b8d90611b88611df5565b611bf4565b565b60a01b90565b90611bab67ffffffffffffffff60a01b91611b8f565b9181191691161790565b611bc9611bc4611bce92610236565b610632565b610236565b90565b90565b90611be9611be4611bf092611bb5565b611bd1565b8254611b95565b9055565b611bff906002611bd4565b565b611c0a90611b7c565b565b611c1d90611c18611df5565b611c1f565b565b80611c3a611c34611c2f5f611587565b61085e565b9161085e565b14611c4a57611c4890612683565b565b611c6d611c565f611587565b5f918291631e4fbdf760e01b835260048301610de1565b0390fd5b611c7a90611c0c565b565b611c919160208201915f818403910152610b3f565b90565b90505190611ca18261072e565b565b90929192611cb8611cb382610328565b610313565b93818552602085019082840111611cd457611cd2926105a3565b565b6102c8565b9080601f83011215611cf757816020611cf493519101611ca3565b90565b6102c4565b90608082820312611d5657611d13815f8401611c94565b92611d218260208501611c94565b92611d2f8360408301611c94565b92606082015167ffffffffffffffff8111611d5157611d4e9201611cd9565b90565b61029a565b6101dc565b919091611d6782610b32565b611d79611d735f6115f2565b9161062f565b11611dae575050611d9d611dac916020611d9282610b32565b818301019101611cfc565b9092919290919290919261238f565b565b909150611df0611dde7f724847412eaf358bc9c06e099154aa6bd60a34abad7cef4281b5259e5ef78c28926111f2565b92611de76101d2565b91829182611c7c565b0390a2565b611dfd61172c565b611e16611e10611e0b612766565b61085e565b9161085e565b03611e1d57565b611e3f611e28612766565b5f91829163118cdaa760e01b835260048301610de1565b0390fd5b611e4d60e0610313565b90565b5f90565b5f90565b606090565b606090565b606090565b606090565b611e74611e43565b90602080808080808088611e86611e50565b815201611e91611e50565b815201611e9c611e54565b815201611ea7611e58565b815201611eb2611e5d565b815201611ebd611e62565b815201611ec8611e67565b81525050565b611ed6611e6c565b90565b611ee29061054d565b90565b60a01c90565b611ef7611efc91611ee5565b6101f3565b90565b611f099054611eeb565b90565b611f18611f1d916101cc565b611081565b90565b611f2a9054611f0c565b90565b611f39611f3e91611330565b610e2b565b90565b611f4b9054611f2d565b90565b611f5790611330565b90565b90611f6f611f6a611f76926111f2565b611f4e565b82546112c3565b9055565b611fc6611fa1611f88611ece565b611f9c81611f966004611ed9565b90612773565b612adf565b611fab6002611eff565b611fb56002611f20565b90611fc06003611f41565b92612e58565b611fd1816009611f5a565b611fdc4260076112f8565b6120067fe4a590f2aeb7a78489900321756fa3943a8ad762dcffc1daea08af7885afe915916111f2565b9061200f6101d2565b8061201981610418565b0390a2565b5f7f4e41564f7261636c653a207061796c6f616420746f6f206f6c64000000000000910152565b612052601a60209261059a565b61205b8161201e565b0190565b6120749060208101905f818303910152612045565b90565b1561207e57565b6120866101d2565b62461bcd60e51b81528061209c6004820161205f565b0390fd5b5f80fd5b906020828203126120bd576120ba915f01611c94565b90565b6101dc565b6120ca6101d2565b3d5f823e3d90fd5b5f7f4e41564f7261636c653a2074696d657374616d70206e6f74206e657765720000910152565b612106601e60209261059a565b61210f816120d2565b0190565b6121289060208101905f8183039101526120f9565b90565b1561213257565b61213a6101d2565b62461bcd60e51b81528061215060048201612113565b0390fd5b5f7f4e41564f7261636c653a206e6f6e6365207265706c6179000000000000000000910152565b612188601760209261059a565b61219181612154565b0190565b6121aa9060208101905f81830391015261217b565b90565b156121b457565b6121bc6101d2565b62461bcd60e51b8152806121d260048201612195565b0390fd5b909594926122219461221061221a926122066080966121fc60a088019c5f890190610bfc565b6020870190610c9c565b604085019061066a565b606083019061066a565b019061066a565b565b60200190565b61223561223a91611330565b6108f5565b90565b6122479054612229565b90565b5f7f4e41564f7261636c653a20696e76616c6964207369676e657200000000000000910152565b61227e601960209261059a565b6122878161224a565b0190565b6122a09060208101905f818303910152612271565b90565b156122aa57565b6122b26101d2565b62461bcd60e51b8152806122c86004820161228b565b0390fd5b5f7f4e41564f7261636c653a206e6176206d757374206265203e2030000000000000910152565b612300601a60209261059a565b612309816122cc565b0190565b6123229060208101905f8183039101526122f3565b90565b1561232c57565b6123346101d2565b62461bcd60e51b81528061234a6004820161230d565b0390fd5b5f91031261235857565b6101dc565b60409061238661238d949695939661237c60608401985f85019061066a565b602083019061066a565b0190610c9c565b565b90926123bf6123a6856123a0610651565b9061136a565b6123b86123b24261062f565b9161062f565b1015612077565b612405849160206123ef7f000000000000000000000000000000000000000000000000000000000000000061113b565b63fc11cdd6906123fd6101d2565b948592611469565b8252818061241560048201610418565b03915afa9182156126405761252f9361244561243f6124ef9561244b945f91612612575b5061062f565b9161062f565b1161212b565b6124708561246a61246461245f6006611349565b61062f565b9161062f565b116121ad565b6124ea61247b610bcd565b6124d26124a77f000000000000000000000000000000000000000000000000000000000000000061113b565b916124c3888b8b916124b76101d2565b968795602087016121d6565b602082018103825203826102ea565b6124e46124de82610b32565b91612223565b20612f53565b612f70565b9261250c612507612502600587906108df565b61223d565b6122a3565b6125288361252261251c5f6115f2565b9161062f565b11612325565b60066112f8565b6125587f000000000000000000000000000000000000000000000000000000000000000061113b565b630cb1982b82823b1561260d5761258e926125835f80946125776101d2565b96879586948593611469565b835260048301610677565b03925af18015612608576125dc575b509190916125d77fab392eb74e49548db3378e19e68ca58fe5c5a912286f4eb6d7d4012b344209a4936125ce6101d2565b9384938461235d565b0390a1565b6125fb905f3d8111612601575b6125f381836102ea565b81019061234e565b5f61259d565b503d6125e9565b6120c2565b6120a0565b612633915060203d8111612639575b61262b81836102ea565b8101906120a4565b5f612439565b503d612621565b6120c2565b9061265660018060a01b03916112be565b9181191691161790565b90565b9061267861267361267f926108d3565b612660565b8254612645565b9055565b61268d600261171f565b612698826002612663565b906126cc6126c67f8be0079c531659141344cd1fd0a4f28419497f9722a3daafe3b4186f6b6457e0936108d3565b916108d3565b916126d56101d2565b806126df81610418565b0390a3565b90565b6126ef6115b4565b506127237f000000000000000000000000000000000000000000000000000000000000000061271d5f6126e4565b9061308e565b90565b61272e6115b4565b506127637f000000000000000000000000000000000000000000000000000000000000000061275d60016126e4565b9061308e565b90565b61276e6115bd565b503390565b9061278291905f5f91926130fb565b565b90565b61279b6127966127a092612784565b610632565b61062f565b90565b6127ae610100612787565b90565b67ffffffffffffffff81116127cf576127cb6020916102cc565b0190565b6102d6565b906127e66127e1836127b1565b610313565b918252565b5f7f636f64654c6f636174696f6e0000000000000000000000000000000000000000910152565b61281c600c6127d4565b90612829602083016127eb565b565b612833612812565b90565b634e487b7160e01b5f52602160045260245ffd5b6003111561285457565b612836565b906128638261284a565b565b61286f9051612859565b90565b61287b90612859565b90565b5f7f6c616e6775616765000000000000000000000000000000000000000000000000910152565b6128af60086127d4565b906128bc6020830161287e565b565b6128c66128a5565b90565b600111156128d357565b612836565b906128e2826128c9565b565b6128ee90516128d8565b90565b6128fa906128d8565b90565b5f7f736f757263650000000000000000000000000000000000000000000000000000910152565b61292e60066127d4565b9061293b602083016128fd565b565b612945612924565b90565b5190565b5f7f6172677300000000000000000000000000000000000000000000000000000000910152565b61297d60046127d4565b9061298a6020830161294c565b565b612994612973565b90565b60016129a3910161062f565b90565b634e487b7160e01b5f52603260045260245ffd5b906129c482612948565b8110156129d5576020809102010190565b6129a6565b5f7f736563726574734c6f636174696f6e0000000000000000000000000000000000910152565b612a0b600f6127d4565b90612a18602083016129da565b565b612a22612a01565b90565b5f7f7365637265747300000000000000000000000000000000000000000000000000910152565b612a5660076127d4565b90612a6360208301612a25565b565b612a6d612a4c565b90565b5190565b5f7f6279746573417267730000000000000000000000000000000000000000000000910152565b612aa560096127d4565b90612ab260208301612a74565b565b612abc612a9b565b90565b90612ac982612a70565b811015612ada576020809102010190565b6129a6565b612ae761150a565b50612af8612af36127a3565b6131ef565b90612b0b82612b0561282b565b9061326b565b612b2882612b22612b1d5f8501612865565b612872565b9061334e565b612b3a82612b346128be565b9061326b565b612b5882612b52612b4d604085016128e4565b6128f1565b9061334e565b612b6a82612b6461293d565b9061326b565b612b798260608301519061326b565b612b8660a0820151612948565b612b98612b925f6115f2565b9161062f565b11612d13575b612bab6080820151610b32565b612bbd612bb75f6115f2565b9161062f565b11612c7e575b612bd060c0820151612a70565b612be2612bdc5f6115f2565b9161062f565b11612bf3575b505f80910151015190565b9190612c0781612c01612ab4565b9061326b565b612c108161340b565b612c195f6115f2565b5b80612c39612c33612c2e60c0880151612a70565b61062f565b9161062f565b1015612c6757612c6290612c5d83612c5660c08801518490612abf565b51906134e5565b612997565b612c1a565b505f9192508190612c778161349a565b9150612be8565b612c8a60208201612865565b612c9c612c965f612859565b91612859565b14612cf757612cb382612cad612a1a565b9061326b565b612cd182612ccb612cc660208501612865565b612872565b9061334e565b612ce382612cdd612a65565b9061326b565b612cf2826080830151906134e5565b612bc3565b5f63a80d31f760e01b815280612d0f60048201610418565b0390fd5b612d27829392612d2161298c565b9061326b565b612d308361340b565b612d395f6115f2565b5b80612d59612d53612d4e60a0860151612948565b61062f565b9161062f565b1015612d8757612d8290612d7d85612d7660a086015184906129ba565b519061326b565b612997565b612d3a565b50919091612d948261349a565b612b9e565b90565b61ffff1690565b612db7612db2612dbc92612d99565b610632565b612d9c565b90565b612dc96001612da3565b90565b90505190612dd9826102a1565b565b90602082820312612df457612df1915f01612dcc565b90565b6101dc565b612e0290612d9c565b9052565b90612e5694612e45612e3a612e4f936080969a99979a612e2d60a08801925f890190610243565b8682036020880152610b3f565b986040850190612df9565b60608301906110c0565b0190610bfc565b565b9091612ebe5f602094612e696115c1565b50612ec9612e967f00000000000000000000000000000000000000000000000000000000000000006111e6565b9463461d2762929698612ea7612dbf565b919091612eb26101d2565b9a8b998a988997611469565b875260048701612e06565b03925af1908115612f4e575f91612f20575b5080612f077f1131472297a800fee664d1d89cfa8f7676ff07189ecc53f80bbb5f4969099db8916111f2565b90612f106101d2565b80612f1a81610418565b0390a290565b612f41915060203d8111612f47575b612f3981836102ea565b810190612ddb565b5f612edb565b503d612f2f565b6120c2565b612f6d90612f5f6115c1565b50612f68613518565b6135d2565b90565b612f8f91612f8691612f806115bd565b50613656565b9092919261372a565b90565b90565b612fa9612fa4612fae92612f92565b6112be565b61029e565b90565b612fbb60ff612f95565b90565b5f5260205f2090565b905f9291805490612fe1612fda83610478565b80946104a2565b916001811690815f146130385750600114612ffc575b505050565b6130099192939450612fbe565b915f925b81841061302057505001905f8080612ff7565b6001816020929593955484860152019101929061300d565b92949550505060ff19168252151560200201905f8080612ff7565b9061305d91612fc7565b90565b90613080613079926130706101d2565b93848092613053565b03836102ea565b565b61308b90613060565b90565b906130976115b4565b506130a1826111f2565b6130ba6130b46130af612fb1565b61029e565b9161029e565b14155f146130cf57506130cc90613846565b90565b6130d99150613082565b90565b90565b906130e990612859565b9052565b906130f7906128d8565b9052565b929061310e613109836130dc565b610b32565b61312061311a5f6115f2565b9161062f565b1461314557606092613137613140925f87016130df565b604085016130ed565b910152565b5f6322ce3edd60e01b81528061315d60048201610418565b0390fd5b61316b6040610313565b90565b6131786040610313565b90565b5f90565b61318761316e565b9060208083613194611e5d565b81520161319f61317b565b81525050565b6131ad61317f565b90565b6131b8613161565b90602080836131c56131a5565b8152016131d061317b565b81525050565b6131de6131b0565b90565b906131eb9061062f565b9052565b6132046131fa6131d6565b915f8301516138b7565b5061321a6132115f6115f2565b602083016131e1565b90565b90565b60ff1690565b61323a61323561323f9261321d565b610632565b613220565b90565b61324c6003613226565b90565b61326361325e6132689261062f565b610632565b610236565b90565b906132a75f6132ad9361329f81613280613242565b61329961329461328f896130dc565b610b32565b61324f565b91613af0565b0151916130dc565b90613cf8565b50565b90565b6132c76132c26132cc926132b0565b610632565b613220565b90565b6132d960066132b3565b90565b90565b6132f36132ee6132f8926132dc565b610632565b613220565b90565b61331a9061331461330e61331f94613220565b91613220565b906117a7565b613220565b90565b90565b61333961333461333e92613322565b610632565b613220565b90565b61334b6002613325565b90565b6133b4916133af6133a09261338a5f82015161337b61336b6132cf565b61337560056132df565b906132fb565b613383613341565b1790613d4e565b50916133946101d2565b93849160208301610677565b602082018103825203836102ea565b6134e5565b565b90565b6133cd6133c86133d2926133b6565b610632565b613220565b90565b6133df60046133b9565b90565b6133f66133f16133fb92612d99565b610632565b61062f565b90565b613408905161062f565b90565b613447906134218161341b6133d5565b90613dff565b613441602061343060016133e2565b92019161343c836133fe565b61136a565b906131e1565b565b90565b61346061345b61346592613449565b610632565b613220565b90565b613472600761344c565b90565b61348461348a9193929361062f565b9261062f565b820391821161349557565b611356565b6134d6906134b0816134aa613468565b90613dff565b6134d060206134bf60016133e2565b9201916134cb836133fe565b613475565b906131e1565b565b6134e26002613325565b90565b905f6135159261350e816134f76134d8565b61350861350387610b32565b61324f565b91613af0565b0151613cf8565b50565b6135206115c1565b5061352a306115ca565b61355c6135567f000000000000000000000000000000000000000000000000000000000000000061085e565b9161085e565b1480613598575b5f1461358d577f000000000000000000000000000000000000000000000000000000000000000090565b613595613ea0565b90565b50466135cc6135c67f000000000000000000000000000000000000000000000000000000000000000061062f565b9161062f565b14613563565b6042916135dd6115c1565b50604051917f19010000000000000000000000000000000000000000000000000000000000008352600283015260228201522090565b5f90565b90565b61362e61362961363392613617565b610632565b61062f565b90565b61364a61364561364f9261062f565b6112be565b61029e565b90565b5f90565b9190916136616115bd565b5061366a613613565b506136736115c1565b5061367d83610b32565b61369061368a604161361a565b9161062f565b145f146136d7576136d091926136a46115c1565b506136ad6115c1565b506136b6613652565b506020810151606060408301519201515f1a909192613fa8565b9192909190565b506136e15f611587565b906136f56136f0600294610b32565b613636565b91929190565b6004111561370557565b612836565b90613714826136fb565b565b61372261372791611330565b6112d9565b90565b8061373d6137375f61370a565b9161370a565b145f14613748575050565b8061375c613756600161370a565b9161370a565b145f1461377f575f63f645eedf60e01b81528061377b60048201610418565b0390fd5b8061379361378d600261370a565b9161370a565b145f146137c1576137bd6137a683613716565b5f91829163fce698f760e01b835260048301610677565b0390fd5b6137d46137ce600361370a565b9161370a565b146137dc5750565b6137f7905f9182916335e2f38360e21b835260048301610c09565b0390fd5b90565b61381261380d613817926137fb565b610632565b61062f565b90565b369037565b9061384461382c836127d4565b9260208061383a86936127b1565b920191039061381a565b565b61384e6115b4565b50613858816140dc565b9061386b61386660206137fe565b61381f565b918252602082015290565b61387e61317f565b90565b634e487b7160e01b5f52601260045260245ffd5b6138a16138a79161062f565b9161062f565b9081156138b2570690565b613881565b906138c0613876565b506138d5816138cf60206137fe565b90613895565b6138e76138e15f6115f2565b9161062f565b0361391a575b6138fa81602084016131e1565b604051908183525f825281016020019081106139165760405290565b5f80fd5b61394b90613945602061394061393a8461393460206137fe565b90613895565b916137fe565b613475565b9061136a565b6138ed565b90565b61396761396261396c92613950565b610632565b610236565b90565b61398361397e61398892612f92565b610632565b610236565b90565b90565b6139a261399d6139a79261398b565b610632565b610236565b90565b90565b6139c16139bc6139c6926139aa565b610632565b610236565b90565b90565b6139e06139db6139e5926139c9565b610632565b613220565b90565b6139fc6139f7613a0192610236565b610632565b61062f565b90565b90565b613a1b613a16613a2092613a04565b610632565b61062f565b90565b90565b613a3a613a35613a3f92613a23565b610632565b613220565b90565b613a56613a51613a5b926133b6565b610632565b61062f565b90565b90565b613a75613a70613a7a92613a5e565b610632565b613220565b90565b613a91613a8c613a9692613322565b610632565b61062f565b90565b90565b613ab0613aab613ab592613a99565b610632565b613220565b90565b613acc613ac7613ad192613220565b610632565b610236565b90565b613ae8613ae3613aed92610236565b610632565b613220565b90565b9180613b05613aff6017613953565b91610236565b11155f14613b4457613b3a90613b34613b2f5f613b4096015194613b2960056132df565b906132fb565b613ab8565b17613ad4565b90613d4e565b505b565b9081613b59613b5360ff61396f565b91610236565b11155f14613bb85782613b935f92613b8284613bb197015191613b7c60056132df565b906132fb565b613b8c6018613a9c565b1790613d4e565b50015190613bab613ba56001926139e8565b916133e2565b91614156565b505b613b42565b81613bcd613bc761ffff61398e565b91610236565b11155f14613c2c5782613c075f92613bf684613c2597015191613bf060056132df565b906132fb565b613c006019613a61565b1790613d4e565b50015190613c1f613c196002926139e8565b91613a7d565b91614156565b505b613bb3565b81613c43613c3d63ffffffff6139ad565b91610236565b11155f14613ca25782613c7d5f92613c6c84613c9b97015191613c6660056132df565b906132fb565b613c76601a613a26565b1790613d4e565b50015190613c95613c8f6004926139e8565b91613a42565b91614156565b505b613c27565b82613cd45f92613cc384613cf297015191613cbd60056132df565b906132fb565b613ccd601b6139cc565b1790613d4e565b50015190613cec613ce66008926139e8565b91613a07565b91614156565b50613c9d565b90613d1691613d05613876565b5090613d1081610b32565b91614236565b90565b613d28613d2e9193929361062f565b9261062f565b91613d3a83820261062f565b928184041490151715613d4957565b611356565b90613d57613876565b50613d645f830151610b32565b613d7881613d7260016133e2565b9061136a565b9181613d97613d91613d8c602088016133fe565b61062f565b9161062f565b1015613dbd575b60208451928301015380518211613db5575b505090565b525f80613db0565b613ddb84613dd585613dcf6002613a7d565b90613d19565b906143ab565b613d9e565b90565b613df7613df2613dfc92613de0565b610632565b613220565b90565b90613e1b5f613e2c93015191613e1560056132df565b906132fb565b613e25601f613de3565b1790613d4e565b50565b7f8b73c3c69bb8fe3d512ecc4cf759cc79239f7b179b0ffacaa9a75d522b39400f90565b90959492613e9e94613e8d613e9792613e83608096613e7960a088019c5f890190610bfc565b6020870190610bfc565b6040850190610bfc565b606083019061066a565b0190610c9c565b565b613ea86115c1565b50613eb1613e2f565b613f287f000000000000000000000000000000000000000000000000000000000000000091613f197f000000000000000000000000000000000000000000000000000000000000000046613f04306115ca565b91613f0d6101d2565b96879560208701613e53565b602082018103825203826102ea565b613f3a613f3482610b32565b91612223565b2090565b90565b613f55613f50613f5a92613f3e565b610632565b61062f565b90565b613f6690613220565b9052565b613f9f613fa694613f95606094989795613f8b608086019a5f870190610bfc565b6020850190613f5d565b6040830190610bfc565b0190610bfc565b565b939293613fb36115bd565b50613fbc613613565b50613fc56115c1565b50613fcf85613716565b614001613ffb7f7fffffffffffffffffffffffffffffff5d576e7357a4501ddfe92f46681b20a0613f41565b9161062f565b1161408e5790614024602094955f9493929361401b6101d2565b94859485613f6a565b838052039060015afa156140895761403c5f516112be565b8061405761405161404c5f611587565b61085e565b9161085e565b1461406d575f916140675f6115d6565b91929190565b506140775f611587565b6001916140835f6115d6565b91929190565b6120c2565b50505061409a5f611587565b9060039291929190565b6140b86140b36140bd92612f92565b610632565b61062f565b90565b6140d46140cf6140d992613de0565b610632565b61062f565b90565b6140f16140f6916140eb6115b9565b506111f2565b613716565b61410060ff6140a4565b168061411561410f601f6140c0565b9161062f565b1161411d5790565b5f632cd44ac360e21b81528061413560048201610418565b0390fd5b6141429061062f565b601f8111614151576101000a90565b611356565b9190614160613876565b506141b66141a661417c6141765f870151610b32565b8561136a565b938461419b61419561419060208a016133fe565b61062f565b9161062f565b116141da575b614139565b6141b060016133e2565b90613475565b8351918383019119825116179052805182116141d2575b505090565b525f806141cd565b6141f8866141f2876141ec6002613a7d565b90613d19565b906143ab565b6141a1565b1561420457565b5f80fd5b90614213910361062f565b90565b9061422c6142266142339361062f565b9161062f565b900a61062f565b90565b9192614240613876565b506142668461425f61425961425486610b32565b61062f565b9161062f565b11156141fd565b6142725f840151610b32565b9161427e83869061136a565b908161429d614297614292602089016133fe565b61062f565b9161062f565b11614388575b6020916142ae6115b9565b506142b76115b9565b50855180519584820101958211614380575b505094939401915b836142e56142df60206137fe565b9161062f565b106143315761431961430861432a928551815261430260206137fe565b9061136a565b9361431360206137fe565b9061136a565b9361432460206137fe565b90613475565b92916142d1565b919093926143606143709161435b6143556101009261435060206137fe565b614208565b91612787565b614216565b61436a60016133e2565b90614208565b9081199051169082511617905290565b525f806142c9565b6143a6856143a08461439a6002613a7d565b90613d19565b906143ab565b6142a3565b906143c4916143be5f82015192826138b7565b50613cf8565b5056fea2646970667358221220f25d83b3df83d80eaa9bd1a058d908621e0af8766836f026cecb5fa68e6c3d4164736f6c63430008210033","linkReferences":{}},"methodIdentifiers":{"MAX_PAYLOAD_AGE()":"35a99600","NAV_UPDATE_TYPEHASH()":"6e913cc0","addAuditor(address)":"e429cef1","checkUpkeep(bytes)":"6e04ff0d","donId()":"8dbe7b9d","eip712Domain()":"84b0196e","gasLimit()":"f68016b7","handleOracleFulfillment(bytes32,bytes,bytes)":"0ca76175","isAuditor(address)":"49b90557","jsSource()":"272808a3","lastNonce()":"52631ab4","lastRequestId()":"fc2a88c3","lastRequestedAt()":"41628ce0","owner()":"8da5cb5b","performUpkeep(bytes)":"4585e33b","removeAuditor(address)":"e6116cfd","renounceOwnership()":"715018a6","requestInterval()":"536f6070","requestNAVUpdate()":"d65060fb","setGasLimit(uint32)":"52d84c62","setJsSource(string)":"d8f4809a","setRequestInterval(uint256)":"44af6819","setSubscriptionId(uint64)":"ea7b4f77","submitSignedNAV(uint256,uint256,uint256,bytes)":"5ff52684","subscriptionId()":"09c1ba2e","transferOwnership(address)":"f2fde38b","vault()":"fbfa77cf"},"id":65}