{"abi":[{"type":"constructor","inputs":[],"stateMutability":"nonpayable"},{"type":"function","name":"deployVault","inputs":[{"name":"usdc","type":"address","internalType":"address"},{"name":"name","type":"string","internalType":"string"},{"name":"symbol","type":"string","internalType":"string"},{"name":"initialNav","type":"uint256","internalType":"uint256"},{"name":"maxStaleness","type":"uint256","internalType":"uint256"}],"outputs":[{"name":"vault","type":"address","internalType":"address"}],"stateMutability":"nonpayable"},{"type":"function","name":"isVault","inputs":[{"name":"","type":"address","internalType":"address"}],"outputs":[{"name":"","type":"bool","internalType":"bool"}],"stateMutability":"view"},{"type":"function","name":"owner","inputs":[],"outputs":[{"name":"","type":"address","internalType":"address"}],"stateMutability":"view"},{"type":"function","name":"renounceOwnership","inputs":[],"outputs":[],"stateMutability":"nonpayable"},{"type":"function","name":"transferOwnership","inputs":[{"name":"newOwner","type":"address","internalType":"address"}],"outputs":[],"stateMutability":"nonpayable"},{"type":"function","name":"vaultCount","inputs":[],"outputs":[{"name":"","type":"uint256","internalType":"uint256"}],"stateMutability":"view"},{"type":"function","name":"vaults","inputs":[{"name":"","type":"uint256","internalType":"uint256"}],"outputs":[{"name":"","type":"address","internalType":"address"}],"stateMutability":"view"},{"type":"event","name":"OwnershipTransferred","inputs":[{"name":"previousOwner","type":"address","indexed":true,"internalType":"address"},{"name":"newOwner","type":"address","indexed":true,"internalType":"address"}],"anonymous":false},{"type":"event","name":"VaultDeployed","inputs":[{"name":"vault","type":"address","indexed":true,"internalType":"address"},{"name":"usdc","type":"address","indexed":true,"internalType":"address"},{"name":"name","type":"string","indexed":false,"internalType":"string"},{"name":"symbol","type":"string","indexed":false,"internalType":"string"}],"anonymous":false},{"type":"error","name":"OwnableInvalidOwner","inputs":[{"name":"owner","type":"address","internalType":"address"}]},{"type":"error","name":"OwnableUnauthorizedAccount","inputs":[{"name":"account","type":"address","internalType":"address"}]}],"bytecode":{"object":"0x60806040523461002757610011610036565b61001961002c565b616e176102078239616e1790f35b610032565b60405190565b5f80fd5b61003f336100a8565b565b90565b60018060a01b031690565b90565b61006661006161006b92610041565b61004f565b610044565b90565b61007790610052565b90565b61008390610044565b90565b61008f9061007a565b9052565b91906100a6905f60208501940190610086565b565b806100c36100bd6100b85f61006e565b61007a565b9161007a565b146100d3576100d1906101a7565b565b6100f66100df5f61006e565b5f918291631e4fbdf760e01b835260048301610093565b0390fd5b5f1c90565b60018060a01b031690565b61011661011b916100fa565b6100ff565b90565b610128905461010a565b90565b5f1b90565b9061014160018060a01b039161012b565b9181191691161790565b61015f61015a61016492610044565b61004f565b610044565b90565b6101709061014b565b90565b61017c90610167565b90565b90565b9061019761019261019e92610173565b61017f565b8254610130565b9055565b5f0190565b6101b05f61011e565b6101ba825f610182565b906101ee6101e87f8be0079c531659141344cd1fd0a4f28419497f9722a3daafe3b4186f6b6457e093610173565b91610173565b916101f761002c565b80610201816101a2565b0390a356fe60806040526004361015610013575b610547565b61001d5f3561008c565b8063652b9b4114610087578063715018a6146100825780638c64ea4a1461007d5780638da5cb5b146100785780639ac7886014610073578063a7c6a1001461006e5763f2fde38b0361000e57610514565b6104df565b610481565b610376565b610341565b610202565b6101b9565b60e01c90565b60405190565b5f80fd5b5f80fd5b5f80fd5b60018060a01b031690565b6100b8906100a4565b90565b6100c4816100af565b036100cb57565b5f80fd5b905035906100dc826100bb565b565b906020828203126100f7576100f4915f016100cf565b90565b61009c565b90565b61011361010e610118926100a4565b6100fc565b6100a4565b90565b610124906100ff565b90565b6101309061011b565b90565b9061013d90610127565b5f5260205260405f2090565b1c90565b60ff1690565b6101639060086101689302610149565b61014d565b90565b906101769154610153565b90565b61018f9061018a6002915f92610133565b61016b565b90565b151590565b6101a090610192565b9052565b91906101b7905f60208501940190610197565b565b346101e9576101e56101d46101cf3660046100de565b610179565b6101dc610092565b918291826101a4565b0390f35b610098565b5f9103126101f857565b61009c565b5f0190565b34610230576102123660046101ee565b61021a61059b565b610222610092565b8061022c816101fd565b0390f35b610098565b90565b61024181610235565b0361024857565b5f80fd5b9050359061025982610238565b565b9060208282031261027457610271915f0161024c565b90565b61009c565b634e487b7160e01b5f52603260045260245ffd5b5490565b5f5260205f2090565b6102a38161028d565b8210156102bd576102b5600191610291565b910201905f90565b610279565b60018060a01b031690565b6102dd9060086102e29302610149565b6102c2565b90565b906102f091546102cd565b90565b60016102fe8161028d565b82101561031b57610318916103129161029a565b906102e5565b90565b5f80fd5b610328906100af565b9052565b919061033f905f6020850194019061031f565b565b346103715761036d61035c61035736600461025b565b6102f3565b610364610092565b9182918261032c565b0390f35b610098565b346103a6576103863660046101ee565b6103a26103916105cf565b610399610092565b9182918261032c565b0390f35b610098565b5f80fd5b5f80fd5b5f80fd5b909182601f830112156103f15781359167ffffffffffffffff83116103ec5760200192600183028401116103e757565b6103b3565b6103af565b6103ab565b909160a08284031261047c5761040e835f84016100cf565b92602083013567ffffffffffffffff8111610477578161042f9185016103b7565b92909360408101359167ffffffffffffffff8311610472576104568461046f9484016103b7565b939094610466816060860161024c565b9360800161024c565b90565b6100a0565b6100a0565b61009c565b346104b8576104b46104a36104973660046103f6565b95949094939193610fd1565b6104ab610092565b9182918261032c565b0390f35b610098565b6104c690610235565b9052565b91906104dd905f602085019401906104bd565b565b3461050f576104ef3660046101ee565b61050b6104fa610fef565b610502610092565b918291826104ca565b0390f35b610098565b346105425761052c6105273660046100de565b61106a565b610534610092565b8061053e816101fd565b0390f35b610098565b5f80fd5b610553611075565b61055b610588565b565b90565b61057461056f6105799261055d565b6100fc565b6100a4565b90565b61058590610560565b90565b6105996105945f61057c565b6110fe565b565b6105a361054b565b565b5f90565b5f1c90565b6105ba6105bf916105a9565b6102c2565b90565b6105cc90546105ae565b90565b6105d76105a5565b506105e15f6105c2565b90565b906105fc979695949392916105f7611075565b6108c0565b90565b634e487b7160e01b5f52604160045260245ffd5b60209181520190565b90825f939282370152565b601f801991011690565b919061064b816106448161065095610613565b809561061c565b610627565b0190565b92936106a996989795610689610697936080976106a29661067c60a08a01935f8b019061031f565b88830360208a0152610631565b918583036040870152610631565b9660608301906104bd565b01906104bd565b565b6106b3610092565b3d5f823e3d90fd5b6106c49061011b565b90565b5f80fd5b906106d590610627565b810190811067ffffffffffffffff8211176106ef57604052565b6105ff565b60e01b90565b90565b610706816106fa565b0361070d57565b5f80fd5b9050519061071e826106fd565b565b9060208282031261073957610736915f01610711565b90565b61009c565b5f91031261074857565b61009c565b610756906106fa565b9052565b91602061077b92949361077460408201965f83019061074d565b019061031f565b565b6107869061011b565b90565b90565b5f5260205f2090565b5490565b6107a281610795565b8210156107bc576107b460019161078c565b910201905f90565b610279565b1b90565b919060086107e59102916107df60018060a01b03846107c1565b926107c1565b9181191691161790565b90565b919061080861080361081093610127565b6107ef565b9083546107c5565b9055565b9081549168010000000000000000831015610844578261083c91600161084295018155610799565b906107f2565b565b6105ff565b5f1b90565b9061085a60ff91610849565b9181191691161790565b61086d90610192565b90565b90565b9061088861088361088f92610864565b610870565b825461084e565b9055565b92906108af906108bd959360408601918683035f880152610631565b926020818503910152610631565b90565b96919395909296508290849088938891889091926108dc610092565b96615c7788019588871067ffffffffffffffff881117610fcc57889761090997615c7761116b8b39610654565b03905ff08015610fc7579361091d856106bb565b632f2ff15d6109466020610930896106bb565b63a217fddf9061093e610092565b9384926106f4565b82528180610956600482016101fd565b03915afa908115610fc2575f91610f94575b503392803b15610f8f5761098f5f809461099a610983610092565b978896879586946106f4565b84526004840161075a565b03925af18015610f8a57610f5e575b506109b3856106bb565b632f2ff15d6109dc60206109c6896106bb565b63a07023cc906109d4610092565b9384926106f4565b825281806109ec600482016101fd565b03915afa908115610f59575f91610f2b575b503392803b15610f2657610a255f8094610a30610a19610092565b978896879586946106f4565b84526004840161075a565b03925af18015610f2157610ef5575b50610a49856106bb565b632f2ff15d610a726020610a5c896106bb565b63e63ab1e990610a6a610092565b9384926106f4565b82528180610a82600482016101fd565b03915afa908115610ef0575f91610ec2575b503392803b15610ebd57610abb5f8094610ac6610aaf610092565b978896879586946106f4565b84526004840161075a565b03925af18015610eb857610e8c575b50610adf856106bb565b6336568abe610b086020610af2896106bb565b63a07023cc90610b00610092565b9384926106f4565b82528180610b18600482016101fd565b03915afa908115610e87575f91610e59575b50610b343061077d565b92803b15610e5457610b595f8094610b64610b4d610092565b978896879586946106f4565b84526004840161075a565b03925af18015610e4f57610e23575b50610b7d856106bb565b6336568abe610ba66020610b90896106bb565b63e63ab1e990610b9e610092565b9384926106f4565b82528180610bb6600482016101fd565b03915afa908115610e1e575f91610df0575b50610bd23061077d565b92803b15610deb57610bf75f8094610c02610beb610092565b978896879586946106f4565b84526004840161075a565b03925af18015610de657610dba575b50610c1b856106bb565b956336568abe610c456020610c2f896106bb565b63a217fddf90610c3d610092565b9384926106f4565b82528180610c55600482016101fd565b03915afa908115610db5575f91610d87575b50610c713061077d565b98803b15610d8257610c965f8094610ca1610c8a610092565b9d8e96879586946106f4565b84526004840161075a565b03925af1968715610d7d57610d4e97610d51575b50610cd2610cc36001610789565b610ccc886106bb565b90610814565b610cf06001610ceb6002610ce58a6106bb565b90610133565b610873565b610d46610cfc876106bb565b9394919295610d34610d2e7ffd7439309318fc0abb0976e1dddf30d112c3b5c6f4438cca5ee7f70342f97f5996610127565b96610127565b96610d3d610092565b94859485610893565b0390a36106bb565b90565b610d70905f3d8111610d76575b610d6881836106cb565b81019061073e565b5f610cb5565b503d610d5e565b6106ab565b6106c7565b610da8915060203d8111610dae575b610da081836106cb565b810190610720565b5f610c67565b503d610d96565b6106ab565b610dd9905f3d8111610ddf575b610dd181836106cb565b81019061073e565b5f610c11565b503d610dc7565b6106ab565b6106c7565b610e11915060203d8111610e17575b610e0981836106cb565b810190610720565b5f610bc8565b503d610dff565b6106ab565b610e42905f3d8111610e48575b610e3a81836106cb565b81019061073e565b5f610b73565b503d610e30565b6106ab565b6106c7565b610e7a915060203d8111610e80575b610e7281836106cb565b810190610720565b5f610b2a565b503d610e68565b6106ab565b610eab905f3d8111610eb1575b610ea381836106cb565b81019061073e565b5f610ad5565b503d610e99565b6106ab565b6106c7565b610ee3915060203d8111610ee9575b610edb81836106cb565b810190610720565b5f610a94565b503d610ed1565b6106ab565b610f14905f3d8111610f1a575b610f0c81836106cb565b81019061073e565b5f610a3f565b503d610f02565b6106ab565b6106c7565b610f4c915060203d8111610f52575b610f4481836106cb565b810190610720565b5f6109fe565b503d610f3a565b6106ab565b610f7d905f3d8111610f83575b610f7581836106cb565b81019061073e565b5f6109a9565b503d610f6b565b6106ab565b6106c7565b610fb5915060203d8111610fbb575b610fad81836106cb565b810190610720565b5f610968565b503d610fa3565b6106ab565b6106ab565b6105ff565b90610fe8969594939291610fe36105a5565b6105e4565b90565b5f90565b610ff7610feb565b50611002600161028d565b90565b61101690611011611075565b611018565b565b8061103361102d6110285f61057c565b6100af565b916100af565b1461104357611041906110fe565b565b61106661104f5f61057c565b5f918291631e4fbdf760e01b83526004830161032c565b0390fd5b61107390611005565b565b61107d6105cf565b61109661109061108b61115d565b6100af565b916100af565b0361109d57565b6110bf6110a861115d565b5f91829163118cdaa760e01b83526004830161032c565b0390fd5b906110d460018060a01b0391610849565b9181191691161790565b906110f36110ee6110fa92610127565b6107ef565b82546110c3565b9055565b6111075f6105c2565b611111825f6110de565b9061114561113f7f8be0079c531659141344cd1fd0a4f28419497f9722a3daafe3b4186f6b6457e093610127565b91610127565b9161114e610092565b80611158816101fd565b0390a3565b6111656105a5565b50339056fe60e06040523461005c5761001d61001461023c565b9392909261044e565b610025610061565b6150e5610b92823960805181612862015260a05181612452015260c051818181610dec015281816134fe015261486501526150e590f35b610067565b60405190565b5f80fd5b601f801991011690565b634e487b7160e01b5f52604160045260245ffd5b906100939061006b565b810190811060018060401b038211176100ab57604052565b610075565b906100c36100bc610061565b9283610089565b565b5f80fd5b5f80fd5b60018060a01b031690565b6100e1906100cd565b90565b6100ed816100d8565b036100f457565b5f80fd5b90505190610105826100e4565b565b5f80fd5b5f80fd5b60018060401b03811161012b5761012760209161006b565b0190565b610075565b90825f9392825e0152565b9092919261015061014b8261010f565b6100b0565b9381855260208501908284011161016c5761016a92610130565b565b61010b565b9080601f8301121561018f5781602061018c9351910161013b565b90565b610107565b90565b6101a081610194565b036101a757565b5f80fd5b905051906101b882610197565b565b919060a083820312610237576101d2815f85016100f8565b92602081015160018060401b03811161023257826101f1918301610171565b92604082015160018060401b03811161022d576102138461022a928501610171565b9361022181606086016101ab565b936080016101ab565b90565b6100c9565b6100c9565b6100c5565b61025a615c778038038061024f816100b0565b9283398101906101ba565b9091929394565b90565b61027861027361027d926100cd565b610261565b6100cd565b90565b61028990610264565b90565b61029590610280565b90565b5f1b90565b906102a95f1991610298565b9181191691161790565b90565b6102ca6102c56102cf926102b3565b610261565b610194565b90565b90565b906102ea6102e56102f1926102b6565b6102d2565b825461029d565b9055565b90565b61030c610307610311926102f5565b610261565b610194565b90565b60209181520190565b5f7f46756e645661756c743a206e6176206d757374206265203e2030000000000000910152565b610351601a602092610314565b61035a8161031d565b0190565b6103739060208101905f818303910152610344565b90565b1561037d57565b610385610061565b62461bcd60e51b81528061039b6004820161035e565b0390fd5b6103b36103ae6103b892610194565b610261565b610194565b90565b906103d06103cb6103d79261039f565b6102d2565b825461029d565b9055565b90565b6103f26103ed6103f7926102f5565b610298565b6103db565b90565b6104035f6103de565b90565b7ff69ff10a3df3288bad92772f5c483e526b0c6cf77ac120db1f6c7bf1a45540df90565b7f65d7a28e3265b37a6474929f336521b332c1681b933f6cb9f3376673440d862a90565b9061049893926104606104689361028c565b9190916104e1565b6104756103e8600e6102d5565b6104918161048b6104855f6102f8565b91610194565b11610376565b60076103bb565b6104a34260086103bb565b60c0526104b86104b16103fa565b339061087f565b506104cb6104c4610406565b339061087f565b506104de6104d761042a565b339061087f565b50565b906104ec92916104ee565b565b906104f992916104fb565b565b906105069291610508565b565b906105139291610515565b565b906105209291610547565b565b90565b60ff1690565b61053f61053a61054492610522565b610261565b610525565b90565b916105519161057a565b61055a816109df565b905f1461056a575b60a052608052565b50610575601261052b565b610562565b90610584916107c4565b565b5190565b634e487b7160e01b5f52602260045260245ffd5b90600160028304921680156105be575b60208310146105b957565b61058a565b91607f16916105ae565b5f5260205f2090565b601f602091010490565b1b90565b919060086105fa9102916105f45f19846105db565b926105db565b9181191691161790565b919061061a6106156106229361039f565b6102d2565b9083546105df565b9055565b5f90565b61063c91610636610626565b91610604565b565b5f5b82811061064c57505050565b8061065b5f600193850161062a565b01610640565b9190601f8111610671575b505050565b81811161067e575b61066c565b61069361068d6106b1946105c8565b916105d1565b91602061069f826105d1565b91106106b9575b80910191039061063e565b5f8080610679565b505f6106a6565b1c90565b906106d4905f19906008026106c0565b191690565b816106e3916106c4565b906002021790565b906106f581610586565b9060018060401b0382116107b35761071782610711855461059e565b85610661565b602090601f831160011461074b5791809161073a935f9261073f575b50506106d9565b90555b565b90915001515f80610733565b601f1983169161075a856105c8565b925f5b81811061079b57509160029391856001969410610781575b5050500201905561073d565b610791910151601f8416906106c4565b90555f8080610775565b9193602060018192878701518155019501920161075d565b610075565b906107c2916106eb565b565b906107d36107da9260036107b8565b60046107b8565b565b5f90565b151590565b6107ee906103db565b90565b906107fb906107e5565b5f5260205260405f2090565b61081090610264565b90565b61081c90610807565b90565b9061082990610813565b5f5260205260405f2090565b9061084160ff91610298565b9181191691161790565b610854906107e0565b90565b90565b9061086f61086a6108769261084b565b610857565b8254610835565b9055565b5f0190565b6108876107dc565b5061089c610896828490610afa565b156107e0565b5f14610925576108c460016108bf5f6108b7600586906107f1565b01859061081f565b61085a565b906108cd610b28565b9061090a6109046108fe7f2f8788117e7eff1d82e926ec794901d17c78024a50270940304540a733656f0d956107e5565b92610813565b92610813565b92610913610061565b8061091d8161087a565b0390a4600190565b50505f90565b5f90565b61093890610807565b90565b90565b61095261094d6109579261093b565b610261565b610194565b90565b5f1c90565b61096b6109709161095a565b61039f565b90565b61098761098261098c92610525565b610261565b610194565b90565b6109a361099e6109a8926102f5565b610261565b610525565b90565b6109ba6109c09193929361084b565b9261098f565b90565b6109d76109d26109dc92610194565b610261565b610525565b90565b906109e86107dc565b506109f161092b565b50610a4d610a43610a09610a03610b39565b9461092f565b610a11610061565b90610a3e82610a2f60046020830163313ce56760e01b81520161087a565b60208201810382520383610089565b610b4c565b5091909193610b7f565b80610ab0575b80610a8c575b5f14610a7857610a72610a6d60019361095f565b6109c3565b915b9190565b9050610a855f5f906109ab565b9190610a74565b50610a968261095f565b610aa9610aa360ff610973565b91610194565b1115610a59565b50610ab9610b84565b610acc610ac6602061093e565b91610194565b1015610a53565b60ff1690565b610ae5610aea9161095a565b610ad3565b90565b610af79054610ad9565b90565b610b21915f610b16610b1c93610b0e6107dc565b5060056107f1565b0161081f565b610aed565b90565b5f90565b610b30610b24565b503390565b5f90565b610b41610b35565b5060405190565b5f90565b6040915f91610b596107dc565b50610b62610b48565b50610b6b610b48565b50602082519201905afa905f519060205190565b604052565b610b8c610626565b503d9056fe60806040526004361015610013575b611982565b61001d5f3561043c565b806301e1d1141461043757806301ffc9a71461043257806303ba4c441461042d5780630607e5bb1461042857806306fdde031461042357806307a2d13a1461041e57806309499aa614610419578063095ea7b3146104145780630a28a4771461040f5780630cb1982b1461040a57806318160ddd146104055780632289445e1461040057806323b872dd146103fb578063248a9ca3146103f657806324b99a7d146103f15780632696b7e0146103ec5780632f2ff15d146103e7578063313ce567146103e257806336568abe146103dd5780633738de3f146103d857806338d52e0f146103d35780633f4ba83a146103ce578063402d267d146103c95780634336d616146103c457806344c33b4c146103bf57806345b9cdf7146103ba57806348fb77d9146103b55780634cdad506146103b05780635c975abb146103ab5780635d20bbcb146103a65780635e4a9a65146103a15780636e553f651461039c5780637070e2b41461039757806370a082311461039257806376082a5e1461038d5780637f2d9575146103885780638456cb591461038357806391d148541461037e57806394bf804d1461037957806395d89b4114610374578063a07023cc1461036f578063a16ba4e01461036a578063a217fddf14610365578063a9059cbb14610360578063aa2f892d1461035b578063adc565e114610356578063ae09722314610351578063aef722661461034c578063b3d7f6b914610347578063b460af9414610342578063ba0876521461033d578063c63d75b614610338578063c6e6f59214610333578063ce96cb771461032e578063d52f55cc14610329578063d547741f14610324578063d905777e1461031f578063dd62ed3e1461031a578063e1e158a514610315578063e63ab1e914610310578063e767397c1461030b578063ec16d07614610306578063eec6d19a14610301578063ef8b30f7146102fc578063f29dfb33146102f75763fc11cdd60361000e5761194d565b61190a565b6118d5565b6118a2565b61186d565b611823565b6117ee565b61178a565b611721565b6116bf565b61168b565b611656565b611612565b6115dd565b6115a8565b61158d565b611572565b611503565b6114ce565b61148a565b611448565b611415565b6113df565b6113aa565b61133c565b611307565b6112a3565b61126d565b611237565b611204565b6111d1565b61119c565b611138565b611103565b611098565b611032565b610ee5565b610e78565b610e43565b610e0e565b610db5565b610d49565b610d16565b610ce1565b610c90565b610c5b565b610c27565b610ba3565b610b6e565b610b12565b610ab0565b610a45565b610a10565b610974565b610905565b6108c1565b61088e565b610859565b610823565b61079e565b61072d565b6106b7565b610617565b610567565b61052d565b610484565b60e01c90565b60405190565b5f80fd5b5f80fd5b5f91031261045a57565b61044c565b90565b61046b9061045f565b9052565b9190610482905f60208501940190610462565b565b346104b457610494366004610450565b6104b061049f611a73565b6104a7610442565b9182918261046f565b0390f35b610448565b63ffffffff60e01b1690565b6104ce816104b9565b036104d557565b5f80fd5b905035906104e6826104c5565b565b90602082820312610501576104fe915f016104d9565b90565b61044c565b151590565b61051490610506565b9052565b919061052b905f6020850194019061050b565b565b3461055d576105596105486105433660046104e8565b611b5f565b610550610442565b91829182610518565b0390f35b610448565b5f0190565b3461059557610577366004610450565b61057f611e77565b610587610442565b8061059181610562565b0390f35b610448565b1c90565b60018060a01b031690565b6105b99060086105be930261059a565b61059e565b90565b906105cc91546105a9565b90565b6105db60095f906105c1565b90565b60018060a01b031690565b6105f2906105de565b90565b6105fe906105e9565b9052565b9190610615905f602085019401906105f5565b565b3461064757610627366004610450565b6106436106326105cf565b61063a610442565b91829182610602565b0390f35b610448565b5190565b60209181520190565b90825f9392825e0152565b601f801991011690565b61068d61069660209361069b936106848161064c565b93848093610650565b95869101610659565b610664565b0190565b6106b49160208201915f81840391015261066e565b90565b346106e7576106c7366004610450565b6106e36106d26120a7565b6106da610442565b9182918261069f565b0390f35b610448565b6106f58161045f565b036106fc57565b5f80fd5b9050359061070d826106ec565b565b9060208282031261072857610725915f01610700565b90565b61044c565b3461075d5761075961074861074336600461070f565b61213f565b610750610442565b9182918261046f565b0390f35b610448565b90565b90565b61077c61077761078192610762565b610765565b61045f565b90565b61079062093a80610768565b90565b61079b610784565b90565b346107ce576107ae366004610450565b6107ca6107b9610793565b6107c1610442565b9182918261046f565b0390f35b610448565b6107dc816105e9565b036107e357565b5f80fd5b905035906107f4826107d3565b565b919060408382031261081e578061081261081b925f86016107e7565b93602001610700565b90565b61044c565b346108545761085061083f6108393660046107f6565b90612195565b610847610442565b91829182610518565b0390f35b610448565b346108895761088561087461086f36600461070f565b6121b7565b61087c610442565b9182918261046f565b0390f35b610448565b346108bc576108a66108a136600461070f565b6121f2565b6108ae610442565b806108b881610562565b0390f35b610448565b346108f1576108d1366004610450565b6108ed6108dc6121fd565b6108e4610442565b9182918261046f565b0390f35b610448565b610902600a5f906105c1565b90565b3461093557610915366004610450565b6109316109206108f6565b610928610442565b91829182610602565b0390f35b610448565b909160608284031261096f5761096c610955845f85016107e7565b9361096381602086016107e7565b93604001610700565b90565b61044c565b346109a5576109a161099061098a36600461093a565b91612213565b610998610442565b91829182610518565b0390f35b610448565b90565b6109b6816109aa565b036109bd57565b5f80fd5b905035906109ce826109ad565b565b906020828203126109e9576109e6915f016109c1565b90565b61044c565b6109f7906109aa565b9052565b9190610a0e905f602085019401906109ee565b565b34610a4057610a3c610a2b610a263660046109d0565b61228c565b610a33610442565b918291826109fb565b0390f35b610448565b34610a7357610a5d610a5836600461070f565b6123dc565b610a65610442565b80610a6f81610562565b0390f35b610448565b90565b610a8f610a8a610a9492610a78565b610765565b61045f565b90565b610aa261012c610a7b565b90565b610aad610a97565b90565b34610ae057610ac0366004610450565b610adc610acb610aa5565b610ad3610442565b9182918261046f565b0390f35b610448565b9190604083820312610b0d5780610b01610b0a925f86016109c1565b936020016107e7565b90565b61044c565b34610b4157610b2b610b25366004610ae5565b90612411565b610b33610442565b80610b3d81610562565b0390f35b610448565b60ff1690565b610b5590610b46565b9052565b9190610b6c905f60208501940190610b4c565b565b34610b9e57610b7e366004610450565b610b9a610b89612444565b610b91610442565b91829182610b59565b0390f35b610448565b34610bd257610bbc610bb6366004610ae5565b90612482565b610bc4610442565b80610bce81610562565b0390f35b610448565b610be081610506565b03610be757565b5f80fd5b90503590610bf882610bd7565b565b9190604083820312610c225780610c16610c1f925f86016107e7565b93602001610beb565b90565b61044c565b34610c5657610c40610c3a366004610bfa565b90612844565b610c48610442565b80610c5281610562565b0390f35b610448565b34610c8b57610c6b366004610450565b610c87610c76612854565b610c7e610442565b91829182610602565b0390f35b610448565b34610cbe57610ca0366004610450565b610ca86128ad565b610cb0610442565b80610cba81610562565b0390f35b610448565b90602082820312610cdc57610cd9915f016107e7565b90565b61044c565b34610d1157610d0d610cfc610cf7366004610cc3565b6128b7565b610d04610442565b9182918261046f565b0390f35b610448565b34610d4457610d2e610d29366004610cc3565b612a61565b610d36610442565b80610d4081610562565b0390f35b610448565b34610d7757610d61610d5c366004610cc3565b612cb2565b610d69610442565b80610d7381610562565b0390f35b610448565b90565b610d93610d8e610d9892610d7c565b610765565b61045f565b90565b610da762015180610d7f565b90565b610db2610d9b565b90565b34610de557610dc5366004610450565b610de1610dd0610daa565b610dd8610442565b9182918261046f565b0390f35b610448565b7f000000000000000000000000000000000000000000000000000000000000000090565b34610e3e57610e1e366004610450565b610e3a610e29610dea565b610e31610442565b9182918261046f565b0390f35b610448565b34610e7357610e6f610e5e610e5936600461070f565b612cbd565b610e66610442565b9182918261046f565b0390f35b610448565b34610ea857610e88366004610450565b610ea4610e93612cd2565b610e9b610442565b91829182610518565b0390f35b610448565b90565b610ec4610ebf610ec992610ead565b610765565b61045f565b90565b610ed76103e8610eb0565b90565b610ee2610ecc565b90565b34610f1557610ef5366004610450565b610f11610f00610eda565b610f08610442565b9182918261046f565b0390f35b610448565b610f2e610f29610f33926105de565b610765565b6105de565b90565b610f3f90610f1a565b90565b610f4b90610f36565b90565b90610f5890610f42565b5f5260205260405f2090565b5f1c90565b90565b610f78610f7d91610f64565b610f69565b90565b610f8a9054610f6c565b90565b60ff1690565b610f9f610fa491610f64565b610f8d565b90565b610fb19054610f93565b90565b610fbf90600c610f4e565b90610fcb5f8301610f80565b91610fd860018201610f80565b91610ff16003610fea60028501610f80565b9301610fa7565b90565b6110296110309461101f606094989795611015608086019a5f870190610462565b6020850190610462565b6040830190610462565b019061050b565b565b346110665761106261104d611048366004610cc3565b610fb4565b90611059949294610442565b94859485610ff4565b0390f35b610448565b91906040838203126110935780611087611090925f8601610700565b936020016107e7565b90565b61044c565b346110c9576110c56110b46110ae36600461106b565b90612d1a565b6110bc610442565b9182918261046f565b0390f35b610448565b6110de9060086110e3930261059a565b610f69565b90565b906110f191546110ce565b90565b611100600b5f906110e6565b90565b3461113357611113366004610450565b61112f61111e6110f4565b611126610442565b9182918261046f565b0390f35b610448565b346111685761116461115361114e366004610cc3565b612d9f565b61115b610442565b9182918261046f565b0390f35b610448565b7fb165298935924f540e4181c03493a5d686c54a0aaeb3f6216de85b7ffbba773890565b61119961116d565b90565b346111cc576111ac366004610450565b6111c86111b7611191565b6111bf610442565b918291826109fb565b0390f35b610448565b346111ff576111e1366004610450565b6111e9612f48565b6111f1610442565b806111fb81610562565b0390f35b610448565b3461123257611214366004610450565b61121c613088565b611224610442565b8061122e81610562565b0390f35b610448565b346112685761126461125361124d366004610ae5565b906130a8565b61125b610442565b91829182610518565b0390f35b610448565b3461129e5761129a61128961128336600461106b565b906130d2565b611291610442565b9182918261046f565b0390f35b610448565b346112d3576112b3366004610450565b6112cf6112be613142565b6112c6610442565b9182918261069f565b0390f35b610448565b7ff69ff10a3df3288bad92772f5c483e526b0c6cf77ac120db1f6c7bf1a45540df90565b6113046112d8565b90565b3461133757611317366004610450565b6113336113226112fc565b61132a610442565b918291826109fb565b0390f35b610448565b3461136a5761134c366004610450565b611354613282565b61135c610442565b8061136681610562565b0390f35b610448565b90565b5f1b90565b61138b6113866113909261136f565b611372565b6109aa565b90565b61139c5f611377565b90565b6113a7611393565b90565b346113da576113ba366004610450565b6113d66113c561139f565b6113cd610442565b918291826109fb565b0390f35b610448565b346114105761140c6113fb6113f53660046107f6565b90613424565b611403610442565b91829182610518565b0390f35b610448565b346114435761142d61142836600461070f565b6139c4565b611435610442565b8061143f81610562565b0390f35b610448565b346114765761146061145b366004610cc3565b613b07565b611468610442565b8061147281610562565b0390f35b610448565b61148760075f906110e6565b90565b346114ba5761149a366004610450565b6114b66114a561147b565b6114ad610442565b9182918261046f565b0390f35b610448565b6114cb600d5f906110e6565b90565b346114fe576114de366004610450565b6114fa6114e96114bf565b6114f1610442565b9182918261046f565b0390f35b610448565b346115335761152f61151e61151936600461070f565b613b12565b611526610442565b9182918261046f565b0390f35b610448565b909160608284031261156d5761156a611553845f8501610700565b9361156181602086016107e7565b936040016107e7565b90565b61044c565b3461158857611582366004611538565b91613b27565b610448565b346115a35761159d366004611538565b91613b93565b610448565b346115d8576115d46115c36115be366004610cc3565b613bfe565b6115cb610442565b9182918261046f565b0390f35b610448565b3461160d576116096115f86115f336600461070f565b613c0d565b611600610442565b9182918261046f565b0390f35b610448565b346116425761163e61162d611628366004610cc3565b613c63565b611635610442565b9182918261046f565b0390f35b610448565b611653600e5f906110e6565b90565b3461168657611666366004610450565b611682611671611647565b611679610442565b9182918261046f565b0390f35b610448565b346116ba576116a461169e366004610ae5565b90613caa565b6116ac610442565b806116b681610562565b0390f35b610448565b346116ef576116eb6116da6116d5366004610cc3565b613cb6565b6116e2610442565b9182918261046f565b0390f35b610448565b919060408382031261171c5780611710611719925f86016107e7565b936020016107e7565b90565b61044c565b346117525761174e61173d6117373660046116f4565b90613ce1565b611745610442565b9182918261046f565b0390f35b610448565b61176b6117666117709261136f565b610765565b61045f565b90565b61177c5f611757565b90565b611787611773565b90565b346117ba5761179a366004610450565b6117b66117a561177f565b6117ad610442565b9182918261046f565b0390f35b610448565b7f65d7a28e3265b37a6474929f336521b332c1681b933f6cb9f3376673440d862a90565b6117eb6117bf565b90565b3461181e576117fe366004610450565b61181a6118096117e3565b611811610442565b918291826109fb565b0390f35b610448565b346118515761183b61183636600461070f565b613e31565b611843610442565b8061184d81610562565b0390f35b610448565b61185f5f611757565b90565b61186a611856565b90565b3461189d5761187d366004610450565b611899611888611862565b611890610442565b9182918261046f565b0390f35b610448565b346118d0576118ba6118b5366004610cc3565b613fa2565b6118c2610442565b806118cc81610562565b0390f35b610448565b34611905576119016118f06118eb36600461070f565b613fad565b6118f8610442565b9182918261046f565b0390f35b610448565b346119395761192361191d36600461106b565b9061426f565b61192b610442565b8061193581610562565b0390f35b610448565b61194a60085f906110e6565b90565b3461197d5761195d366004610450565b61197961196861193e565b611970610442565b9182918261046f565b0390f35b610448565b5f80fd5b5f90565b61199390610f1a565b90565b61199f9061198a565b90565b6119ab90610f36565b90565b6119b790610f36565b90565b634e487b7160e01b5f52604160045260245ffd5b906119d890610664565b810190811067ffffffffffffffff8211176119f257604052565b6119ba565b60e01b90565b90505190611a0a826106ec565b565b90602082820312611a2557611a22915f016119fd565b90565b61044c565b611a32610442565b3d5f823e3d90fd5b634e487b7160e01b5f52601160045260245ffd5b611a5d611a639193929361045f565b9261045f565b8203918211611a6e57565b611a3a565b611a7b611986565b50611acb6020611a99611a94611a8f612854565b611996565b6119a2565b6370a0823190611ac0611aab306119ae565b92611ab4610442565b958694859384936119f7565b835260048301610602565b03915afa908115611b56575f91611b28575b5080611afa611af4611aef600d610f80565b61045f565b9161045f565b115f14611b1957611b1590611b0f600d610f80565b90611a4e565b5b90565b50611b235f611757565b611b16565b611b49915060203d8111611b4f575b611b4181836119ce565b810190611a0c565b5f611add565b503d611b37565b611a2a565b5f90565b611b67611b5b565b5080611b82611b7c637965db0b60e01b6104b9565b916104b9565b14908115611b8f575b5090565b611b99915061427b565b5f611b8b565b90611ba99061045f565b9052565b90611bb790610506565b9052565b90611bce611bc7610442565b92836119ce565b565b611bda6080611bbb565b90565b90611c44611c3b6003611bee611bd0565b94611c05611bfd5f8301610f80565b5f8801611b9f565b611c1d611c1460018301610f80565b60208801611b9f565b611c35611c2c60028301610f80565b60408801611b9f565b01610fa7565b60608401611bad565b565b611c4f90611bdd565b90565b611c5c905161045f565b90565b5f7f46756e645661756c743a206e6f2070656e64696e672072657175657374000000910152565b611c93601d602092610650565b611c9c81611c5f565b0190565b611cb59060208101905f818303910152611c86565b90565b15611cbf57565b611cc7610442565b62461bcd60e51b815280611cdd60048201611ca0565b0390fd5b611cf0611cf69193929361045f565b9261045f565b91611d0283820261045f565b928184041490151715611d1157565b611a3a565b90565b611d2d611d28611d3292611d16565b610765565b61045f565b90565b634e487b7160e01b5f52601260045260245ffd5b611d55611d5b9161045f565b9161045f565b908115611d66570490565b611d35565b90611d775f1991611372565b9181191691161790565b611d95611d90611d9a9261045f565b610765565b61045f565b90565b90565b90611db5611db0611dbc92611d81565b611d9d565b8254611d6b565b9055565b1b90565b91906008611ddf910291611dd95f1984611dc0565b92611dc0565b9181191691161790565b9190611dff611dfa611e0793611d81565b611d9d565b908354611dc4565b9055565b611e1d91611e17611986565b91611de9565b565b60035f91611e2f83808301611e0b565b611e3c8360018301611e0b565b611e498360028301611e0b565b0155565b634e487b7160e01b5f525f60045260245ffd5b905f03611e7257611e7090611e1f565b565b611e4d565b611e8b611e86600c3390610f4e565b611c46565b611eb1611e995f8301611c52565b611eab611ea55f611757565b9161045f565b11611cb8565b611f07611f00611ef1611eda611ec85f8601611c52565b611ed460208701611c52565b90611ce1565b611eeb670de0b6b3a7640000611d19565b90611d49565b611efb600d610f80565b611a4e565b600d611da0565b611f1c5f611f17600c3390610f4e565b611e60565b611f3a611f28306119ae565b33611f345f8501611c52565b916142a1565b611f465f339201611c52565b90611f86611f747f9aec5cafc1451c1485e4a0099bd4dfb4c9d2bb972b4e5c798da07db8323deaa392610f42565b92611f7d610442565b9182918261046f565b0390a2565b606090565b634e487b7160e01b5f52602260045260245ffd5b9060016002830492168015611fc4575b6020831014611fbf57565b611f90565b91607f1691611fb4565b60209181520190565b5f5260205f2090565b905f9291805490611ffa611ff383611fa4565b8094611fce565b916001811690815f146120515750600114612015575b505050565b6120229192939450611fd7565b915f925b81841061203957505001905f8080612010565b60018160209295939554848601520191019290612026565b92949550505060ff19168252151560200201905f8080612010565b9061207691611fe0565b90565b9061209961209292612089610442565b9384809261206c565b03836119ce565b565b6120a490612079565b90565b6120af611f8b565b506120ba600361209b565b90565b5f7f46756e645661756c743a206e6176206e6f742073657400000000000000000000910152565b6120f16016602092610650565b6120fa816120bd565b0190565b6121139060208101905f8183039101526120e4565b90565b1561211d57565b612125610442565b62461bcd60e51b81528061213b600482016120fe565b0390fd5b61217b6121929161214e611986565b506121596007610f80565b906121768261217061216a5f611757565b9161045f565b11612116565b611ce1565b61218c670de0b6b3a7640000611d19565b90611d49565b90565b6121b2916121a1611b5b565b506121aa61433e565b91909161434b565b600190565b6121c9906121c3611986565b50613c0d565b90565b6121e5906121e06121db6112d8565b61435b565b6121e7565b565b6121f0906143f1565b565b6121fb906121cc565b565b612205611986565b506122106002610f80565b90565b9161223d92612220611b5b565b5061223561222c61433e565b8290849161450a565b9190916142a1565b600190565b5f90565b61224f906109aa565b90565b9061225c90612246565b5f5260205260405f2090565b90565b61227761227c91610f64565b612268565b90565b612289905461226b565b90565b60016122a56122ab9261229d612242565b506005612252565b0161227f565b90565b6122c7906122c26122bd611393565b61435b565b61236e565b565b5f7f46756e645661756c743a206e6176206d757374206265203e2030000000000000910152565b6122fd601a602092610650565b612306816122c9565b0190565b61231f9060208101905f8183039101526122f0565b90565b1561232957565b612331610442565b62461bcd60e51b8152806123476004820161230a565b0390fd5b91602061236c92949361236560408201965f830190610462565b0190610462565b565b61238a8161238461237e5f611757565b9161045f565b11612322565b612395816007611da0565b6123a0426008611da0565b427f224bbf4ba043354bee6487d05aa90892db4426afe8e3aa79007d0eae1b985ebc916123d76123ce610442565b9283928361234b565b0390a1565b6123e5906122ae565b565b90612402916123fd6123f88261228c565b61435b565b612404565b565b9061240e91614596565b50565b9061241b916123e7565b565b5f90565b61242d61243391610b46565b91610b46565b019060ff821161243f57565b611a3a565b61244c61241d565b5061247f7f0000000000000000000000000000000000000000000000000000000000000000612479614661565b90612421565b90565b908061249d61249761249261433e565b6105e9565b916105e9565b036124ae576124ab91614677565b50565b5f63334bd91960e11b8152806124c660048201610562565b0390fd5b906124e4916124df6124da611393565b61435b565b61261a565b565b6124f09051610506565b90565b5f7f46756e645661756c743a206e6f74206469737075746564000000000000000000910152565b6125276017602092610650565b612530816124f3565b0190565b6125499060208101905f81830391015261251a565b90565b1561255357565b61255b610442565b62461bcd60e51b81528061257160048201612534565b0390fd5b5f7f46756e645661756c743a206475737420726564656d7074696f6e000000000000910152565b6125a9601a602092610650565b6125b281612575565b0190565b6125cb9060208101905f81830391015261259c565b90565b156125d557565b6125dd610442565b62461bcd60e51b8152806125f3600482016125b6565b0390fd5b91602061261892949361261160408201965f83019061050b565b0190610462565b565b9061278d5f61263361262e600c8690610f4e565b611c46565b9361265a612642838701611c52565b61265461264e85611757565b9161045f565b11611cb8565b61266e612669606087016124e6565b61254c565b6126a861269161267f848801611c52565b61268b60208901611c52565b90611ce1565b6126a2670de0b6b3a7640000611d19565b90611d49565b6126c56126be826126b9600d610f80565b611a4e565b600d611da0565b6126da836126d5600c8590610f4e565b611e60565b8483146127d1576126fd816126f76126f186611757565b9161045f565b116125ce565b61271a612709306119ae565b612714858901611c52565b90614719565b61273561272d612728612854565b611996565b838391614778565b81612741848801611c52565b9161276c7fd102e8852f4a66ebe22d1d0d84b30e1e4660b1966bd4b870c08bcec012f98abb92610f42565b92612781612778610442565b9283928361234b565b0390a25b929301611c52565b6127b77fbea3b200475ea5abb980039cc05180ab0f872b391dfd82f8267d821356c2929592610f42565b926127cc6127c3610442565b928392836125f7565b0390a2565b506127f06127de306119ae565b826127ea858901611c52565b916142a1565b806127fc838701611c52565b9061283c61282a7f9aec5cafc1451c1485e4a0099bd4dfb4c9d2bb972b4e5c798da07db8323deaa392610f42565b92612833610442565b9182918261046f565b0390a2612785565b9061284e916124ca565b565b5f90565b61285c612850565b506128867f00000000000000000000000000000000000000000000000000000000000000006119a2565b90565b6128996128946117bf565b61435b565b6128a16128a3565b565b6128ab61481f565b565b6128b5612889565b565b506128c0611986565b505f1990565b6128df906128da6128d56112d8565b61435b565b6129ab565b565b90565b5f7f46756e645661756c743a20616c72656164792064697370757465640000000000910152565b612918601b602092610650565b612921816128e4565b0190565b61293a9060208101905f81830391015261290b565b90565b1561294457565b61294c610442565b62461bcd60e51b81528061296260048201612925565b0390fd5b9061297260ff91611372565b9181191691161790565b61298590610506565b90565b90565b906129a061299b6129a79261297c565b612988565b8254612966565b9055565b612a1c5f6129c36129be600c8590610f4e565b6128e1565b926129ea6129d2838601610f80565b6129e46129de85611757565b9161045f565b11611cb8565b612a07612a026129fc60038701610fa7565b15610506565b61293d565b612a1560016003860161298b565b9201610f80565b90612a5c612a4a7fa2e79c1f176cd95832ea163b37c0e24ff504120b04f53dbfcb7ddb667d0c4c9292610f42565b92612a53610442565b9182918261046f565b0390a2565b612a6a906128c6565b565b612a8590612a80612a7b6112d8565b61435b565b612b2e565b565b612a96612a9c9193929361045f565b9261045f565b8201809211612aa757565b611a3a565b5f7f46756e645661756c743a20636f6f6c646f776e206e6f7420656c617073656400910152565b612ae0601f602092610650565b612ae981612aac565b0190565b612b029060208101905f818303910152612ad3565b90565b15612b0c57565b612b14610442565b62461bcd60e51b815280612b2a60048201612aed565b0390fd5b612b42612b3d600c8390610f4e565b611c46565b612b68612b505f8301611c52565b612b62612b5c5f611757565b9161045f565b11611cb8565b612ba142612b9a612b94612b8f612b8160408701611c52565b612b89610a97565b90612a87565b61045f565b9161045f565b1015612b05565b612c6d5f612bdf612bc8612bb6838601611c52565b612bc260208701611c52565b90611ce1565b612bd9670de0b6b3a7640000611d19565b90611d49565b93612bfc85612bf6612bf085611757565b9161045f565b116125ce565b612c19612c1286612c0d600d610f80565b611a4e565b600d611da0565b612c2e82612c29600c8490610f4e565b611e60565b612c4b612c3a306119ae565b612c45848701611c52565b90614719565b612c66612c5e612c59612854565b611996565b828791614778565b9201611c52565b91612c987fd102e8852f4a66ebe22d1d0d84b30e1e4660b1966bd4b870c08bcec012f98abb92610f42565b92612cad612ca4610442565b9283928361234b565b0390a2565b612cbb90612a6c565b565b612ccf90612cc9611986565b5061213f565b90565b612cda611b5b565b50612ce56006610fa7565b90565b604090612d11612d189496959396612d0760608401985f8501906105f5565b6020830190610462565b0190610462565b565b90612d23611986565b50612d2d816128b7565b82612d40612d3a8361045f565b9161045f565b11612d675750612d6490612d5383613fad565b92612d5c61433e565b918492614a4f565b90565b82612d858391925f938493633c8097d960e11b855260048501612ce8565b0390fd5b90612d9390610f42565b5f5260205260405f2090565b612db5612dba91612dae611986565b505f612d89565b610f80565b90565b612dc9612dce91610f64565b61059e565b90565b612ddb9054612dbd565b90565b612df2612ded612df79261136f565b610765565b6105de565b90565b612e0390612dde565b90565b5f7f46756e645661756c743a206e6f2070656e64696e67206f7261636c6500000000910152565b612e3a601c602092610650565b612e4381612e06565b0190565b612e5c9060208101905f818303910152612e2d565b90565b15612e6657565b612e6e610442565b62461bcd60e51b815280612e8460048201612e47565b0390fd5b5f7f46756e645661756c743a2074696d656c6f636b20616374697665000000000000910152565b612ebc601a602092610650565b612ec581612e88565b0190565b612ede9060208101905f818303910152612eaf565b90565b15612ee857565b612ef0610442565b62461bcd60e51b815280612f0660048201612ec9565b0390fd5b90612f1b60018060a01b0391611372565b9181191691161790565b90565b90612f3d612f38612f4492610f42565b612f25565b8254612f0a565b9055565b612f76612f556009612dd1565b612f6f612f69612f645f612dfa565b6105e9565b916105e9565b1415612e5f565b612f9c42612f95612f8f612f8a600b610f80565b61045f565b9161045f565b1015612ee1565b612fa66009612dd1565b612fb9612fb25f612dfa565b6009612f28565b612fc3600a612dd1565b612fdd612fd7612fd25f612dfa565b6105e9565b916105e9565b03613043575b612fee81600a612f28565b613000612ff96112d8565b8290614596565b5061302b7f6441767b1c31b00c1dddc4705a7d74eeed8b80cd113fa408e13df67daa152dea91610f42565b90613034610442565b8061303e81610562565b0390a2565b61305e61304e6112d8565b613058600a612dd1565b90614677565b50612fe3565b61307461306f6117bf565b61435b565b61307c61307e565b565b613086614abe565b565b613090613064565b565b9061309c90610f42565b5f5260205260405f2090565b6130cf915f6130c46130ca936130bc611b5b565b506005612252565b01613092565b610fa7565b90565b906130db611986565b506130e581613bfe565b826130f86130f28361045f565b9161045f565b11613120575061311d9061310b83613b12565b9261311461433e565b91849192614a4f565b90565b8261313e8391925f93849363284ff66760e01b855260048501612ce8565b0390fd5b61314a611f8b565b50613155600461209b565b90565b5f7f46756e645661756c743a20726564656d7074696f6e2064697370757465640000910152565b61318c601e602092610650565b61319581613158565b0190565b6131ae9060208101905f81830391015261317f565b90565b156131b857565b6131c0610442565b62461bcd60e51b8152806131d660048201613199565b0390fd5b60207f7420656c61707365640000000000000000000000000000000000000000000000917f46756e645661756c743a206175746f2d72656c656173652064656c6179206e6f5f8201520152565b6132346029604092610650565b61323d816131da565b0190565b6132569060208101905f818303910152613227565b90565b1561326057565b613268610442565b62461bcd60e51b81528061327e60048201613241565b0390fd5b613296613291600c3390610f4e565b611c46565b6132bc6132a45f8301611c52565b6132b66132b05f611757565b9161045f565b11611cb8565b6132d96132d46132ce606084016124e6565b15610506565b6131b1565b6133124261330b6133056133006132f260408701611c52565b6132fa610784565b90612a87565b61045f565b9161045f565b1015613259565b61334c6133356133235f8401611c52565b61332f60208501611c52565b90611ce1565b613346670de0b6b3a7640000611d19565b90611d49565b906133698261336361335d5f611757565b9161045f565b116125ce565b61338661337f8361337a600d610f80565b611a4e565b600d611da0565b61339b5f613396600c3390610f4e565b611e60565b6133b86133a7306119ae565b6133b25f8401611c52565b90614719565b6133d36133cb6133c6612854565b611996565b338491614778565b6133df5f339201611c52565b9161340a7f20e504fdcba8387aee6a4eabd2423467c9dab4c788aec326e5e96cd83a8b26fb92610f42565b9261341f613416610442565b9283928361234b565b0390a2565b61344191613430611b5b565b5061343961433e565b9190916142a1565b600190565b61345790613452614ac8565b6134db565b565b5f7f46756e645661756c743a204e4156207374616c65000000000000000000000000910152565b61348d6014602092610650565b61349681613459565b0190565b6134af9060208101905f818303910152613480565b90565b156134b957565b6134c1610442565b62461bcd60e51b8152806134d76004820161349a565b0390fd5b6135349061352f6134f6426134f06008610f80565b90611a4e565b6135286135227f000000000000000000000000000000000000000000000000000000000000000061045f565b9161045f565b11156134b2565b6137da565b565b5f7f46756e645661756c743a20736861726573206d757374206265203e2030000000910152565b61356a601d602092610650565b61357381613536565b0190565b61358c9060208101905f81830391015261355d565b90565b1561359657565b61359e610442565b62461bcd60e51b8152806135b460048201613577565b0390fd5b5f7f46756e645661756c743a20726571756573742070656e64696e67000000000000910152565b6135ec601a602092610650565b6135f5816135b8565b0190565b61360e9060208101905f8183039101526135df565b90565b1561361857565b613620610442565b62461bcd60e51b815280613636600482016135f9565b0390fd5b5f7f46756e645661756c743a20696e73756666696369656e74207368617265730000910152565b61366e601e602092610650565b6136778161363a565b0190565b6136909060208101905f818303910152613661565b90565b1561369a57565b6136a2610442565b62461bcd60e51b8152806136b86004820161367b565b0390fd5b90565b6136d36136ce6136d8926136bc565b610765565b61045f565b90565b5f7f46756e645661756c743a2065786365656473206d617820657869742073697a65910152565b61370e60208092610650565b613717816136db565b0190565b6137309060208101905f818303910152613702565b90565b1561373a57565b613742610442565b62461bcd60e51b8152806137586004820161371b565b0390fd5b6137666080611bbb565b90565b906137c6606060036137cc9461378c5f82016137865f8801611c52565b90611da0565b6137a56001820161379f60208801611c52565b90611da0565b6137be600282016137b860408801611c52565b90611da0565b0192016124e6565b9061298b565b565b906137d891613769565b565b6137f6816137f06137ea5f611757565b9161045f565b1161358f565b61382761380f5f613809600c3390610f4e565b01610f80565b61382161381b5f611757565b9161045f565b14613611565b61384c61383333612d9f565b61384561383f8461045f565b9161045f565b1015613693565b6138796138576121fd565b8061386a6138645f611757565b9161045f565b14908115613980575b50613733565b6138c36138bc6138ad613896846138906007610f80565b90611ce1565b6138a7670de0b6b3a7640000611d19565b90611d49565b6138b7600d610f80565b612a87565b600d611da0565b6138d7336138d0306119ae565b83916142a1565b613931816139206138e86007610f80565b6139174261390e5f936139056138fc61375c565b975f8901611b9f565b60208701611b9f565b60408501611b9f565b60608301611bad565b61392c600c3390610f4e565b6137ce565b3361393c6007610f80565b6139667f46949ee51143d5b58e4df83122d6c382a04f7bffbe563f78cd7fa61ee519ec0892610f42565b9261397b613972610442565b9283928361234b565b0390a2565b90506139bc6139b66139b16139a0869461399a600e610f80565b90611ce1565b6139ab6127106136bf565b90611d49565b61045f565b9161045f565b11155f613873565b6139cd90613446565b565b6139e8906139e36139de611393565b61435b565b613a6c565b565b5f7f46756e645661756c743a207a65726f2061646472657373000000000000000000910152565b613a1e6017602092610650565b613a27816139ea565b0190565b613a409060208101905f818303910152613a11565b90565b15613a4a57565b613a52610442565b62461bcd60e51b815280613a6860048201613a2b565b0390fd5b613a9181613a8a613a84613a7f5f612dfa565b6105e9565b916105e9565b1415613a43565b613a9c816009612f28565b613ab8613ab142613aab610d9b565b90612a87565b600b611da0565b613ac2600b610f80565b90613b02613af07ff87ff972014a6a542520a6e3b690c38076efdb1082bae938540b186c4551090092610f42565b92613af9610442565b9182918261046f565b0390a2565b613b10906139cf565b565b613b2490613b1e611986565b5061213f565b90565b919091613b32611986565b50613b3c82613c63565b81613b4f613b498361045f565b9161045f565b11613b715750613b5e816121b7565b91613b6761433e565b9390919293614b4b565b91613b8f9091925f938493633fa733bb60e21b855260048501612ce8565b0390fd5b9091613b9d611986565b50613ba781613cb6565b82613bba613bb48361045f565b9161045f565b11613bdc5750613bc982612cbd565b90613bd261433e565b9390919293614b4b565b82613bfa8391925f938493632e52afbb60e21b855260048501612ce8565b0390fd5b50613c07611986565b505f1990565b613c6090613c19611986565b50613c5b613c276007610f80565b91613c4483613c3e613c385f611757565b9161045f565b11612116565b613c55670de0b6b3a7640000611d19565b90611ce1565b611d49565b90565b613c78613c7d91613c72611986565b50613cb6565b612cbd565b90565b90613c9b91613c96613c918261228c565b61435b565b613c9d565b565b90613ca791614677565b50565b90613cb491613c80565b565b613cc890613cc2611986565b50612d9f565b90565b90613cd590610f42565b5f5260205260405f2090565b613d0691613cfc613d0192613cf4611986565b506001613ccb565b612d89565b610f80565b90565b613d2290613d1d613d18611393565b61435b565b613da6565b565b5f7f46756e645661756c743a20627073206f7574206f662072616e67650000000000910152565b613d58601b602092610650565b613d6181613d24565b0190565b613d7a9060208101905f818303910152613d4b565b90565b15613d8457565b613d8c610442565b62461bcd60e51b815280613da260048201613d65565b0390fd5b80613db9613db35f611757565b9161045f565b1180613e0f575b613dc990613d7d565b613dd481600e611da0565b613e0a7f91cdc265d5033ef80a03651bd13b4be0871de7f78dd04b211a394717d77163ef91613e01610442565b9182918261046f565b0390a1565b50613dc981613e28613e226127106136bf565b9161045f565b11159050613dc0565b613e3a90613d09565b565b613e5590613e50613e4b611393565b61435b565b613e57565b565b613e6b613e66600c8390610f4e565b611c46565b613e91613e795f8301611c52565b613e8b613e855f611757565b9161045f565b11611cb8565b613f5d5f613ecf613eb8613ea6838601611c52565b613eb260208701611c52565b90611ce1565b613ec9670de0b6b3a7640000611d19565b90611d49565b93613eec85613ee6613ee085611757565b9161045f565b116125ce565b613f09613f0286613efd600d610f80565b611a4e565b600d611da0565b613f1e82613f19600c8490610f4e565b611e60565b613f3b613f2a306119ae565b613f35848701611c52565b90614719565b613f56613f4e613f49612854565b611996565b828791614778565b9201611c52565b91613f887fd102e8852f4a66ebe22d1d0d84b30e1e4660b1966bd4b870c08bcec012f98abb92610f42565b92613f9d613f94610442565b9283928361234b565b0390a2565b613fab90613e3c565b565b613fbf90613fb9611986565b50613c0d565b90565b90613fdc91613fd7613fd2611393565b61435b565b614108565b565b5f7f46756e645661756c743a20616d6f756e74206d757374206265203e2030000000910152565b614012601d602092610650565b61401b81613fde565b0190565b6140349060208101905f818303910152614005565b90565b1561403e57565b614046610442565b62461bcd60e51b81528061405c6004820161401f565b0390fd5b60207f6974616c00000000000000000000000000000000000000000000000000000000917f46756e645661756c743a20696e73756666696369656e742066726565206361705f8201520152565b6140ba6024604092610650565b6140c381614060565b0190565b6140dc9060208101905f8183039101526140ad565b90565b156140e657565b6140ee610442565b62461bcd60e51b815280614104600482016140c7565b0390fd5b906141258261411f6141195f611757565b9161045f565b11614037565b61414a8161414361413d6141385f612dfa565b6105e9565b916105e9565b1415613a43565b61419a82602061416861416361415e612854565b611996565b6119a2565b6370a082319061418f61417a306119ae565b92614183610442565b968794859384936119f7565b835260048301610602565b03915afa91821561426a576141d06141cb6141dd946141d6935f9161423c575b506141c5600d610f80565b90611a4e565b61045f565b9161045f565b11156140df565b6141f86141f06141eb612854565b611996565b828491614778565b6142376142257f4d81bbe4082f7e517d393affbb296d4d970e377fd351719a011a8d09e7ca247492610f42565b9261422e610442565b9182918261046f565b0390a2565b61425d915060203d8111614263575b61425581836119ce565b810190611a0c565b5f6141ba565b503d61424b565b611a2a565b9061427991613fc2565b565b614283611b5b565b5061429d6142976301ffc9a760e01b6104b9565b916104b9565b1490565b91826142bd6142b76142b25f612dfa565b6105e9565b916105e9565b1461431757816142dd6142d76142d25f612dfa565b6105e9565b916105e9565b146142f0576142ee92919091614b7b565b565b6143136142fc5f612dfa565b5f91829163ec442f0560e01b835260048301610602565b0390fd5b61433a6143235f612dfa565b5f918291634b637e8f60e11b835260048301610602565b0390fd5b614346612850565b503390565b916143599291600192614cea565b565b61436d9061436761433e565b90614e1c565b565b5f7f46756e645661756c743a204e4156206368616e676520746f6f206c6172676500910152565b6143a3601f602092610650565b6143ac8161436f565b0190565b6143c59060208101905f818303910152614396565b90565b156143cf57565b6143d7610442565b62461bcd60e51b8152806143ed600482016143b0565b0390fd5b61440d816144076144015f611757565b9161045f565b11612322565b61447d61441a6007610f80565b8261442d6144278361045f565b9161045f565b115f146144cf5761445c90614457614446858390611a4e565b6144516127106136bf565b90611ce1565b611d49565b5b61447661447061446b610ecc565b61045f565b9161045f565b11156143c8565b614488816007611da0565b614493426008611da0565b427f224bbf4ba043354bee6487d05aa90892db4426afe8e3aa79007d0eae1b985ebc916144ca6144c1610442565b9283928361234b565b0390a1565b806144f26144e16144f7938690611a4e565b6144ec6127106136bf565b90611ce1565b611d49565b61445d565b90614507910361045f565b90565b929192614518818390613ce1565b908161452d6145275f1961045f565b9161045f565b1061453a575b5050509050565b8161454d6145478761045f565b9161045f565b106145735761456a93946145629193926144fc565b905f92614cea565b805f8080614533565b50614592849291925f938493637dc7a0d960e11b855260048501612ce8565b0390fd5b61459e611b5b565b506145b36145ad8284906130a8565b15610506565b5f1461463c576145db60016145d65f6145ce60058690612252565b018590613092565b61298b565b906145e461433e565b9061462161461b6146157f2f8788117e7eff1d82e926ec794901d17c78024a50270940304540a733656f0d95612246565b92610f42565b92610f42565b9261462a610442565b8061463481610562565b0390a4600190565b50505f90565b90565b61465961465461465e92614642565b610765565b610b46565b90565b61466961241d565b50614674600c614645565b90565b61467f611b5b565b5061468b8183906130a8565b5f14614713576146b25f6146ad5f6146a560058690612252565b018590613092565b61298b565b906146bb61433e565b906146f86146f26146ec7ff6391f5c32d9c69d2a47ea670b442974b53935d1edc7fd64eb21e047a839171b95612246565b92610f42565b92610f42565b92614701610442565b8061470b81610562565b0390a4600190565b50505f90565b908161473561472f61472a5f612dfa565b6105e9565b916105e9565b146147515761474f91906147485f612dfa565b9091614b7b565b565b61477461475d5f612dfa565b5f918291634b637e8f60e11b835260048301610602565b0390fd5b916147919161478b918491600192614e57565b15610506565b6147985750565b6147a46147bb916119a2565b5f918291635274afe760e01b835260048301610602565b0390fd5b6147c7614ec1565b6147cf6147d1565b565b6147dc5f600661298b565b6147e461433e565b61481a7f5db9ee0a495bf2e6ff9c91a7834c1ba4fdd244a5e8aa4e537bd38aeae4b073aa91614811610442565b91829182610602565b0390a1565b6148276147bf565b565b9061483d939291614838614ac8565b61483f565b565b9061489b93929161489661485d426148576008610f80565b90611a4e565b61488f6148897f000000000000000000000000000000000000000000000000000000000000000061045f565b9161045f565b11156134b2565b6149ed565b565b60207f6400000000000000000000000000000000000000000000000000000000000000917f46756e645661756c743a2063616c6c6572206e6f742077686974656c697374655f8201520152565b6148f76021604092610650565b6149008161489d565b0190565b6149199060208101905f8183039101526148ea565b90565b1561492357565b61492b610442565b62461bcd60e51b81528061494160048201614904565b0390fd5b60207f7465640000000000000000000000000000000000000000000000000000000000917f46756e645661756c743a207265636569766572206e6f742077686974656c69735f8201520152565b61499f6023604092610650565b6149a881614945565b0190565b6149c19060208101905f818303910152614992565b90565b156149cb57565b6149d3610442565b62461bcd60e51b8152806149e9600482016149ac565b0390fd5b91614a4d939192614a1082614a0a614a045f611757565b9161045f565b11614037565b614a2a614a25614a1e61116d565b83906130a8565b61491c565b614a44614a3f614a3861116d565b86906130a8565b6149c4565b92909192614ef4565b565b90614a5b939291614829565b565b614a65614ac8565b614a6d614a6f565b565b614a7b6001600661298b565b614a8361433e565b614ab97f62e78cea01bee320cd4e420270b5ea74000d11b0c9f74754ebdbfc544b05a25891614ab0610442565b91829182610602565b0390a1565b614ac6614a5d565b565b614ad0612cd2565b614ad657565b5f63d93c066560e01b815280614aee60048201610562565b0390fd5b5f7f46756e645661756c743a20757365207265717565737452656465656d00000000910152565b614b26601c602092610650565b614b2f81614af2565b0190565b614b489060208101905f818303910152614b19565b90565b614b53610442565b62461bcd60e51b815280614b6960048201614b33565b0390fd5b90614b78910161045f565b90565b91909180614b99614b93614b8e5f612dfa565b6105e9565b916105e9565b145f14614c7a57614bbd614bb683614bb16002610f80565b612a87565b6002611da0565b5b82614bd9614bd3614bce5f612dfa565b6105e9565b916105e9565b145f14614c4e57614bfd614bf683614bf16002610f80565b6144fc565b6002611da0565b5b919091614c49614c37614c317fddf252ad1be2c89b69c2b068fc378daa952ba7f163c4a11628f55a4df523b3ef93610f42565b93610f42565b93614c40610442565b9182918261046f565b0390a3565b614c7582614c6f614c605f8790612d89565b91614c6a83610f80565b614b6d565b90611da0565b614bfe565b614c8d614c885f8390612d89565b610f80565b80614ca0614c9a8561045f565b9161045f565b10614cc857614cb3614cc39184906144fc565b614cbe5f8490612d89565b611da0565b614bbe565b90614ce69091925f93849363391434e360e21b855260048501612ce8565b0390fd5b909281614d07614d01614cfc5f612dfa565b6105e9565b916105e9565b14614dd25783614d27614d21614d1c5f612dfa565b6105e9565b916105e9565b14614dab57614d4b83614d46614d3f60018690613ccb565b8790612d89565b611da0565b614d55575b505050565b919091614da0614d8e614d887f8c5be1e5ebec7d5bd14f71427d1e84f3dd0314c0f7b2291e5b200ac8c7c3b92593610f42565b93610f42565b93614d97610442565b9182918261046f565b0390a35f8080614d50565b614dce614db75f612dfa565b5f918291634a1406b160e11b835260048301610602565b0390fd5b614df5614dde5f612dfa565b5f91829163e602df0560e01b835260048301610602565b0390fd5b916020614e1a929493614e1360408201965f8301906105f5565b01906109ee565b565b90614e31614e2b8383906130a8565b15610506565b614e39575050565b614e535f92839263e2517d3f60e01b845260048401614df9565b0390fd5b9091939293614e64611b5b565b5063a9059cbb60e01b92604051935f525f1960601c1660045260245260205f60448180855af19360015f5114851615614e9f575b5050604052565b8492941516614eb8575f903b113d151616915f80614e98565b833d5f823e3d90fd5b614ed2614ecc612cd2565b15610506565b614ed857565b5f638dfc202b60e01b815280614ef060048201610562565b0390fd5b614eff818490614f66565b614f0a828590614f8d565b909192614f40614f3a7fdcbc1c05240f31ff3ad067ef1ee35ce4997762752e3a095284754544f4c709d793610f42565b93610f42565b93614f55614f4c610442565b9283928361234b565b0390a3565b614f6390610f36565b90565b614f8b91614f7a614f75612854565b611996565b91614f8430614f5a565b9192614feb565b565b80614fa8614fa2614f9d5f612dfa565b6105e9565b916105e9565b14614fc457614fc291614fba5f612dfa565b919091614b7b565b565b614fe7614fd05f612dfa565b5f91829163ec442f0560e01b835260048301610602565b0390fd5b929061500892615002928592919091600193615036565b15610506565b61500f5750565b61501b615032916119a2565b5f918291635274afe760e01b835260048301610602565b0390fd5b91949394929092615045611b5b565b506323b872dd60e01b93604051945f525f1960601c166004525f1960601c1660245260445260205f60648180855af19360015f511485161561508d575b50506040525f606052565b84929415166150a6575f903b113d151616915f80615082565b833d5f823e3d90fdfea2646970667358221220a079a07706e764ee3fef95cf8d4d1f3f19fe0a7a9aa328c24b314dd135aa122364736f6c63430008210033a2646970667358221220eac957fe54887a95a8de0ccfbe3ce79348386938cb326d619798d78ec48e1c8c64736f6c63430008210033","linkReferences":{}},"methodIdentifiers":{"deployVault(address,string,string,uint256,uint256)":"9ac78860","isVault(address)":"652b9b41","owner()":"8da5cb5b","renounceOwnership()":"715018a6","transferOwnership(address)":"f2fde38b","vaultCount()":"a7c6a100","vaults(uint256)":"8c64ea4a"},"id":62}