{"abi":[{"type":"constructor","inputs":[{"name":"_usdc","type":"address","internalType":"address"},{"name":"_registry","type":"address","internalType":"address"},{"name":"_admin","type":"address","internalType":"address"}],"stateMutability":"nonpayable"},{"type":"function","name":"allowance","inputs":[{"name":"owner","type":"address","internalType":"address"},{"name":"spender","type":"address","internalType":"address"}],"outputs":[{"name":"","type":"uint256","internalType":"uint256"}],"stateMutability":"view"},{"type":"function","name":"approve","inputs":[{"name":"spender","type":"address","internalType":"address"},{"name":"value","type":"uint256","internalType":"uint256"}],"outputs":[{"name":"","type":"bool","internalType":"bool"}],"stateMutability":"nonpayable"},{"type":"function","name":"balanceOf","inputs":[{"name":"account","type":"address","internalType":"address"}],"outputs":[{"name":"","type":"uint256","internalType":"uint256"}],"stateMutability":"view"},{"type":"function","name":"decimals","inputs":[],"outputs":[{"name":"","type":"uint8","internalType":"uint8"}],"stateMutability":"view"},{"type":"function","name":"deposit","inputs":[{"name":"amount","type":"uint256","internalType":"uint256"}],"outputs":[],"stateMutability":"nonpayable"},{"type":"function","name":"name","inputs":[],"outputs":[{"name":"","type":"string","internalType":"string"}],"stateMutability":"view"},{"type":"function","name":"owner","inputs":[],"outputs":[{"name":"","type":"address","internalType":"address"}],"stateMutability":"view"},{"type":"function","name":"redeem","inputs":[{"name":"amount","type":"uint256","internalType":"uint256"}],"outputs":[],"stateMutability":"nonpayable"},{"type":"function","name":"registry","inputs":[],"outputs":[{"name":"","type":"address","internalType":"contract AccessRegistry"}],"stateMutability":"view"},{"type":"function","name":"renounceOwnership","inputs":[],"outputs":[],"stateMutability":"nonpayable"},{"type":"function","name":"symbol","inputs":[],"outputs":[{"name":"","type":"string","internalType":"string"}],"stateMutability":"view"},{"type":"function","name":"totalLiquidity","inputs":[],"outputs":[{"name":"","type":"uint256","internalType":"uint256"}],"stateMutability":"view"},{"type":"function","name":"totalSupply","inputs":[],"outputs":[{"name":"","type":"uint256","internalType":"uint256"}],"stateMutability":"view"},{"type":"function","name":"transfer","inputs":[{"name":"to","type":"address","internalType":"address"},{"name":"value","type":"uint256","internalType":"uint256"}],"outputs":[{"name":"","type":"bool","internalType":"bool"}],"stateMutability":"nonpayable"},{"type":"function","name":"transferFrom","inputs":[{"name":"from","type":"address","internalType":"address"},{"name":"to","type":"address","internalType":"address"},{"name":"value","type":"uint256","internalType":"uint256"}],"outputs":[{"name":"","type":"bool","internalType":"bool"}],"stateMutability":"nonpayable"},{"type":"function","name":"transferOwnership","inputs":[{"name":"newOwner","type":"address","internalType":"address"}],"outputs":[],"stateMutability":"nonpayable"},{"type":"function","name":"usdc","inputs":[],"outputs":[{"name":"","type":"address","internalType":"contract IERC20"}],"stateMutability":"view"},{"type":"event","name":"Approval","inputs":[{"name":"owner","type":"address","indexed":true,"internalType":"address"},{"name":"spender","type":"address","indexed":true,"internalType":"address"},{"name":"value","type":"uint256","indexed":false,"internalType":"uint256"}],"anonymous":false},{"type":"event","name":"Deposited","inputs":[{"name":"depositor","type":"address","indexed":true,"internalType":"address"},{"name":"amount","type":"uint256","indexed":false,"internalType":"uint256"}],"anonymous":false},{"type":"event","name":"OwnershipTransferred","inputs":[{"name":"previousOwner","type":"address","indexed":true,"internalType":"address"},{"name":"newOwner","type":"address","indexed":true,"internalType":"address"}],"anonymous":false},{"type":"event","name":"Redeemed","inputs":[{"name":"hedgeFund","type":"address","indexed":true,"internalType":"address"},{"name":"amount","type":"uint256","indexed":false,"internalType":"uint256"}],"anonymous":false},{"type":"event","name":"Transfer","inputs":[{"name":"from","type":"address","indexed":true,"internalType":"address"},{"name":"to","type":"address","indexed":true,"internalType":"address"},{"name":"value","type":"uint256","indexed":false,"internalType":"uint256"}],"anonymous":false},{"type":"error","name":"ERC20InsufficientAllowance","inputs":[{"name":"spender","type":"address","internalType":"address"},{"name":"allowance","type":"uint256","internalType":"uint256"},{"name":"needed","type":"uint256","internalType":"uint256"}]},{"type":"error","name":"ERC20InsufficientBalance","inputs":[{"name":"sender","type":"address","internalType":"address"},{"name":"balance","type":"uint256","internalType":"uint256"},{"name":"needed","type":"uint256","internalType":"uint256"}]},{"type":"error","name":"ERC20InvalidApprover","inputs":[{"name":"approver","type":"address","internalType":"address"}]},{"type":"error","name":"ERC20InvalidReceiver","inputs":[{"name":"receiver","type":"address","internalType":"address"}]},{"type":"error","name":"ERC20InvalidSender","inputs":[{"name":"sender","type":"address","internalType":"address"}]},{"type":"error","name":"ERC20InvalidSpender","inputs":[{"name":"spender","type":"address","internalType":"address"}]},{"type":"error","name":"InsufficientShares","inputs":[]},{"type":"error","name":"NotHedgeFund","inputs":[]},{"type":"error","name":"OwnableInvalidOwner","inputs":[{"name":"owner","type":"address","internalType":"address"}]},{"type":"error","name":"OwnableUnauthorizedAccount","inputs":[{"name":"account","type":"address","internalType":"address"}]},{"type":"error","name":"SafeERC20FailedOperation","inputs":[{"name":"token","type":"address","internalType":"address"}]},{"type":"error","name":"ZeroAmount","inputs":[]}],"bytecode":{"object":"0x60c060405234801562000010575f80fd5b50604051620010c5380380620010c5833981016040819052620000339162000158565b806040518060400160405280600c81526020016b414252414e4420536861726560a01b8152506040518060400160405280600381526020016220a12960e91b81525081600390816200008691906200023d565b5060046200009582826200023d565b5050506001600160a01b038116620000c657604051631e4fbdf760e01b81525f600482015260240160405180910390fd5b620000d181620000eb565b50506001600160a01b039182166080521660a05262000309565b600580546001600160a01b038381166001600160a01b0319831681179093556040519116919082907f8be0079c531659141344cd1fd0a4f28419497f9722a3daafe3b4186f6b6457e0905f90a35050565b80516001600160a01b038116811462000153575f80fd5b919050565b5f805f606084860312156200016b575f80fd5b62000176846200013c565b925062000186602085016200013c565b915062000196604085016200013c565b90509250925092565b634e487b7160e01b5f52604160045260245ffd5b600181811c90821680620001c857607f821691505b602082108103620001e757634e487b7160e01b5f52602260045260245ffd5b50919050565b601f8211156200023857805f5260205f20601f840160051c81016020851015620002145750805b601f840160051c820191505b8181101562000235575f815560010162000220565b50505b505050565b81516001600160401b038111156200025957620002596200019f565b62000271816200026a8454620001b3565b84620001ed565b602080601f831160018114620002a7575f84156200028f5750858301515b5f19600386901b1c1916600185901b17855562000301565b5f85815260208120601f198616915b82811015620002d757888601518255948401946001909101908401620002b6565b5085821015620002f557878501515f19600388901b60f8161c191681555b505060018460011b0185555b505050505050565b60805160a051610d7e620003475f395f818161020101526104f501525f8181610190015281816103800152818161047501526105e90152610d7e5ff3fe608060405234801561000f575f80fd5b5060043610610106575f3560e01c8063715018a61161009e578063a9059cbb1161006e578063a9059cbb1461023c578063b6b55f251461024f578063db006a7514610262578063dd62ed3e14610275578063f2fde38b146102ad575f80fd5b8063715018a6146101f25780637b103999146101fc5780638da5cb5b1461022357806395d89b4114610234575f80fd5b806323b872dd116100d957806323b872dd14610169578063313ce5671461017c5780633e413bee1461018b57806370a08231146101ca575f80fd5b806306fdde031461010a578063095ea7b31461012857806315770f921461014b57806318160ddd14610161575b5f80fd5b6101126102c0565b60405161011f9190610b8b565b60405180910390f35b61013b610136366004610bf2565b610350565b604051901515815260200161011f565b610153610369565b60405190815260200161011f565b600254610153565b61013b610177366004610c1a565b6103f6565b6040516012815260200161011f565b6101b27f000000000000000000000000000000000000000000000000000000000000000081565b6040516001600160a01b03909116815260200161011f565b6101536101d8366004610c53565b6001600160a01b03165f9081526020819052604090205490565b6101fa610419565b005b6101b27f000000000000000000000000000000000000000000000000000000000000000081565b6005546001600160a01b03166101b2565b61011261042c565b61013b61024a366004610bf2565b61043b565b6101fa61025d366004610c73565b610448565b6101fa610270366004610c73565b6104e0565b610153610283366004610c8a565b6001600160a01b039182165f90815260016020908152604080832093909416825291909152205490565b6101fa6102bb366004610c53565b610642565b6060600380546102cf90610cbb565b80601f01602080910402602001604051908101604052809291908181526020018280546102fb90610cbb565b80156103465780601f1061031d57610100808354040283529160200191610346565b820191905f5260205f20905b81548152906001019060200180831161032957829003601f168201915b5050505050905090565b5f3361035d818585610684565b60019150505b92915050565b6040516370a0823160e01b81523060048201525f907f00000000000000000000000000000000000000000000000000000000000000006001600160a01b0316906370a0823190602401602060405180830381865afa1580156103cd573d5f803e3d5ffd5b505050506040513d601f19601f820116820180604052508101906103f19190610cf3565b905090565b5f33610403858285610696565b61040e858585610712565b506001949350505050565b61042161076f565b61042a5f61079c565b565b6060600480546102cf90610cbb565b5f3361035d818585610712565b805f0361046857604051631f2a200560e01b815260040160405180910390fd5b61049d6001600160a01b037f0000000000000000000000000000000000000000000000000000000000000000163330846107ed565b6104a73382610823565b60405181815233907f2da466a7b24304f47e87fa2e1e5a81b9831ce54fec19055ce277ca2f39ba42c4906020015b60405180910390a250565b60405163a8003eaf60e01b81523360048201527f00000000000000000000000000000000000000000000000000000000000000006001600160a01b03169063a8003eaf90602401602060405180830381865afa158015610542573d5f803e3d5ffd5b505050506040513d601f19601f820116820180604052508101906105669190610d0a565b61058357604051631cb3444d60e11b815260040160405180910390fd5b805f036105a357604051631f2a200560e01b815260040160405180910390fd5b335f908152602081905260409020548111156105d257604051633999656760e01b815260040160405180910390fd5b6105dc338261085b565b6106106001600160a01b037f000000000000000000000000000000000000000000000000000000000000000016338361088f565b60405181815233907f4896181ff8f4543cc00db9fe9b6fb7e6f032b7eb772c72ab1ec1b4d2e03b9369906020016104d5565b61064a61076f565b6001600160a01b03811661067857604051631e4fbdf760e01b81525f60048201526024015b60405180910390fd5b6106818161079c565b50565b61069183838360016108c4565b505050565b6001600160a01b038381165f908152600160209081526040808320938616835292905220545f1981101561070c57818110156106fe57604051637dc7a0d960e11b81526001600160a01b0384166004820152602481018290526044810183905260640161066f565b61070c84848484035f6108c4565b50505050565b6001600160a01b03831661073b57604051634b637e8f60e11b81525f600482015260240161066f565b6001600160a01b0382166107645760405163ec442f0560e01b81525f600482015260240161066f565b610691838383610996565b6005546001600160a01b0316331461042a5760405163118cdaa760e01b815233600482015260240161066f565b600580546001600160a01b038381166001600160a01b0319831681179093556040519116919082907f8be0079c531659141344cd1fd0a4f28419497f9722a3daafe3b4186f6b6457e0905f90a35050565b6107fb848484846001610abc565b61070c57604051635274afe760e01b81526001600160a01b038516600482015260240161066f565b6001600160a01b03821661084c5760405163ec442f0560e01b81525f600482015260240161066f565b6108575f8383610996565b5050565b6001600160a01b03821661088457604051634b637e8f60e11b81525f600482015260240161066f565b610857825f83610996565b61089c8383836001610b29565b61069157604051635274afe760e01b81526001600160a01b038416600482015260240161066f565b6001600160a01b0384166108ed5760405163e602df0560e01b81525f600482015260240161066f565b6001600160a01b03831661091657604051634a1406b160e11b81525f600482015260240161066f565b6001600160a01b038085165f908152600160209081526040808320938716835292905220829055801561070c57826001600160a01b0316846001600160a01b03167f8c5be1e5ebec7d5bd14f71427d1e84f3dd0314c0f7b2291e5b200ac8c7c3b9258460405161098891815260200190565b60405180910390a350505050565b6001600160a01b0383166109c0578060025f8282546109b59190610d29565b90915550610a309050565b6001600160a01b0383165f9081526020819052604090205481811015610a125760405163391434e360e21b81526001600160a01b0385166004820152602481018290526044810183905260640161066f565b6001600160a01b0384165f9081526020819052604090209082900390555b6001600160a01b038216610a4c57600280548290039055610a6a565b6001600160a01b0382165f9081526020819052604090208054820190555b816001600160a01b0316836001600160a01b03167fddf252ad1be2c89b69c2b068fc378daa952ba7f163c4a11628f55a4df523b3ef83604051610aaf91815260200190565b60405180910390a3505050565b6040516323b872dd60e01b5f8181526001600160a01b038781166004528616602452604485905291602083606481808c5af1925060015f51148316610b18578383151615610b0c573d5f823e3d81fd5b5f883b113d1516831692505b604052505f60605295945050505050565b60405163a9059cbb60e01b5f8181526001600160a01b038616600452602485905291602083604481808b5af1925060015f51148316610b7f578383151615610b73573d5f823e3d81fd5b5f873b113d1516831692505b60405250949350505050565b5f602080835283518060208501525f5b81811015610bb757858101830151858201604001528201610b9b565b505f604082860101526040601f19601f8301168501019250505092915050565b80356001600160a01b0381168114610bed575f80fd5b919050565b5f8060408385031215610c03575f80fd5b610c0c83610bd7565b946020939093013593505050565b5f805f60608486031215610c2c575f80fd5b610c3584610bd7565b9250610c4360208501610bd7565b9150604084013590509250925092565b5f60208284031215610c63575f80fd5b610c6c82610bd7565b9392505050565b5f60208284031215610c83575f80fd5b5035919050565b5f8060408385031215610c9b575f80fd5b610ca483610bd7565b9150610cb260208401610bd7565b90509250929050565b600181811c90821680610ccf57607f821691505b602082108103610ced57634e487b7160e01b5f52602260045260245ffd5b50919050565b5f60208284031215610d03575f80fd5b5051919050565b5f60208284031215610d1a575f80fd5b81518015158114610c6c575f80fd5b8082018082111561036357634e487b7160e01b5f52601160045260245ffdfea2646970667358221220037eb9235eaefea441e8d82eb114349ff8b5e46bc99d219484b5cbb85a84ea7864736f6c63430008180033","linkReferences":{}},"methodIdentifiers":{"allowance(address,address)":"dd62ed3e","approve(address,uint256)":"095ea7b3","balanceOf(address)":"70a08231","decimals()":"313ce567","deposit(uint256)":"b6b55f25","name()":"06fdde03","owner()":"8da5cb5b","redeem(uint256)":"db006a75","registry()":"7b103999","renounceOwnership()":"715018a6","symbol()":"95d89b41","totalLiquidity()":"15770f92","totalSupply()":"18160ddd","transfer(address,uint256)":"a9059cbb","transferFrom(address,address,uint256)":"23b872dd","transferOwnership(address)":"f2fde38b","usdc()":"3e413bee"},"id":30}