{"abi":[{"type":"function","name":"REQUEST_DATA_VERSION","inputs":[],"outputs":[{"name":"","type":"uint16","internalType":"uint16"}],"stateMutability":"view"},{"type":"error","name":"EmptyArgs","inputs":[]},{"type":"error","name":"EmptySecrets","inputs":[]},{"type":"error","name":"EmptySource","inputs":[]},{"type":"error","name":"NoInlineSecrets","inputs":[]}],"bytecode":{"object":"0x608060405234601e57600e6022565b60f561002d82393081505060f590f35b6028565b60405190565b5f80fdfe608060405260043610156011575b60bb565b60195f356026565b635d641dfc03600d576098565b60e01c90565b60405190565b5f80fd5b5f910312603f57565b6032565b90565b61ffff1690565b90565b605f605b6063926043565b604d565b6046565b90565b606e60016050565b90565b60776066565b90565b6081906046565b9052565b91906096905f60208501940190607a565b565b60a13660046036565b60b760a96071565b60af602c565b918291826085565b0390f35b5f80fdfea26469706673582212209b57fc02a42272f8c0bf068d031d8e9eeb56f0f661104318a4843581ab5917e964736f6c63430008210033","linkReferences":{}},"methodIdentifiers":{"REQUEST_DATA_VERSION()":"5d641dfc"},"id":6}