{"abi":[{"type":"constructor","inputs":[{"name":"functionsRouter","type":"address","internalType":"address"},{"name":"_vault","type":"address","internalType":"address"},{"name":"_subscriptionId","type":"uint64","internalType":"uint64"},{"name":"_gasLimit","type":"uint32","internalType":"uint32"},{"name":"_donId","type":"bytes32","internalType":"bytes32"},{"name":"_requestInterval","type":"uint256","internalType":"uint256"},{"name":"_jsSource","type":"string","internalType":"string"}],"stateMutability":"nonpayable"},{"type":"function","name":"MAX_PAYLOAD_AGE","inputs":[],"outputs":[{"name":"","type":"uint256","internalType":"uint256"}],"stateMutability":"view"},{"type":"function","name":"NAV_UPDATE_TYPEHASH","inputs":[],"outputs":[{"name":"","type":"bytes32","internalType":"bytes32"}],"stateMutability":"view"},{"type":"function","name":"addAuditor","inputs":[{"name":"auditor","type":"address","internalType":"address"}],"outputs":[],"stateMutability":"nonpayable"},{"type":"function","name":"checkUpkeep","inputs":[{"name":"","type":"bytes","internalType":"bytes"}],"outputs":[{"name":"upkeepNeeded","type":"bool","internalType":"bool"},{"name":"","type":"bytes","internalType":"bytes"}],"stateMutability":"view"},{"type":"function","name":"donId","inputs":[],"outputs":[{"name":"","type":"bytes32","internalType":"bytes32"}],"stateMutability":"view"},{"type":"function","name":"eip712Domain","inputs":[],"outputs":[{"name":"fields","type":"bytes1","internalType":"bytes1"},{"name":"name","type":"string","internalType":"string"},{"name":"version","type":"string","internalType":"string"},{"name":"chainId","type":"uint256","internalType":"uint256"},{"name":"verifyingContract","type":"address","internalType":"address"},{"name":"salt","type":"bytes32","internalType":"bytes32"},{"name":"extensions","type":"uint256[]","internalType":"uint256[]"}],"stateMutability":"view"},{"type":"function","name":"gasLimit","inputs":[],"outputs":[{"name":"","type":"uint32","internalType":"uint32"}],"stateMutability":"view"},{"type":"function","name":"handleOracleFulfillment","inputs":[{"name":"requestId","type":"bytes32","internalType":"bytes32"},{"name":"response","type":"bytes","internalType":"bytes"},{"name":"err","type":"bytes","internalType":"bytes"}],"outputs":[],"stateMutability":"nonpayable"},{"type":"function","name":"isAuditor","inputs":[{"name":"","type":"address","internalType":"address"}],"outputs":[{"name":"","type":"bool","internalType":"bool"}],"stateMutability":"view"},{"type":"function","name":"jsSource","inputs":[],"outputs":[{"name":"","type":"string","internalType":"string"}],"stateMutability":"view"},{"type":"function","name":"lastNonce","inputs":[],"outputs":[{"name":"","type":"uint256","internalType":"uint256"}],"stateMutability":"view"},{"type":"function","name":"lastRequestId","inputs":[],"outputs":[{"name":"","type":"bytes32","internalType":"bytes32"}],"stateMutability":"view"},{"type":"function","name":"lastRequestedAt","inputs":[],"outputs":[{"name":"","type":"uint256","internalType":"uint256"}],"stateMutability":"view"},{"type":"function","name":"owner","inputs":[],"outputs":[{"name":"","type":"address","internalType":"address"}],"stateMutability":"view"},{"type":"function","name":"performUpkeep","inputs":[{"name":"","type":"bytes","internalType":"bytes"}],"outputs":[],"stateMutability":"nonpayable"},{"type":"function","name":"removeAuditor","inputs":[{"name":"auditor","type":"address","internalType":"address"}],"outputs":[],"stateMutability":"nonpayable"},{"type":"function","name":"renounceOwnership","inputs":[],"outputs":[],"stateMutability":"nonpayable"},{"type":"function","name":"requestInterval","inputs":[],"outputs":[{"name":"","type":"uint256","internalType":"uint256"}],"stateMutability":"view"},{"type":"function","name":"requestNAVUpdate","inputs":[],"outputs":[],"stateMutability":"nonpayable"},{"type":"function","name":"setGasLimit","inputs":[{"name":"_gasLimit","type":"uint32","internalType":"uint32"}],"outputs":[],"stateMutability":"nonpayable"},{"type":"function","name":"setJsSource","inputs":[{"name":"_jsSource","type":"string","internalType":"string"}],"outputs":[],"stateMutability":"nonpayable"},{"type":"function","name":"setRequestInterval","inputs":[{"name":"_interval","type":"uint256","internalType":"uint256"}],"outputs":[],"stateMutability":"nonpayable"},{"type":"function","name":"setSubscriptionId","inputs":[{"name":"_subscriptionId","type":"uint64","internalType":"uint64"}],"outputs":[],"stateMutability":"nonpayable"},{"type":"function","name":"submitSignedNAV","inputs":[{"name":"nav","type":"uint256","internalType":"uint256"},{"name":"timestamp","type":"uint256","internalType":"uint256"},{"name":"nonce","type":"uint256","internalType":"uint256"},{"name":"sig","type":"bytes","internalType":"bytes"}],"outputs":[],"stateMutability":"nonpayable"},{"type":"function","name":"subscriptionId","inputs":[],"outputs":[{"name":"","type":"uint64","internalType":"uint64"}],"stateMutability":"view"},{"type":"function","name":"transferOwnership","inputs":[{"name":"newOwner","type":"address","internalType":"address"}],"outputs":[],"stateMutability":"nonpayable"},{"type":"function","name":"vault","inputs":[],"outputs":[{"name":"","type":"address","internalType":"contract IFundVault"}],"stateMutability":"view"},{"type":"event","name":"AuditorAdded","inputs":[{"name":"auditor","type":"address","indexed":true,"internalType":"address"}],"anonymous":false},{"type":"event","name":"AuditorRemoved","inputs":[{"name":"auditor","type":"address","indexed":true,"internalType":"address"}],"anonymous":false},{"type":"event","name":"EIP712DomainChanged","inputs":[],"anonymous":false},{"type":"event","name":"FulfillError","inputs":[{"name":"requestId","type":"bytes32","indexed":true,"internalType":"bytes32"},{"name":"err","type":"bytes","indexed":false,"internalType":"bytes"}],"anonymous":false},{"type":"event","name":"NAVRequestSent","inputs":[{"name":"requestId","type":"bytes32","indexed":true,"internalType":"bytes32"}],"anonymous":false},{"type":"event","name":"NAVUpdatedViaOracle","inputs":[{"name":"nav","type":"uint256","indexed":false,"internalType":"uint256"},{"name":"timestamp","type":"uint256","indexed":false,"internalType":"uint256"},{"name":"auditor","type":"address","indexed":false,"internalType":"address"}],"anonymous":false},{"type":"event","name":"OwnershipTransferred","inputs":[{"name":"previousOwner","type":"address","indexed":true,"internalType":"address"},{"name":"newOwner","type":"address","indexed":true,"internalType":"address"}],"anonymous":false},{"type":"event","name":"RequestFulfilled","inputs":[{"name":"id","type":"bytes32","indexed":true,"internalType":"bytes32"}],"anonymous":false},{"type":"event","name":"RequestSent","inputs":[{"name":"id","type":"bytes32","indexed":true,"internalType":"bytes32"}],"anonymous":false},{"type":"error","name":"ECDSAInvalidSignature","inputs":[]},{"type":"error","name":"ECDSAInvalidSignatureLength","inputs":[{"name":"length","type":"uint256","internalType":"uint256"}]},{"type":"error","name":"ECDSAInvalidSignatureS","inputs":[{"name":"s","type":"bytes32","internalType":"bytes32"}]},{"type":"error","name":"EmptySource","inputs":[]},{"type":"error","name":"InvalidShortString","inputs":[]},{"type":"error","name":"NoInlineSecrets","inputs":[]},{"type":"error","name":"OnlyRouterCanFulfill","inputs":[]},{"type":"error","name":"OwnableInvalidOwner","inputs":[{"name":"owner","type":"address","internalType":"address"}]},{"type":"error","name":"OwnableUnauthorizedAccount","inputs":[{"name":"account","type":"address","internalType":"address"}]},{"type":"error","name":"StringTooLong","inputs":[{"name":"str","type":"string","internalType":"string"}]}],"bytecode":{"object":"0x6101a0604052348015610010575f5ffd5b506040516146583803806146588339818101604052810190610032919061070b565b336040518060400160405280600981526020017f4e41564f7261636c6500000000000000000000000000000000000000000000008152506040518060400160405280600181526020017f3100000000000000000000000000000000000000000000000000000000000000815250898073ffffffffffffffffffffffffffffffffffffffff1660808173ffffffffffffffffffffffffffffffffffffffff1681525050506100e85f836102af60201b90919060201c565b61014081815250506101046001826102af60201b90919060201c565b610160818152505081805190602001206101008181525050808051906020012061012081815250504660c081815250506101426102fc60201b60201c565b60a081815250503073ffffffffffffffffffffffffffffffffffffffff1660e08173ffffffffffffffffffffffffffffffffffffffff168152505050505f73ffffffffffffffffffffffffffffffffffffffff168173ffffffffffffffffffffffffffffffffffffffff16036101ef575f6040517f1e4fbdf70000000000000000000000000000000000000000000000000000000081526004016101e691906107d3565b60405180910390fd5b6101fe8161035760201b60201c565b508573ffffffffffffffffffffffffffffffffffffffff166101808173ffffffffffffffffffffffffffffffffffffffff168152505084600260146101000a81548167ffffffffffffffff021916908367ffffffffffffffff160217905550836002601c6101000a81548163ffffffff021916908363ffffffff1602179055508260038190555081600881905550806004908161029b9190610a04565b504260078190555050505050505050610c3d565b5f6020835110156102d0576102c98361041a60201b60201c565b90506102f6565b826102e08361047f60201b60201c565b5f0190816102ee9190610a04565b5060ff5f1b90505b92915050565b5f7f8b73c3c69bb8fe3d512ecc4cf759cc79239f7b179b0ffacaa9a75d522b39400f6101005161012051463060405160200161033c959493929190610af1565b60405160208183030381529060405280519060200120905090565b5f60025f9054906101000a900473ffffffffffffffffffffffffffffffffffffffff1690508160025f6101000a81548173ffffffffffffffffffffffffffffffffffffffff021916908373ffffffffffffffffffffffffffffffffffffffff1602179055508173ffffffffffffffffffffffffffffffffffffffff168173ffffffffffffffffffffffffffffffffffffffff167f8be0079c531659141344cd1fd0a4f28419497f9722a3daafe3b4186f6b6457e060405160405180910390a35050565b5f5f829050601f8151111561046657826040517f305a27a900000000000000000000000000000000000000000000000000000000815260040161045d9190610b8a565b60405180910390fd5b80518161047290610bd7565b5f1c175f1b915050919050565b5f819050919050565b5f604051905090565b5f5ffd5b5f5ffd5b5f73ffffffffffffffffffffffffffffffffffffffff82169050919050565b5f6104c282610499565b9050919050565b6104d2816104b8565b81146104dc575f5ffd5b50565b5f815190506104ed816104c9565b92915050565b5f67ffffffffffffffff82169050919050565b61050f816104f3565b8114610519575f5ffd5b50565b5f8151905061052a81610506565b92915050565b5f63ffffffff82169050919050565b61054881610530565b8114610552575f5ffd5b50565b5f815190506105638161053f565b92915050565b5f819050919050565b61057b81610569565b8114610585575f5ffd5b50565b5f8151905061059681610572565b92915050565b5f819050919050565b6105ae8161059c565b81146105b8575f5ffd5b50565b5f815190506105c9816105a5565b92915050565b5f5ffd5b5f5ffd5b5f601f19601f8301169050919050565b7f4e487b71000000000000000000000000000000000000000000000000000000005f52604160045260245ffd5b61061d826105d7565b810181811067ffffffffffffffff8211171561063c5761063b6105e7565b5b80604052505050565b5f61064e610488565b905061065a8282610614565b919050565b5f67ffffffffffffffff821115610679576106786105e7565b5b610682826105d7565b9050602081019050919050565b8281835e5f83830152505050565b5f6106af6106aa8461065f565b610645565b9050828152602081018484840111156106cb576106ca6105d3565b5b6106d684828561068f565b509392505050565b5f82601f8301126106f2576106f16105cf565b5b815161070284826020860161069d565b91505092915050565b5f5f5f5f5f5f5f60e0888a03121561072657610725610491565b5b5f6107338a828b016104df565b97505060206107448a828b016104df565b96505060406107558a828b0161051c565b95505060606107668a828b01610555565b94505060806107778a828b01610588565b93505060a06107888a828b016105bb565b92505060c088015167ffffffffffffffff8111156107a9576107a8610495565b5b6107b58a828b016106de565b91505092959891949750929550565b6107cd816104b8565b82525050565b5f6020820190506107e65f8301846107c4565b92915050565b5f81519050919050565b7f4e487b71000000000000000000000000000000000000000000000000000000005f52602260045260245ffd5b5f600282049050600182168061083a57607f821691505b60208210810361084d5761084c6107f6565b5b50919050565b5f819050815f5260205f209050919050565b5f6020601f8301049050919050565b5f82821b905092915050565b5f600883026108af7fffffffffffffffffffffffffffffffffffffffffffffffffffffffffffffffff82610874565b6108b98683610874565b95508019841693508086168417925050509392505050565b5f819050919050565b5f6108f46108ef6108ea8461059c565b6108d1565b61059c565b9050919050565b5f819050919050565b61090d836108da565b610921610919826108fb565b848454610880565b825550505050565b5f5f905090565b610938610929565b610943818484610904565b505050565b5f5b828110156109695761095e5f828401610930565b60018101905061094a565b505050565b601f8211156109bc57828211156109bb5761098881610853565b61099183610865565b61099a85610865565b60208610156109a7575f90505b8083016109b682840382610948565b505050505b5b505050565b5f82821c905092915050565b5f6109dc5f19846008026109c1565b1980831691505092915050565b5f6109f483836109cd565b9150826002028217905092915050565b610a0d826107ec565b67ffffffffffffffff811115610a2657610a256105e7565b5b610a308254610823565b610a3b82828561096e565b5f60209050601f831160018114610a6c575f8415610a5a578287015190505b610a6485826109e9565b865550610acb565b601f198416610a7a86610853565b5f5b82811015610aa157848901518255600182019150602085019450602081019050610a7c565b86831015610abe5784890151610aba601f8916826109cd565b8355505b6001600288020188555050505b505050505050565b610adc81610569565b82525050565b610aeb8161059c565b82525050565b5f60a082019050610b045f830188610ad3565b610b116020830187610ad3565b610b1e6040830186610ad3565b610b2b6060830185610ae2565b610b3860808301846107c4565b9695505050505050565b5f82825260208201905092915050565b5f610b5c826107ec565b610b668185610b42565b9350610b7681856020860161068f565b610b7f816105d7565b840191505092915050565b5f6020820190508181035f830152610ba28184610b52565b905092915050565b5f81519050919050565b5f819050602082019050919050565b5f610bce8251610569565b80915050919050565b5f610be182610baa565b82610beb84610bb4565b9050610bf681610bc3565b92506020821015610c3657610c317fffffffffffffffffffffffffffffffffffffffffffffffffffffffffffffffff83602003600802610874565b831692505b5050919050565b60805160a05160c05160e051610100516101205161014051610160516101805161399a610cbe5f395f8181610b7901528181610e1901528181610f4d015261109101525f61125f01525f61122401525f61205e01525f61203d01525f611a3f01525f611a9501525f611abe01525f81816104e001526116b7015261399a5ff3fe608060405234801561000f575f5ffd5b50600436106101a7575f3560e01c80636e913cc0116100f7578063e429cef111610095578063f2fde38b1161006f578063f2fde38b1461044e578063f68016b71461046a578063fbfa77cf14610488578063fc2a88c3146104a6576101a7565b8063e429cef1146103fa578063e6116cfd14610416578063ea7b4f7714610432576101a7565b80638da5cb5b116100d15780638da5cb5b146103985780638dbe7b9d146103b6578063d65060fb146103d4578063d8f4809a146103de576101a7565b80636e913cc01461034c578063715018a61461036a57806384b0196e14610374576101a7565b80634585e33b1161016457806352d84c621161013e57806352d84c62146102c5578063536f6070146102e15780635ff52684146102ff5780636e04ff0d1461031b576101a7565b80634585e33b1461025b57806349b905571461027757806352631ab4146102a7576101a7565b806309c1ba2e146101ab5780630ca76175146101c9578063272808a3146101e557806335a996001461020357806341628ce01461022157806344af68191461023f575b5f5ffd5b6101b36104c4565b6040516101c09190612434565b60405180910390f35b6101e360048036038101906101de91906125cd565b6104de565b005b6101ed6105a0565b6040516101fa91906126b5565b60405180910390f35b61020b61062c565b60405161021891906126ed565b60405180910390f35b610229610632565b60405161023691906126ed565b60405180910390f35b61025960048036038101906102549190612730565b610638565b005b610275600480360381019061027091906127b8565b61064a565b005b610291600480360381019061028c919061285d565b6106a8565b60405161029e91906128a2565b60405180910390f35b6102af6106c5565b6040516102bc91906126ed565b60405180910390f35b6102df60048036038101906102da91906128f4565b6106cb565b005b6102e96106f7565b6040516102f691906126ed565b60405180910390f35b6103196004803603810190610314919061291f565b6106fd565b005b610335600480360381019061033091906127b8565b610753565b6040516103439291906129f5565b60405180910390f35b610354610772565b6040516103619190612a32565b60405180910390f35b610372610796565b005b61037c6107a9565b60405161038f9796959493929190612b4b565b60405180910390f35b6103a061084e565b6040516103ad9190612bcd565b60405180910390f35b6103be610876565b6040516103cb9190612a32565b60405180910390f35b6103dc61087c565b005b6103f860048036038101906103f39190612c3b565b6108d8565b005b610414600480360381019061040f919061285d565b6108f6565b005b610430600480360381019061042b919061285d565b610a07565b005b61044c60048036038101906104479190612cb0565b610aa9565b005b6104686004803603810190610463919061285d565b610add565b005b610472610b61565b60405161047f9190612cea565b60405180910390f35b610490610b77565b60405161049d9190612d5e565b60405180910390f35b6104ae610b9b565b6040516104bb9190612a32565b60405180910390f35b600260149054906101000a900467ffffffffffffffff1681565b7f000000000000000000000000000000000000000000000000000000000000000073ffffffffffffffffffffffffffffffffffffffff163373ffffffffffffffffffffffffffffffffffffffff1614610563576040517fc6829f8300000000000000000000000000000000000000000000000000000000815260040160405180910390fd5b61056e838383610ba1565b827f85e1543bf2f84fe80c6badbce3648c8539ad1df4d2b3d822938ca0538be727e660405160405180910390a2505050565b600480546105ad90612da4565b80601f01602080910402602001604051908101604052809291908181526020018280546105d990612da4565b80156106245780601f106105fb57610100808354040283529160200191610624565b820191905f5260205f20905b81548152906001019060200180831161060757829003601f168201915b505050505081565b611c2081565b60075481565b610640610c1d565b8060088190555050565b60085460075461065a9190612e01565b42101561069c576040517f08c379a000000000000000000000000000000000000000000000000000000000815260040161069390612e7e565b60405180910390fd5b6106a4610ca4565b5050565b6005602052805f5260405f205f915054906101000a900460ff1681565b60065481565b6106d3610c1d565b806002601c6101000a81548163ffffffff021916908363ffffffff16021790555050565b60085481565b61074c85858585858080601f0160208091040260200160405190810160405280939291908181526020018383808284375f81840152601f19601f82011690508083019250505050505050610dc7565b5050505050565b5f60606008546007546107669190612e01565b42101591509250929050565b7f389f9bf9fe3b5eb4eb756cae5cab7dbb1f395629654a5218d2749bf7846ee86a81565b61079e610c1d565b6107a75f611159565b565b5f6060805f5f5f60606107ba61121c565b6107c2611256565b46305f5f1b5f67ffffffffffffffff8111156107e1576107e06124a9565b5b60405190808252806020026020018201604052801561080f5781602001602082028036833780820191505090505b507f0f00000000000000000000000000000000000000000000000000000000000000959493929190965096509650965096509650965090919293949596565b5f60025f9054906101000a900473ffffffffffffffffffffffffffffffffffffffff16905090565b60035481565b60085460075461088c9190612e01565b4210156108ce576040517f08c379a00000000000000000000000000000000000000000000000000000000081526004016108c590612e7e565b60405180910390fd5b6108d6610ca4565b565b6108e0610c1d565b8181600491826108f192919061304e565b505050565b6108fe610c1d565b5f73ffffffffffffffffffffffffffffffffffffffff168173ffffffffffffffffffffffffffffffffffffffff160361096c576040517f08c379a000000000000000000000000000000000000000000000000000000000815260040161096390613165565b60405180910390fd5b600160055f8373ffffffffffffffffffffffffffffffffffffffff1673ffffffffffffffffffffffffffffffffffffffff1681526020019081526020015f205f6101000a81548160ff0219169083151502179055508073ffffffffffffffffffffffffffffffffffffffff167f2c31044378cc14466459f09320dd4057d7ad6e99b194c0800c78227383a2529660405160405180910390a250565b610a0f610c1d565b5f60055f8373ffffffffffffffffffffffffffffffffffffffff1673ffffffffffffffffffffffffffffffffffffffff1681526020019081526020015f205f6101000a81548160ff0219169083151502179055508073ffffffffffffffffffffffffffffffffffffffff167fd3e803f2dfdacd206b7d19aa46d847206386d84e3dc6b8de0926e54affa6fddc60405160405180910390a250565b610ab1610c1d565b80600260146101000a81548167ffffffffffffffff021916908367ffffffffffffffff16021790555050565b610ae5610c1d565b5f73ffffffffffffffffffffffffffffffffffffffff168173ffffffffffffffffffffffffffffffffffffffff1603610b55575f6040517f1e4fbdf7000000000000000000000000000000000000000000000000000000008152600401610b4c9190612bcd565b60405180910390fd5b610b5e81611159565b50565b6002601c9054906101000a900463ffffffff1681565b7f000000000000000000000000000000000000000000000000000000000000000081565b60095481565b5f81511115610be757827f724847412eaf358bc9c06e099154aa6bd60a34abad7cef4281b5259e5ef78c2882604051610bda9190613183565b60405180910390a2610c18565b5f5f5f5f85806020019051810190610bff9190613225565b9350935093509350610c1384848484610dc7565b505050505b505050565b610c25611291565b73ffffffffffffffffffffffffffffffffffffffff16610c4361084e565b73ffffffffffffffffffffffffffffffffffffffff1614610ca257610c66611291565b6040517f118cdaa7000000000000000000000000000000000000000000000000000000008152600401610c999190612bcd565b60405180910390fd5b565b610cac61236b565b610d4760048054610cbc90612da4565b80601f0160208091040260200160405190810160405280929190818152602001828054610ce890612da4565b8015610d335780601f10610d0a57610100808354040283529160200191610d33565b820191905f5260205f20905b815481529060010190602001808311610d1657829003601f168201915b50505050508261129890919063ffffffff16565b5f610d86610d54836112a8565b600260149054906101000a900467ffffffffffffffff166002601c9054906101000a900463ffffffff166003546116b3565b90508060098190555042600781905550807fe4a590f2aeb7a78489900321756fa3943a8ad762dcffc1daea08af7885afe91560405160405180910390a25050565b42611c2084610dd69190612e01565b1015610e17576040517f08c379a0000000000000000000000000000000000000000000000000000000008152600401610e0e906132ef565b60405180910390fd5b7f000000000000000000000000000000000000000000000000000000000000000073ffffffffffffffffffffffffffffffffffffffff1663fc11cdd66040518163ffffffff1660e01b8152600401602060405180830381865afa158015610e80573d5f5f3e3d5ffd5b505050506040513d601f19601f82011682018060405250810190610ea4919061330d565b8311610ee5576040517f08c379a0000000000000000000000000000000000000000000000000000000008152600401610edc90613382565b60405180910390fd5b6006548211610f29576040517f08c379a0000000000000000000000000000000000000000000000000000000008152600401610f20906133ea565b60405180910390fd5b5f7f389f9bf9fe3b5eb4eb756cae5cab7dbb1f395629654a5218d2749bf7846ee86a7f0000000000000000000000000000000000000000000000000000000000000000868686604051602001610f83959493929190613408565b6040516020818303038152906040528051906020012090505f610fa582611792565b90505f610fbb84836117ab90919063ffffffff16565b905060055f8273ffffffffffffffffffffffffffffffffffffffff1673ffffffffffffffffffffffffffffffffffffffff1681526020019081526020015f205f9054906101000a900460ff16611046576040517f08c379a000000000000000000000000000000000000000000000000000000000815260040161103d906134a3565b60405180910390fd5b5f8711611088576040517f08c379a000000000000000000000000000000000000000000000000000000000815260040161107f9061350b565b60405180910390fd5b846006819055507f000000000000000000000000000000000000000000000000000000000000000073ffffffffffffffffffffffffffffffffffffffff16630cb1982b886040518263ffffffff1660e01b81526004016110e891906126ed565b5f604051808303815f87803b1580156110ff575f5ffd5b505af1158015611111573d5f5f3e3d5ffd5b505050507fab392eb74e49548db3378e19e68ca58fe5c5a912286f4eb6d7d4012b344209a487878360405161114893929190613529565b60405180910390a150505050505050565b5f60025f9054906101000a900473ffffffffffffffffffffffffffffffffffffffff1690508160025f6101000a81548173ffffffffffffffffffffffffffffffffffffffff021916908373ffffffffffffffffffffffffffffffffffffffff1602179055508173ffffffffffffffffffffffffffffffffffffffff168173ffffffffffffffffffffffffffffffffffffffff167f8be0079c531659141344cd1fd0a4f28419497f9722a3daafe3b4186f6b6457e060405160405180910390a35050565b60606112515f7f00000000000000000000000000000000000000000000000000000000000000006117d590919063ffffffff16565b905090565b606061128c60017f00000000000000000000000000000000000000000000000000000000000000006117d590919063ffffffff16565b905090565b5f33905090565b6112a4825f5f84611882565b5050565b60605f6112b6610100611928565b90506113006040518060400160405280600c81526020017f636f64654c6f636174696f6e00000000000000000000000000000000000000008152508261194d90919063ffffffff16565b611328835f015160028111156113195761131861355e565b5b8261197590919063ffffffff16565b6113706040518060400160405280600881526020017f6c616e67756167650000000000000000000000000000000000000000000000008152508261194d90919063ffffffff16565b61139883604001515f8111156113895761138861355e565b5b8261197590919063ffffffff16565b6113e06040518060400160405280600681526020017f736f7572636500000000000000000000000000000000000000000000000000008152508261194d90919063ffffffff16565b6113f783606001518261194d90919063ffffffff16565b5f8360a001515111156114ae5761144c6040518060400160405280600481526020017f61726773000000000000000000000000000000000000000000000000000000008152508261194d90919063ffffffff16565b611455816119c4565b5f5f90505b8360a00151518110156114a3576114988460a0015182815181106114815761148061358b565b5b60200260200101518361194d90919063ffffffff16565b80600101905061145a565b506114ad816119ec565b5b5f83608001515111156115ed575f60028111156114ce576114cd61355e565b5b836020015160028111156114e5576114e461355e565b5b0361151c576040517fa80d31f700000000000000000000000000000000000000000000000000000000815260040160405180910390fd5b6115646040518060400160405280600f81526020017f736563726574734c6f636174696f6e00000000000000000000000000000000008152508261194d90919063ffffffff16565b61158d8360200151600281111561157e5761157d61355e565b5b8261197590919063ffffffff16565b6115d56040518060400160405280600781526020017f73656372657473000000000000000000000000000000000000000000000000008152508261194d90919063ffffffff16565b6115ec836080015182611a1490919063ffffffff16565b5b5f8360c001515111156116a4576116426040518060400160405280600981526020017f62797465734172677300000000000000000000000000000000000000000000008152508261194d90919063ffffffff16565b61164b816119c4565b5f5f90505b8360c00151518110156116995761168e8460c0015182815181106116775761167661358b565b5b602002602001015183611a1490919063ffffffff16565b806001019050611650565b506116a3816119ec565b5b805f01515f0151915050919050565b5f5f7f000000000000000000000000000000000000000000000000000000000000000073ffffffffffffffffffffffffffffffffffffffff1663461d27628688600188886040518663ffffffff1660e01b81526004016117179594939291906135d4565b6020604051808303815f875af1158015611733573d5f5f3e3d5ffd5b505050506040513d601f19601f820116820180604052508101906117579190613640565b9050807f1131472297a800fee664d1d89cfa8f7676ff07189ecc53f80bbb5f4969099db860405160405180910390a280915050949350505050565b5f6117a461179e611a3c565b83611af2565b9050919050565b5f5f5f5f6117b98686611b32565b9250925092506117c98282611b87565b82935050505092915050565b606060ff5f1b83146117f1576117ea83611ce9565b905061187c565b8180546117fd90612da4565b80601f016020809104026020016040519081016040528092919081815260200182805461182990612da4565b80156118745780601f1061184b57610100808354040283529160200191611874565b820191905f5260205f20905b81548152906001019060200180831161185757829003601f168201915b505050505090505b92915050565b5f8151036118bc576040517f22ce3edd00000000000000000000000000000000000000000000000000000000815260040160405180910390fd5b82845f019060028111156118d3576118d261355e565b5b908160028111156118e7576118e661355e565b5b815250508184604001905f8111156119025761190161355e565b5b90815f8111156119155761191461355e565b5b8152505080846060018190525050505050565b6119306123da565b61193d815f015183611d5b565b505f816020018181525050919050565b61195a8260038351611dd1565b61197081835f0151611f7190919063ffffffff16565b505050565b61199660026005600660ff16901b17835f0151611f8d90919063ffffffff16565b506119c082826040516020016119ac91906126ed565b604051602081830303815290604052611a14565b5050565b6119cf816004611ff4565b6001816020018181516119e29190612e01565b9150818152505050565b6119f7816007611ff4565b600181602001818151611a0a919061366b565b9150818152505050565b611a218260028351611dd1565b611a3781835f0151611f7190919063ffffffff16565b505050565b5f7f000000000000000000000000000000000000000000000000000000000000000073ffffffffffffffffffffffffffffffffffffffff163073ffffffffffffffffffffffffffffffffffffffff16148015611ab757507f000000000000000000000000000000000000000000000000000000000000000046145b15611ae4577f00000000000000000000000000000000000000000000000000000000000000009050611aef565b611aec612019565b90505b90565b5f6040517f190100000000000000000000000000000000000000000000000000000000000081528360028201528260228201526042812091505092915050565b5f5f5f6041845103611b72575f5f5f602087015192506040870151915060608701515f1a9050611b64888285856120ae565b955095509550505050611b80565b5f600285515f1b9250925092505b9250925092565b5f6003811115611b9a57611b9961355e565b5b826003811115611bad57611bac61355e565b5b0315611ce55760016003811115611bc757611bc661355e565b5b826003811115611bda57611bd961355e565b5b03611c11576040517ff645eedf00000000000000000000000000000000000000000000000000000000815260040160405180910390fd5b60026003811115611c2557611c2461355e565b5b826003811115611c3857611c3761355e565b5b03611c7c57805f1c6040517ffce698f7000000000000000000000000000000000000000000000000000000008152600401611c7391906126ed565b60405180910390fd5b600380811115611c8f57611c8e61355e565b5b826003811115611ca257611ca161355e565b5b03611ce457806040517fd78bce0c000000000000000000000000000000000000000000000000000000008152600401611cdb9190612a32565b60405180910390fd5b5b5050565b60605f611cf583612195565b90505f602067ffffffffffffffff811115611d1357611d126124a9565b5b6040519080825280601f01601f191660200182016040528015611d455781602001600182028036833780820191505090505b5090508181528360208201528092505050919050565b611d636123f9565b5f602083611d7191906136cb565b14611d9d57602082611d8391906136cb565b6020611d8f919061366b565b82611d9a9190612e01565b91505b818360200181815250506040518084525f815282810160200181811015611dc2575f5ffd5b80604052505082905092915050565b60178167ffffffffffffffff1611611e0b57611e058160058460ff16901b60ff1617845f0151611f8d90919063ffffffff16565b50611f6c565b60ff8167ffffffffffffffff1611611e6757611e3d601860058460ff16901b17845f0151611f8d90919063ffffffff16565b50611e618167ffffffffffffffff166001855f01516121e39092919063ffffffff16565b50611f6b565b61ffff8167ffffffffffffffff1611611ec457611e9a601960058460ff16901b17845f0151611f8d90919063ffffffff16565b50611ebe8167ffffffffffffffff166002855f01516121e39092919063ffffffff16565b50611f6a565b63ffffffff8167ffffffffffffffff1611611f2357611ef9601a60058460ff16901b17845f0151611f8d90919063ffffffff16565b50611f1d8167ffffffffffffffff166004855f01516121e39092919063ffffffff16565b50611f69565b611f43601b60058460ff16901b17845f0151611f8d90919063ffffffff16565b50611f678167ffffffffffffffff166008855f01516121e39092919063ffffffff16565b505b5b5b5b505050565b611f796123f9565b611f858383845161226c565b905092915050565b611f956123f9565b5f835f01515190505f600182611fab9190612e01565b905084602001518210611fcf57611fce85600283611fc991906136fb565b612349565b5b84516020838201018581538151831115611fe7578282525b5050849250505092915050565b612014601f60058360ff16901b17835f0151611f8d90919063ffffffff16565b505050565b5f7f8b73c3c69bb8fe3d512ecc4cf759cc79239f7b179b0ffacaa9a75d522b39400f7f00000000000000000000000000000000000000000000000000000000000000007f0000000000000000000000000000000000000000000000000000000000000000463060405160200161209395949392919061373c565b60405160208183030381529060405280519060200120905090565b5f5f5f7f7fffffffffffffffffffffffffffffff5d576e7357a4501ddfe92f46681b20a0845f1c11156120ea575f60038592509250925061218b565b5f6001888888886040515f815260200160405260405161210d94939291906137a8565b6020604051602081039080840390855afa15801561212d573d5f5f3e3d5ffd5b5050506020604051035190505f73ffffffffffffffffffffffffffffffffffffffff168173ffffffffffffffffffffffffffffffffffffffff160361217e575f60015f5f1b9350935093505061218b565b805f5f5f1b935093509350505b9450945094915050565b5f5f60ff835f1c169050601f8111156121da576040517fb3512b0c00000000000000000000000000000000000000000000000000000000815260040160405180910390fd5b80915050919050565b6121eb6123f9565b5f845f01515190505f81846122009190612e01565b90508560200151811115612225576122248660028361221f91906136fb565b612349565b5b5f600185610100612236919061391a565b612240919061366b565b90508651828101878319825116178152815184111561225d578382525b50508693505050509392505050565b6122746123f9565b8251821115612281575f5ffd5b5f845f01515190505f83826122969190612e01565b905085602001518111156122bb576122ba866002836122b591906136fb565b612349565b5b5f5f875180518560208301019350808511156122d5578482525b60208901925050505b6020861061231c57805182526020826122f79190612e01565b91506020816123069190612e01565b9050602086612315919061366b565b95506122de565b5f6001876020036101000a0390508019825116818451168181178552505050879450505050509392505050565b5f825f0151905061235a8383611d5b565b506123658382611f71565b50505050565b6040518060e001604052805f60028111156123895761238861355e565b5b81526020015f60028111156123a1576123a061355e565b5b81526020015f5f8111156123b8576123b761355e565b5b8152602001606081526020016060815260200160608152602001606081525090565b60405180604001604052806123ed6123f9565b81526020015f81525090565b6040518060400160405280606081526020015f81525090565b5f67ffffffffffffffff82169050919050565b61242e81612412565b82525050565b5f6020820190506124475f830184612425565b92915050565b5f604051905090565b5f5ffd5b5f5ffd5b5f819050919050565b6124708161245e565b811461247a575f5ffd5b50565b5f8135905061248b81612467565b92915050565b5f5ffd5b5f5ffd5b5f601f19601f8301169050919050565b7f4e487b71000000000000000000000000000000000000000000000000000000005f52604160045260245ffd5b6124df82612499565b810181811067ffffffffffffffff821117156124fe576124fd6124a9565b5b80604052505050565b5f61251061244d565b905061251c82826124d6565b919050565b5f67ffffffffffffffff82111561253b5761253a6124a9565b5b61254482612499565b9050602081019050919050565b828183375f83830152505050565b5f61257161256c84612521565b612507565b90508281526020810184848401111561258d5761258c612495565b5b612598848285612551565b509392505050565b5f82601f8301126125b4576125b3612491565b5b81356125c484826020860161255f565b91505092915050565b5f5f5f606084860312156125e4576125e3612456565b5b5f6125f18682870161247d565b935050602084013567ffffffffffffffff8111156126125761261161245a565b5b61261e868287016125a0565b925050604084013567ffffffffffffffff81111561263f5761263e61245a565b5b61264b868287016125a0565b9150509250925092565b5f81519050919050565b5f82825260208201905092915050565b8281835e5f83830152505050565b5f61268782612655565b612691818561265f565b93506126a181856020860161266f565b6126aa81612499565b840191505092915050565b5f6020820190508181035f8301526126cd818461267d565b905092915050565b5f819050919050565b6126e7816126d5565b82525050565b5f6020820190506127005f8301846126de565b92915050565b61270f816126d5565b8114612719575f5ffd5b50565b5f8135905061272a81612706565b92915050565b5f6020828403121561274557612744612456565b5b5f6127528482850161271c565b91505092915050565b5f5ffd5b5f5ffd5b5f5f83601f84011261277857612777612491565b5b8235905067ffffffffffffffff8111156127955761279461275b565b5b6020830191508360018202830111156127b1576127b061275f565b5b9250929050565b5f5f602083850312156127ce576127cd612456565b5b5f83013567ffffffffffffffff8111156127eb576127ea61245a565b5b6127f785828601612763565b92509250509250929050565b5f73ffffffffffffffffffffffffffffffffffffffff82169050919050565b5f61282c82612803565b9050919050565b61283c81612822565b8114612846575f5ffd5b50565b5f8135905061285781612833565b92915050565b5f6020828403121561287257612871612456565b5b5f61287f84828501612849565b91505092915050565b5f8115159050919050565b61289c81612888565b82525050565b5f6020820190506128b55f830184612893565b92915050565b5f63ffffffff82169050919050565b6128d3816128bb565b81146128dd575f5ffd5b50565b5f813590506128ee816128ca565b92915050565b5f6020828403121561290957612908612456565b5b5f612916848285016128e0565b91505092915050565b5f5f5f5f5f6080868803121561293857612937612456565b5b5f6129458882890161271c565b95505060206129568882890161271c565b94505060406129678882890161271c565b935050606086013567ffffffffffffffff8111156129885761298761245a565b5b61299488828901612763565b92509250509295509295909350565b5f81519050919050565b5f82825260208201905092915050565b5f6129c7826129a3565b6129d181856129ad565b93506129e181856020860161266f565b6129ea81612499565b840191505092915050565b5f604082019050612a085f830185612893565b8181036020830152612a1a81846129bd565b90509392505050565b612a2c8161245e565b82525050565b5f602082019050612a455f830184612a23565b92915050565b5f7fff0000000000000000000000000000000000000000000000000000000000000082169050919050565b612a7f81612a4b565b82525050565b612a8e81612822565b82525050565b5f81519050919050565b5f82825260208201905092915050565b5f819050602082019050919050565b612ac6816126d5565b82525050565b5f612ad78383612abd565b60208301905092915050565b5f602082019050919050565b5f612af982612a94565b612b038185612a9e565b9350612b0e83612aae565b805f5b83811015612b3e578151612b258882612acc565b9750612b3083612ae3565b925050600181019050612b11565b5085935050505092915050565b5f60e082019050612b5e5f83018a612a76565b8181036020830152612b70818961267d565b90508181036040830152612b84818861267d565b9050612b9360608301876126de565b612ba06080830186612a85565b612bad60a0830185612a23565b81810360c0830152612bbf8184612aef565b905098975050505050505050565b5f602082019050612be05f830184612a85565b92915050565b5f5f83601f840112612bfb57612bfa612491565b5b8235905067ffffffffffffffff811115612c1857612c1761275b565b5b602083019150836001820283011115612c3457612c3361275f565b5b9250929050565b5f5f60208385031215612c5157612c50612456565b5b5f83013567ffffffffffffffff811115612c6e57612c6d61245a565b5b612c7a85828601612be6565b92509250509250929050565b612c8f81612412565b8114612c99575f5ffd5b50565b5f81359050612caa81612c86565b92915050565b5f60208284031215612cc557612cc4612456565b5b5f612cd284828501612c9c565b91505092915050565b612ce4816128bb565b82525050565b5f602082019050612cfd5f830184612cdb565b92915050565b5f819050919050565b5f612d26612d21612d1c84612803565b612d03565b612803565b9050919050565b5f612d3782612d0c565b9050919050565b5f612d4882612d2d565b9050919050565b612d5881612d3e565b82525050565b5f602082019050612d715f830184612d4f565b92915050565b7f4e487b71000000000000000000000000000000000000000000000000000000005f52602260045260245ffd5b5f6002820490506001821680612dbb57607f821691505b602082108103612dce57612dcd612d77565b5b50919050565b7f4e487b71000000000000000000000000000000000000000000000000000000005f52601160045260245ffd5b5f612e0b826126d5565b9150612e16836126d5565b9250828201905080821115612e2e57612e2d612dd4565b5b92915050565b7f4e41564f7261636c653a20746f6f20736f6f6e000000000000000000000000005f82015250565b5f612e6860138361265f565b9150612e7382612e34565b602082019050919050565b5f6020820190508181035f830152612e9581612e5c565b9050919050565b5f82905092915050565b5f819050815f5260205f209050919050565b5f6020601f8301049050919050565b5f82821b905092915050565b5f60088302612f027fffffffffffffffffffffffffffffffffffffffffffffffffffffffffffffffff82612ec7565b612f0c8683612ec7565b95508019841693508086168417925050509392505050565b5f612f3e612f39612f34846126d5565b612d03565b6126d5565b9050919050565b5f819050919050565b612f5783612f24565b612f6b612f6382612f45565b848454612ed3565b825550505050565b5f5f905090565b612f82612f73565b612f8d818484612f4e565b505050565b5f5b82811015612fb357612fa85f828401612f7a565b600181019050612f94565b505050565b601f821115613006578282111561300557612fd281612ea6565b612fdb83612eb8565b612fe485612eb8565b6020861015612ff1575f90505b80830161300082840382612f92565b505050505b5b505050565b5f82821c905092915050565b5f6130265f198460080261300b565b1980831691505092915050565b5f61303e8383613017565b9150826002028217905092915050565b6130588383612e9c565b67ffffffffffffffff811115613071576130706124a9565b5b61307b8254612da4565b613086828285612fb8565b5f601f8311600181146130b3575f84156130a1578287013590505b6130ab8582613033565b865550613112565b601f1984166130c186612ea6565b5f5b828110156130e8578489013582556001820191506020850194506020810190506130c3565b868310156131055784890135613101601f891682613017565b8355505b6001600288020188555050505b50505050505050565b7f4e41564f7261636c653a207a65726f20616464726573730000000000000000005f82015250565b5f61314f60178361265f565b915061315a8261311b565b602082019050919050565b5f6020820190508181035f83015261317c81613143565b9050919050565b5f6020820190508181035f83015261319b81846129bd565b905092915050565b5f815190506131b181612706565b92915050565b5f6131c96131c484612521565b612507565b9050828152602081018484840111156131e5576131e4612495565b5b6131f084828561266f565b509392505050565b5f82601f83011261320c5761320b612491565b5b815161321c8482602086016131b7565b91505092915050565b5f5f5f5f6080858703121561323d5761323c612456565b5b5f61324a878288016131a3565b945050602061325b878288016131a3565b935050604061326c878288016131a3565b925050606085015167ffffffffffffffff81111561328d5761328c61245a565b5b613299878288016131f8565b91505092959194509250565b7f4e41564f7261636c653a207061796c6f616420746f6f206f6c640000000000005f82015250565b5f6132d9601a8361265f565b91506132e4826132a5565b602082019050919050565b5f6020820190508181035f830152613306816132cd565b9050919050565b5f6020828403121561332257613321612456565b5b5f61332f848285016131a3565b91505092915050565b7f4e41564f7261636c653a2074696d657374616d70206e6f74206e6577657200005f82015250565b5f61336c601e8361265f565b915061337782613338565b602082019050919050565b5f6020820190508181035f83015261339981613360565b9050919050565b7f4e41564f7261636c653a206e6f6e6365207265706c61790000000000000000005f82015250565b5f6133d460178361265f565b91506133df826133a0565b602082019050919050565b5f6020820190508181035f830152613401816133c8565b9050919050565b5f60a08201905061341b5f830188612a23565b6134286020830187612a85565b61343560408301866126de565b61344260608301856126de565b61344f60808301846126de565b9695505050505050565b7f4e41564f7261636c653a20696e76616c6964207369676e6572000000000000005f82015250565b5f61348d60198361265f565b915061349882613459565b602082019050919050565b5f6020820190508181035f8301526134ba81613481565b9050919050565b7f4e41564f7261636c653a206e6176206d757374206265203e20300000000000005f82015250565b5f6134f5601a8361265f565b9150613500826134c1565b602082019050919050565b5f6020820190508181035f830152613522816134e9565b9050919050565b5f60608201905061353c5f8301866126de565b61354960208301856126de565b6135566040830184612a85565b949350505050565b7f4e487b71000000000000000000000000000000000000000000000000000000005f52602160045260245ffd5b7f4e487b71000000000000000000000000000000000000000000000000000000005f52603260045260245ffd5b5f61ffff82169050919050565b6135ce816135b8565b82525050565b5f60a0820190506135e75f830188612425565b81810360208301526135f981876129bd565b905061360860408301866135c5565b6136156060830185612cdb565b6136226080830184612a23565b9695505050505050565b5f8151905061363a81612467565b92915050565b5f6020828403121561365557613654612456565b5b5f6136628482850161362c565b91505092915050565b5f613675826126d5565b9150613680836126d5565b925082820390508181111561369857613697612dd4565b5b92915050565b7f4e487b71000000000000000000000000000000000000000000000000000000005f52601260045260245ffd5b5f6136d5826126d5565b91506136e0836126d5565b9250826136f0576136ef61369e565b5b828206905092915050565b5f613705826126d5565b9150613710836126d5565b925082820261371e816126d5565b9150828204841483151761373557613734612dd4565b5b5092915050565b5f60a08201905061374f5f830188612a23565b61375c6020830187612a23565b6137696040830186612a23565b61377660608301856126de565b6137836080830184612a85565b9695505050505050565b5f60ff82169050919050565b6137a28161378d565b82525050565b5f6080820190506137bb5f830187612a23565b6137c86020830186613799565b6137d56040830185612a23565b6137e26060830184612a23565b95945050505050565b5f8160011c9050919050565b5f5f8291508390505b60018511156138405780860481111561381c5761381b612dd4565b5b600185161561382b5780820291505b8081029050613839856137eb565b9450613800565b94509492505050565b5f826138585760019050613913565b81613865575f9050613913565b816001811461387b5760028114613885576138b4565b6001915050613913565b60ff84111561389757613896612dd4565b5b8360020a9150848211156138ae576138ad612dd4565b5b50613913565b5060208310610133831016604e8410600b84101617156138e95782820a9050838111156138e4576138e3612dd4565b5b613913565b6138f684848460016137f7565b9250905081840481111561390d5761390c612dd4565b5b81810290505b9392505050565b5f613924826126d5565b915061392f836126d5565b925061395c7fffffffffffffffffffffffffffffffffffffffffffffffffffffffffffffffff8484613849565b90509291505056fea264697066735822122052b09bb009b2a5e2ecd938520cc489624ae9e5cbbb641b2ed580f3219ea03bbb64736f6c63430008210033","linkReferences":{}},"methodIdentifiers":{"MAX_PAYLOAD_AGE()":"35a99600","NAV_UPDATE_TYPEHASH()":"6e913cc0","addAuditor(address)":"e429cef1","checkUpkeep(bytes)":"6e04ff0d","donId()":"8dbe7b9d","eip712Domain()":"84b0196e","gasLimit()":"f68016b7","handleOracleFulfillment(bytes32,bytes,bytes)":"0ca76175","isAuditor(address)":"49b90557","jsSource()":"272808a3","lastNonce()":"52631ab4","lastRequestId()":"fc2a88c3","lastRequestedAt()":"41628ce0","owner()":"8da5cb5b","performUpkeep(bytes)":"4585e33b","removeAuditor(address)":"e6116cfd","renounceOwnership()":"715018a6","requestInterval()":"536f6070","requestNAVUpdate()":"d65060fb","setGasLimit(uint32)":"52d84c62","setJsSource(string)":"d8f4809a","setRequestInterval(uint256)":"44af6819","setSubscriptionId(uint64)":"ea7b4f77","submitSignedNAV(uint256,uint256,uint256,bytes)":"5ff52684","subscriptionId()":"09c1ba2e","transferOwnership(address)":"f2fde38b","vault()":"fbfa77cf"},"id":64}